:020000040800F2
:10000000008002208535000895340008A3340008DC
:10001000A9340008AF340008B5340008000000001F
:10002000000000000000000000000000BB340008D9
:10003000C934000800000000D7340008E534000887
:10004000D5350008D5350008D5350008D535000868
:10005000D5350008D5350008D5350008D535000858
:10006000D5350008D5350008D5350008D535000848
:10007000D5350008D5350008D5350008D535000838
:10008000D5350008D5350008D5350008D535000828
:10009000D5350008D5350008D5350008D535000818
:1000A000D5350008D5350008D5350008D535000808
:1000B000D5350008D535000800000000D53500080A
:1000C000D5350008D5350008D5350008D5350008E8
:1000D000D5350008D5350008D5350008D5350008D8
:1000E000F5340008D53500080000000000000000CD
:1000F0000000000000000000000000000000000000
:1001000000000000D535000800000000D5350008CB
:10011000D53500080000000005350008000000008B
:10012000D5350008D5350008D5350008D535000887
:10013000D5350008D5350008D53500080000000089
:10014000D5350008D5350008D5350008D535000867
:10015000D5350008D5350008D5350008D535000857
:10016000D5350008D5350008D53500080000000059
:1001700000000000D535000800000000000000006D
:10018000D5350008D5350008D5350008D535000827
:04019000D535000859
:1001940010B5054C237833B9044B13B10448AFF3BD
:1001A40000800123237010BD100000200000000017
:1001B4003036000808B5034B1BB103490348AFF3BD
:1001C400008008BD00000000140000203036000844
:1001D400034613F8012B002AFBD1181A0138704783
:1001E40053B94AB9002908BF00281CBF4FF0FF319A
:1001F4004FF0FF3000F07AB9ADF1080C6DE904CE90
:1002040000F006F8DDF804E0DDE9022304B07047ED
:100214002DE9F0478C460D460446089E002B51D12B
:100224008A4217466DD9B2FA82FEBEF1000F0BD096
:10023400CEF1200C01FA0EF520FA0CFC02FA0EF7AE
:100244004CEA050C00FA0EF44FEA174A250CBCFBE5
:10025400FAF81FFA87F90AFB18CC45EA0C4508FBA3
:1002640009F3AB420AD9ED1908F1FF3280F023817A
:10027400AB4240F22081A8F102083D44ED1AA4B239
:10028400B5FBFAF00AFB105544EA054400FB09F9F2
:10029400A14509D9E41900F1FF3380F00A81A14591
:1002A40040F2078102383C44A4EB090440EA0840C8
:1002B4000021002E61D024FA0EF400233460736010
:1002C400BDE8F0878B4207D9002E54D0002186E880
:1002D40021000846BDE8F087B3FA83F1002940F015
:1002E4008E80AB4202D3824200F2FA80841A65EB1C
:1002F40003050120AC46002E3FD086E81010BDE86F
:10030400F08712B90127B7FBF2F7B7FA87FEBEF1FF
:10031400000F34D1EB1B3A0C1FFA87FC0121B3FB0D
:10032400F2F8250C02FB183345EA03450CFB08F3ED
:10033400AB4207D9ED1908F1FF3002D2AB4200F20B
:10034400D1808046ED1AA3B2B5FBF2F002FB105542
:1003540043EA05440CFB00FCA44507D9E41900F169
:10036400FF3302D2A44500F2B8801846A4EB0C0473
:1003740040EA08409DE731463046BDE8F087CEF1BB
:10038400200405FA0EF307FA0EF720FA04F83A0CE3
:1003940025FA04F448EA0308B4FBF2F14FEA1845DD
:1003A40002FB11441FFA87FC45EA044501FB0CF3E8
:1003B400AB4200FA0EF409D9ED1901F1FF3080F0D7
:1003C4008A80AB4240F2878002393D44EB1A1FFA1F
:1003D40088F5B3FBF2F002FB103345EA034500FB5A
:1003E4000CF3AB4207D9ED1900F1FF386FD2AB42E1
:1003F4006DD902383D44EB1A40EA01418FE7C1F15F
:10040400200722FA07F88B4005FA01F448EA0303AF
:1004140020FA07FE4FEA134CFD404EEA040EB5FBEA
:10042400FCF94FEA1E440CFB19551FFA83F844EA01
:10043400054509FB08F4AC4202FA01F200FA01FA9C
:1004440008D9ED1809F1FF3043D2AC4241D9A9F1E2
:1004540002091D442D1B1FFA8EFEB5FBFCF00CFB9C
:1004640010554EEA054400FB08F8A04507D9E418E6
:1004740000F1FF3529D2A04527D902381C4440EAAF
:100484000940A4EB0804A0FB02894C45C6464D462E
:1004940015D312D056B1BAEB0E0364EB050404FA7B
:1004A40007F7CB401F43CC40376074600021BDE8A0
:1004B400F0871846F8E69046E0E6C245EAD2B8EB83
:1004C400020E69EB03050138E4E72846D7E7404606
:1004D40091E78146BEE7014678E702383C4445E7A8
:1004E400084608E7A8F102083D442BE7704700BF1F
:1004F40080B582B000AF0023FB710C4A0B4B1B6824
:1005040043F480731360032000F038F9002000F0F6
:100514000FF80346002B02D00123FB7101E002F027
:100524002BFFFB7918460837BD4680BD00200240EA
:1005340080B584B000AF78600023FB73164B1B6852
:10054400002B22D0154B1A68134B1B684FF47A7199
:10055400B1FBF3F3B2FBF3F3184600F044F903469E
:10056400002B0FD17B680F2B09D8002279684FF03C
:10057400FF3000F00EF90A4A7B68136007E001239C
:10058400FB7304E00123FB7301E00123FB73FB7B9A
:1005940018461037BD4680BD040000200C00002022
:1005A4000000002080B400AF054B1A68054B1B689F
:1005B4001344034A136000BFBD465DF8047B7047D3
:1005C400380000200400002080B400AF034B1B68F7
:1005D4001846BD465DF8047B704700BF3800002014
:1005E40080B485B000AF78607B6803F00703FB60DC
:1005F4000C4BDB68BB60BA684FF6FF031340BB606B
:10060400FB681A02BB68134343F0BF6343F400332F
:10061400BB60044ABB68D36000BF1437BD465DF8B5
:10062400047B704700ED00E080B400AF044BDB684E
:100634001B0A03F007031846BD465DF8047B7047A8
:1006440000ED00E080B483B000AF0346FB7197F97E
:100654000730002B0BDB094997F907305B09FA795E
:1006640002F01F02012000FA02F241F8232000BF29
:100674000C37BD465DF8047B704700BF00E100E025
:1006840080B483B000AF03463960FB7197F907303B
:10069400002B0ADB0D4997F907303A68D2B21201F0
:1006A400D2B20B4483F800230AE00949FB7903F032
:1006B4000F03043B3A68D2B21201D2B20B441A7649
:1006C40000BF0C37BD465DF8047B704700E100E0D5
:1006D40000ED00E080B489B000AFF860B9607A60E2
:1006E400FB6803F00703FB61FB69C3F10703042BF9
:1006F40028BF0423BB61FB690433062B02D9FB69C1
:10070400033B00E000237B610122BB6902FA03F38F
:100714005A1EBB681A407B699A4001217B6901FA21
:1007240003F3591E7B680B40134318462437BD4618
:100734005DF8047B7047000080B582B000AF78603C
:100744007B68013BB3F1807F01D301230FE00A4AA8
:100754007B68013B53600F214FF0FF30FFF790FFA0
:10076400054B00229A60044B07221A6000231846A6
:100774000837BD4680BD00BF10E000E080B582B000
:1007840000AF78607868FFF72BFF00BF0837BD46DD
:1007940080BD80B586B000AF0346B9607A60FB7354
:1007A40000237B61FFF740FF78617A68B968786954
:1007B400FFF790FF024697F90F3011461846FFF7EE
:1007C4005FFF00BF1837BD4680BD80B582B000AF63
:1007D4000346FB7197F907301846FFF733FF00BF54
:1007E4000837BD4680BD80B582B000AF78607868B8
:1007F400FFF7A2FF034618460837BD4680BD000038
:1008040080B487B000AF7860396000237B6154E125
:100814003B681A6801217B6901FA03F31340FB600A
:10082400FB68002B00F046813B685B68022B03D019
:100834003B685B68122B23D17B69DA087B6808323A
:1008440053F822303B617B6903F007039B000F22BE
:1008540002FA03F3DB433A6913403B613B681A69CC
:100864007B6903F007039B0002FA03F33A6913431D
:100874003B617B69DA087B680832396943F82210E6
:100884007B681B683B617B695B00032202FA03F30C
:10089400DB433A6913403B613B685B6803F0030246
:1008A4007B695B0002FA03F33A6913433B617B689B
:1008B4003A691A603B685B68012B0BD03B685B6844
:1008C400022B07D03B685B68112B03D03B685B6845
:1008D400122B30D17B689B683B617B695B000322F0
:1008E40002FA03F3DB433A6913403B613B68DA687D
:1008F4007B695B0002FA03F33A6913433B617B684B
:100904003A699A607B685B683B6101227B6902FA01
:1009140003F3DB433A6913403B613B685B681B09A3
:1009240003F001027B6902FA03F33A6913433B6162
:100934007B683A695A607B68DB683B617B695B0072
:10094400032202FA03F3DB433A6913403B613B6839
:100954009A687B695B0002FA03F33A6913433B61CB
:100964007B683A69DA603B685B6803F08053002B6C
:1009740000F0A080584A584B1B6E43F001031366E5
:10098400554B1B6E03F00103BB60BB68534A7B6984
:100994009B08023352F823303B617B6903F0030365
:1009A4009B000F2202FA03F3DB433A6913403B61D5
:1009B4007B68B3F1904F19D07B68494A934213D0B6
:1009C4007B68484A93420DD07B68474A934207D0DC
:1009D4007B68464A934201D1042308E0072306E0DA
:1009E400032304E0022302E0012300E000237A69E8
:1009F40002F00302920093403A6913433B61374982
:100A04007B699B0802333A6941F82320384B1B6801
:100A14003B61FB68DB433A6913403B613B685B68BD
:100A240003F48033002B03D03A69FB6813433B6122
:100A34002F4A3B6913602E4B5B683B61FB68DB43C9
:100A44003A6913403B613B685B6803F40033002B55
:100A540003D03A69FB6813433B61254A3B69536001
:100A6400234B9B683B61FB68DB433A6913403B6162
:100A74003B685B6803F48013002B03D03A69FB687E
:100A840013433B611A4A3B699360194BDB683B6132
:100A9400FB68DB433A6913403B613B685B6803F4E2
:100AA4000013002B03D03A69FB6813433B61104ADF
:100AB4003B69D3607B6901337B613B681A687B695E
:100AC40022FA03F3002B7FF4A3AE00BF1C37BD460C
:100AD4005DF8047B704700BF001002400000014035
:100AE4000004004800080048000C004800100048BA
:100AF4000004014080B485B000AF78600B467B8071
:100B04007B681A697B881340002B02D00123FB7396
:100B140001E00023FB73FB7B18461437BD465DF8E8
:100B2400047B704780B483B000AF78600B467B8051
:100B340013467B707B78002B03D07A887B689A619C
:100B440002E07A887B689A6200BF0C37BD465DF884
:100B5400047B704780B582B000AF0346FB80084B2E
:100B64005A69FB881340002B06D0054AFB88536161
:100B7400FB88184602F0B2FB00BF0837BD4680BDB3
:100B84000004014080B400AF044B1B6803F4C0634D
:100B94001846BD465DF8047B704700BF00700040F6
:100BA40080B485B000AF78607B68B3F5007F30D146
:100BB400234B1B6803F4C063B3F5007F38D0204A8D
:100BC4001F4B1B6823F4C06343F4007313601D4B75
:100BD4001B68322202FB03F31B4AA2FB03239B0C78
:100BE4000133FB6002E0FB68013BFB60144B5B6973
:100BF40003F48063B3F5806F02D1FB68002BF2D15C
:100C04000F4B5B6903F48063B3F5806F10D103234A
:100C14000FE00B4B1B6803F4C063B3F5806F07D080
:100C2400074A074B1B6823F4C06343F480631360D3
:100C3400002318461437BD465DF8047B704700BF97
:100C4400007000400C00002083DE1B4380B588B098
:100C540000AF78607B68002B01D10123DBE3A44B58
:100C64009B6803F00C03BB61A14BDB6803F0030337
:100C74007B617B681B6803F01003002B00F0E180AC
:100C8400BB69002B07D0BB690C2B40F088807B69C3
:100C9400012B40F08480964B1B6803F00203002B69
:100CA40005D07B689B69002B01D10123B3E37B68EA
:100CB4001A6A8F4B1B6803F00803002B04D08C4B7B
:100CC4001B6803F0F00305E0894BD3F894301B094B
:100CD40003F0F0039A4223D97B681B6A184600F09C
:100CE40047FD0346002B01D0012394E3804A804B47
:100CF4001B6843F0080313607D497D4B1B6823F098
:100D0400F0027B681B6A13430B607949784B5B687C
:100D140023F47F427B68DB691B0213434B6022E0B0
:100D2400734A734B1B6843F0080313607049704B9C
:100D34001B6823F0F0027B681B6A13430B606C4949
:100D44006B4B5B6823F47F427B68DB691B021343B4
:100D54004B607B681B6A184600F00AFD0346002BB3
:100D640001D0012357E300F041FC0146604B9B682E
:100D74001B0903F00F035F4AD35C03F01F0321FA3E
:100D840003F35D4A13605D4B1B681846FFF7D0FB05
:100D94000346FB73FB7B002B52D0FB7B3BE37B685E
:100DA4009B69002B32D0524A514B1B6843F001031C
:100DB4001360FFF709FC386108E0FFF705FC024601
:100DC4003B69D31A022B01D9032324E3484B1B6844
:100DD40003F00203002BF0D0454A454B1B6843F057
:100DE400080313604249424B1B6823F0F0027B68FE
:100DF4001B6A13430B603E493D4B5B6823F47F42FF
:100E04007B68DB691B0213434B601AE0384A384B9A
:100E14001B6823F001031360FFF7D6FB386108E079
:100E2400FFF7D2FB02463B69D31A022B01D90323F5
:100E3400F1E22F4B1B6803F00203002BF0D100E01A
:100E440000BF7B681B6803F00103002B74D0BB69EF
:100E5400082B05D0BB690C2B0ED17B69032B0BD15E
:100E6400234B1B6803F40033002B64D07B685B685E
:100E7400002B60D10123CEE27B685B68B3F5803F31
:100E840006D11B4A1A4B1B6843F4803313601DE0E0
:100E94007B685B68B3F5A02F0CD1154A144B1B6813
:100EA40043F480231360124A114B1B6843F48033CC
:100EB40013600BE00E4A0E4B1B6823F4803313605F
:100EC4000B4A0B4B1B6823F4802313607B685B681D
:100ED400002B1CD0FFF778FB386111E0FFF774FB9F
:100EE40002463B69D31A642B0AD9032393E200BF59
:100EF40000100240A03600080C0000200000002072
:100F0400AE4B1B6803F40033002BE7D014E0FFF76B
:100F14005BFB386108E0FFF757FB02463B69D31AD5
:100F2400642B01D9032376E2A44B1B6803F400333A
:100F3400002BF0D100E000BF7B681B6803F00203C4
:100F4400002B60D0BB69042B05D0BB690C2B19D1D5
:100F54007B69022B16D1994B1B6803F48063002B29
:100F640005D07B68DB68002B01D1012353E2934950
:100F7400924B5B6823F0FE427B681B691B0613439C
:100F84004B6040E07B68DB68002B23D08B4A8B4BA3
:100F94001B6843F480731360FFF716FB386108E0A5
:100FA400FFF712FB02463B69D31A022B01D9032334
:100FB40031E2824B1B6803F48063002BF0D07F493D
:100FC4007E4B5B6823F0FE427B681B691B06134360
:100FD4004B6018E0794A794B1B6823F480731360E3
:100FE400FFF7F2FA386108E0FFF7EEFA02463B69D0
:100FF400D31A022B01D903230DE2704B1B6803F4AF
:101004008063002BF0D17B681B6803F00803002B7E
:101014003CD07B685B69002B1CD0684A674BD3F8D3
:10102400943043F00103C2F89430FFF7CDFA3861ED
:1010340008E0FFF7C9FA02463B69D31A022B01D92B
:101044000323E8E15D4BD3F8943003F00203002B53
:10105400EFD01BE0594A594BD3F8943023F00103E5
:10106400C2F89430FFF7B0FA386108E0FFF7ACFA41
:1010740002463B69D31A022B01D90323CBE14F4B20
:10108400D3F8943003F00203002BEFD17B681B6884
:1010940003F00403002B00F0A5800023FB77474BEB
:1010A4009B6D03F08053002B0DD1444A434B9B6D41
:1010B40043F080539365414B9B6D03F08053BB60B9
:1010C400BB680123FB773E4B1B6803F48073002B42
:1010D40018D13B4A3A4B1B6843F480731360FFF703
:1010E40073FA386108E0FFF76FFA02463B69D31AD6
:1010F400022B01D903238EE1314B1B6803F4807367
:10110400002BF0D07B689B68012B08D12B4A2B4B1A
:10111400D3F8903043F00103C2F8903024E07B68A8
:101124009B68052B10D1254A244BD3F8903043F00B
:101134000403C2F89030214A204BD3F8903043F096
:101144000103C2F890300FE01C4A1C4BD3F89030D6
:1011540023F00103C2F89030184A184BD3F89030AA
:1011640023F00403C2F890307B689B68002B16D0F0
:10117400FFF72AFA38610AE0FFF726FA02463B69CC
:10118400D31A41F28832934201D9032343E10B4B32
:10119400D3F8903003F00203002BEDD019E0FFF7F1
:1011A40013FA38610EE0FFF70FFA02463B69D31ACF
:1011B40041F28832934205D903232CE10010024006
:1011C40000700040964BD3F8903003F00203002BDC
:1011D400E9D1FB7F012B05D1914A914B9B6D23F003
:1011E400805393657B681B6803F02003002B3CD07D
:1011F4007B685B6A002B1CD0894A894BD3F89830F2
:1012040043F00103C2F89830FFF7DEF9386108E0D3
:10121400FFF7DAF902463B69D31A022B01D90323FB
:10122400F9E07F4BD3F8983003F00203002BEFD0A2
:101234001BE07B4A7A4BD3F8983023F00103C2F8C1
:101244009830FFF7C1F9386108E0FFF7BDF90246AD
:101254003B69D31A022B01D90323DCE0704BD3F88A
:10126400983003F00203002BEFD17B689B6A002BBC
:1012740000F0D080BB690C2B00F08D807B689B6AEA
:10128400022B5AD1664A664B1B6823F080731360A5
:10129400FFF79AF9386108E0FFF796F902463B69CF
:1012A400D31A022B01D90323B5E05D4B1B6803F06D
:1012B4000073002BF0D15A48594BDA68594B13404C
:1012C4007A68D16A7A68126B013A120111437A681A
:1012D400526B120211437A68D26B5208013A5205DA
:1012E40011437A68126C5208013A520611437A6823
:1012F400926BD2060A431343C360494A484B1B68A6
:1013040043F080731360464A454BDB6843F08073B7
:10131400D360FFF759F9386108E0FFF755F9024641
:101324003B69D31A022B01D9032374E03C4B1B689D
:1013340003F00073002BF0D06CE0394A384B1B6883
:1013440023F080731360364B1B6803F00063002B9B
:1013540005D1334A324BDB6823F00303D360304AB0
:101364002F4BDB6823F0887323F48033D360FFF7BB
:101374002BF9386108E0FFF727F902463B69D31AD5
:10138400022B01D9032346E0254B1B6803F00073AD
:10139400002BF0D13EE07B689B6A012B01D1012335
:1013A40039E01F4BDB687B617B6903F003027B68D8
:1013B400DB6A9A422CD17B6903F070027B681B6B59
:1013C400013B1B019A4223D17B6903F4FE427B68F3
:1013D4005B6B1B029A421BD17B6903F078427B68EA
:1013E4009B6BDB069A4213D17B6903F4C0027B68D2
:1013F400DB6B5B08013B5B059A4209D17B6903F017
:10140400C0627B681B6C5B08013B5B069A4201D09F
:10141400012300E0002318462037BD4680BD00BFED
:10142400001002408C809D0180B584B000AF7860CC
:1014340039607B68002B01D10123C8E0664B1B682F
:1014440003F007023B689A4210D26349624B1B685F
:1014540023F007023B6813430B605F4B1B6803F0E8
:1014640007023B689A4201D00123B0E07B681B6805
:1014740003F00103002B4CD07B685B68032B07D17E
:10148400564B1B6803F00073002B21D101239EE00F
:101494007B685B68022B07D1504B1B6803F4003355
:1014A400002B15D1012392E07B685B68002B07D1E8
:1014B4004A4B1B6803F00203002B09D1012386E089
:1014C400464B1B6803F48063002B01D101237EE0AB
:1014D4004249424B9B6823F003027B685B681343D9
:1014E4008B60FFF771F8F8600AE0FFF76DF80246C9
:1014F400FB68D31A41F28832934201D9032366E090
:10150400364B9B6803F00C027B685B689B009A4235
:10151400EBD17B681B6803F00203002B08D02F4932
:101524002E4B9B6823F0F0027B689B6813438B600F
:10153400294B1B6803F007023B689A4210D92649DD
:10154400254B1B6823F007023B6813430B60224BB7
:101554001B6803F007023B689A4201D0012336E07E
:101564007B681B6803F00403002B08D01B491B4B4A
:101574009B6823F4E0627B68DB6813438B607B68C1
:101584001B6803F00803002B09D01449134B9B6814
:1015940023F460527B681B69DB0013438B6000F00B
:1015A40025F801460D4B9B681B0903F00F030C4AF9
:1015B400D35C03F01F0321FA03F30A4A13600A4BB6
:1015C4001B681846FEF7B4FF0346FB72FB7A184605
:1015D4001037BD4680BD00BF00200240001002400D
:1015E400A03600080C0000200000002080B489B060
:1015F40000AF0023FB610023BB613D4B9B6803F0FC
:101604000C033B613A4BDB6803F00303FB603B696B
:10161400002B05D03B690C2B21D1FB68012B1ED17B
:10162400334B1B6803F00803002B07D1304BD3F86E
:1016340094301B0A03F00F03FB6105E02C4B1B687D
:101644001B0903F00F03FB612A4AFB6952F823309C
:10165400FB613B69002B0DD1FB69BB610AE03B696F
:10166400042B02D1244BBB6104E03B69082B01D15C
:10167400224BBB613B690C2B33D11D4BDB6803F060
:101684000303BB60BB68022B02D0032B03D005E02D
:10169400194B7B6105E0194B7B6102E0FB697B61BF
:1016A40000BF134BDB681B0903F0070301337B60A6
:1016B4000F4BDB681B0A03F07F037A6902FB03F21A
:1016C4007B68B2FBF3F37B61094BDB685B0E03F0D1
:1016D400030301335B003B607A693B68B2FBF3F3BD
:1016E400BB61BB6918462437BD465DF8047B70476F
:1016F40000100240B83600080024F40000127A00FA
:1017040080B400AF034B1B681846BD465DF8047BEC
:10171400704700BF0C00002080B500AFFFF7F0FF5A
:101724000146064B9B681B0A03F00703044AD35C7B
:1017340003F01F0321FA03F3184680BD0010024092
:10174400B036000880B500AFFFF7DAFF0146064B5C
:101754009B68DB0A03F00703044AD35C03F01F030E
:1017640021FA03F3184680BD00100240B036000889
:1017740080B586B000AF786000233B612A4B9B6D37
:1017840003F08053002B03D0FFF7FCF9786114E0D9
:10179400254A254B9B6D43F080539365224B9B6DEB
:1017A40003F08053FB60FB68FFF7ECF978611E4A95
:1017B4001D4B9B6D23F0805393657B69B3F5007FCC
:1017C4000BD17B68802B19D97B68A02B02D902230B
:1017D4003B6113E001233B6110E07B68802B02D95D
:1017E40003233B610AE07B68802B02D102233B6127
:1017F40004E07B68702B01D101233B610B490B4B47
:101804001B6823F007023B6913430B60074B1B68FB
:1018140003F007023B699A4201D0012300E0002350
:1018240018461837BD4680BD001002400020024013
:1018340080B586B000AF78600023FB740023BB74CE
:101844007B681B6803F40063002B2FD07B68DB6C80
:10185400B3F5000F05D0B3F5400F15D0002B07D01A
:101864000FE05D4A5C4BDB6843F48033D3600CE0EB
:101874007B6804330021184600F044FA0346FB74E5
:1018840003E00123FB7400E000BFFB7C002B0BD1C1
:101894005149514BD3F8883023F440027B68DB6C08
:1018A4001343C1F8883001E0FB7CBB747B681B6880
:1018B40003F40033002B00F09E8000237B74464B1E
:1018C4009B6D03F08053002B01D1012300E0002322
:1018D400002B0DD0404A404B9B6D43F080539365E1
:1018E4003D4B9B6D03F08053BB60BB6801237B744D
:1018F4003A4A3A4B1B6843F480731360FEF764FE64
:10190400F86009E0FEF760FE0246FB68D31A022B7A
:1019140002D90323FB7405E0304B1B6803F4807386
:10192400002BEFD0FB7C002B5AD12B4BD3F89030FB
:1019340003F440737B617B69002B1ED07B685A6E75
:101944007B699A4219D0244BD3F8903023F4407326
:101954007B61214A204BD3F8903043F48033C2F8A2
:1019640090301D4A1C4BD3F8903023F48033C2F8D6
:101974009030194A7B69C2F890307B6903F0010307
:10198400002B16D0FEF720FEF8600BE0FEF71CFEDD
:101994000246FB68D31A41F28832934202D90323E8
:1019A400FB7406E00C4BD3F8903003F00203002BD9
:1019B400ECD0FB7C002B0BD10749074BD3F89030BC
:1019C40023F440727B685B6E1343C1F8903009E0E6
:1019D400FB7CBB7406E000BF0010024000700040B6
:1019E400FB7CBB747B7C012B05D19E4A9D4B9B6D7C
:1019F40023F0805393657B681B6803F00103002B7D
:101A04000AD09849974BD3F8883023F003027B68B7
:101A14001B6A1343C1F888307B681B6803F0020318
:101A2400002B0AD08F498F4BD3F8883023F00C0257
:101A34007B685B6A1343C1F888307B681B6803F0DA
:101A44000403002B0AD08749864BD3F8883023F04F
:101A540030027B689B6A1343C1F888307B681B683B
:101A640003F00803002B0AD07E497E4BD3F888305C
:101A740023F0C0027B68DB6A1343C1F888307B68BB
:101A84001B6803F02003002B0AD07649754BD3F86A
:101A9400883023F440627B681B6B1343C1F88830A1
:101AA4007B681B6803F40073002B0AD06D496D4BEF
:101AB400D3F8883023F440227B685B6C1343C1F86D
:101AC40088307B681B6803F48063002B0AD0654967
:101AD400644BD3F8883023F440127B689B6C134327
:101AE400C1F888307B681B6803F04003002B0AD0E0
:101AF4005C495C4BD3F8883023F440527B685B6BC1
:101B04001343C1F888307B681B6803F08003002B03
:101B14000AD05449534BD3F8883023F440427B68AD
:101B24009B6B1343C1F888307B681B6803F4807394
:101B3400002B0AD04B494B4BD3F8883023F4403266
:101B44007B68DB6B1343C1F888307B681B6803F444
:101B54008013002B0AD04349424BD3F89C3023F026
:101B640003027B681B6C1343C1F89C307B681B68C1
:101B740003F40053002B28D03A493A4BD3F8883069
:101B840023F040627B681B6D1343C1F888307B6887
:101B94001B6DB3F1006F06D1324A324BDB6843F45C
:101BA4008013D36011E07B681B6DB3F1806F0CD19F
:101BB4007B6804330121184600F0A4F80346FB7443
:101BC400FB7C002B01D0FB7CBB747B681B6803F49B
:101BD4000023002B28D02349224BD3F8883023F04C
:101BE40040627B685B6D1343C1F888307B685B6D32
:101BF400B3F1006F06D11B4A1A4BDB6843F4801320
:101C0400D36011E07B685B6DB3F1806F0CD17B68AE
:101C140004330121184600F075F80346FB74FB7C7D
:101C2400002B01D0FB7CBB747B681B6803F480230E
:101C3400002B2BD00B490B4BD3F8883023F0406298
:101C44007B689B6D1343C1F888307B689B6DB3F14F
:101C5400006F09D1034A034BDB6843F48013D3605C
:101C640014E000BF001002407B689B6DB3F1806FED
:101C74000CD17B6804330121184600F043F8034675
:101C8400FB74FB7C002B01D0FB7CBB747B681B6862
:101C940003F48043002B1CD01949194BD3F8883026
:101CA40023F040527B68DB6D1343C1F888307B68B6
:101CB400DB6DB3F1805F0CD17B68043302211846DD
:101CC40000F020F80346FB74FB7C002B01D0FB7C66
:101CD400BB747B681B6803F48033002B0AD008496B
:101CE400074BD3F8883023F000427B681B6E134304
:101CF400C1F88830BB7C18461837BD4680BD00BF8C
:101D04000010024080B584B000AF786039600023D1
:101D1400FB73734BDB6803F00303002B18D0704B89
:101D2400DB6803F003027B681B689A420DD17B6871
:101D34001B68002B09D06A4BDB681B0903F00703FF
:101D44005A1C7B685B689A4244D00123FB7341E0D0
:101D54007B681B68022B0CD0032B13D0012B20D1E2
:101D64005F4B1B6803F00203002B1DD10123FB739F
:101D74001AE05B4B1B6803F48063002B16D101232C
:101D8400FB7313E0564B1B6803F40033002B0FD195
:101D9400534B1B6803F48023002B09D10123FB73ED
:101DA40006E00123FB7304E000BF02E000BF00E093
:101DB40000BFFB7B002B0DD14948494BDB6823F066
:101DC40073027B6819687B685B68013B1B010B43EA
:101DD4001343C360FB7B002B7CD1414A404B1B68FF
:101DE40023F080631360FEF7EFFBB86009E0FEF7B1
:101DF400EBFB0246BB68D31A022B02D90323FB7305
:101E040005E0374B1B6803F00063002BEFD1FB7B2D
:101E1400002B5FD13B68002B10D13148304B1B693C
:101E240023F0784323F4FE437A68926811027A68B7
:101E3400D268D2060A431343036127E03B68012BAF
:101E440012D12748264B1B6923F4C00323F4FE4315
:101E54007A68926811027A6812695208013A520546
:101E64000A431343036111E01D481D4B1B6923F012
:101E7400C06323F4FE437A68926811027A68526957
:101E84005208013A52060A4313430361144A144B9D
:101E94001B6843F080631360FEF796FBB86009E0AB
:101EA400FEF792FB0246BB68D31A022B02D9032326
:101EB400FB7305E00A4B1B6803F00063002BEFD0B3
:101EC400FB7B002B06D10649054B1A697B689B698D
:101ED40013430B61FB7B18461037BD4680BD00BF22
:101EE4000010024080B582B000AF78607B68002BA0
:101EF40001D101231DE07B6893F83D30DBB2002B58
:101F040006D17B68002283F83C20786801F058FAF7
:101F14007B68022283F83D207B681A687B6804335F
:101F24001946104600F07CF97B68012283F83D20B5
:101F3400002318460837BD4680BD000080B485B034
:101F440000AF78607B681B687A681268D26842F0D8
:101F54000102DA607B681B689A680C4B1340FB60D3
:101F6400FB68062B0BD0FB68B3F5803F07D07B687A
:101F74001B687A681268126842F001021A60002332
:101F840018461437BD465DF8047B7047070001000E
:101F940080B582B000AF78607B681B681B6903F072
:101FA4000203022B22D17B681B68DB6803F0020367
:101FB400022B1BD17B681B686FF002021A617B68DD
:101FC40001221A777B681B689B6903F00303002BCB
:101FD40003D0786800F005F905E0786800F0F7F8B8
:101FE400786800F008F97B6800221A777B681B6820
:101FF4001B6903F00403042B22D17B681B68DB6894
:1020040003F00403042B1BD17B681B686FF00402EC
:102014001A617B6802221A777B681B689B6903F448
:102024004073002B03D0786800F0DBF805E0786893
:1020340000F0CDF8786800F0DEF87B6800221A77AB
:102044007B681B681B6903F00803082B22D17B689B
:102054001B68DB6803F00803082B1BD17B681B6833
:102064006FF008021A617B6804221A777B681B6888
:10207400DB6903F00303002B03D0786800F0B1F8A8
:1020840005E0786800F0A3F8786800F0B4F87B689D
:1020940000221A777B681B681B6903F01003102B5E
:1020A40022D17B681B68DB6803F01003102B1BD163
:1020B4007B681B686FF010021A617B6808221A772C
:1020C4007B681B68DB6903F44073002B03D07868DA
:1020D40000F087F805E0786800F079F8786800F097
:1020E4008AF87B6800221A777B681B681B6903F0F7
:1020F4000103012B0ED17B681B68DB6803F001032D
:10210400012B07D17B681B686FF001021A617868A4
:1021140001F0CAF87B681B681B6903F08003802BFD
:102124000ED17B681B68DB6803F08003802B07D12A
:102134007B681B686FF080021A61786800F03EF9D2
:102144007B681B681B6903F48073B3F5807F0ED131
:102154007B681B68DB6803F08003802B07D17B68F6
:102164001B686FF480721A61786800F031F97B683B
:102174001B681B6903F04003402B0ED17B681B686E
:10218400DB6803F04003402B07D17B681B686FF0CA
:1021940040021A61786800F038F87B681B681B6994
:1021A40003F02003202B0ED17B681B68DB6803F04F
:1021B4002003202B07D17B681B686FF020021A6173
:1021C400786800F0F1F800BF0837BD4680BD80B4E0
:1021D40083B000AF786000BF0C37BD465DF8047B68
:1021E400704780B483B000AF786000BF0C37BD4641
:1021F4005DF8047B704780B483B000AF786000BFA3
:102204000C37BD465DF8047B704780B483B000AFE3
:10221400786000BF0C37BD465DF8047B7047000052
:1022240080B485B000AF786039607B681B68FB6060
:102234007B682E4A934207D07B68B3F1804F03D06A
:102244007B682B4A934208D1FB6823F07003FB6040
:102254003B685B68FA681343FB607B68234A9342DC
:102264000FD07B68B3F1804F0BD07B68204A934238
:1022740007D07B681F4A934203D07B681E4A93426F
:1022840008D1FB6823F44073FB603B68DB68FA68A1
:102294001343FB60FB6823F080023B685B691343D4
:1022A400FB607B68FA681A603B689A687B68DA624C
:1022B4003B681A687B689A627B680C4A934207D031
:1022C4007B680C4A934203D07B680B4A934203D148
:1022D4003B681A697B681A637B6801225A6100BFF4
:1022E4001437BD465DF8047B704700BF002C0140E5
:1022F40000040040004001400044014080B485B027
:1023040000AF786039607B6893F83C30012B01D1D1
:10231400022340E07B68012283F83C207B68022290
:1023240083F83D207B681B685B68FB607B681B68E7
:102334009B68BB607B681B681A4A934208D1FB68A0
:1023440023F47003FB603B685B68FA681343FB602B
:10235400FB6823F07003FB603B681B68FA68134357
:10236400FB60BB6823F08003BB603B689B68BA6872
:102374001343BB607B681B68FA685A607B681B6800
:10238400BA689A607B68012283F83D207B6800224A
:1023940083F83C20002318461437BD465DF8047BBF
:1023A400704700BF002C014080B483B000AF786058
:1023B40000BF0C37BD465DF8047B704780B483B022
:1023C40000AF786000BF0C37BD465DF8047B7047F2
:1023D40080B483B000AF786000BF0C37BD465DF8B1
:1023E400047B704780B582B000AF78607B68002BB7
:1023F40001D1012340E07B685B6F002B06D17B6831
:10240400002283F87020786801F000F87B682422A9
:102414005A677B681B687A681268126822F00102A6
:102424001A60786800F0C0F80346012B01D101233B
:1024340022E07B685B6A002B02D0786800F0C0FB66
:102444007B681B687A681268526822F490425A606A
:102454007B681B687A681268926822F02A029A6084
:102464007B681B687A681268126842F001021A607D
:10247400786800F047FC034618460837BD4680BD1F
:1024840080B58AB002AFF860B9603B601346FB8048
:10249400FB685B6F202B40F08180BB68002B02D06F
:1024A400FB88002B01D1012379E0FB6893F870309D
:1024B400012B01D1022372E0FB68012283F8702012
:1024C400FB680022DA67FB6821225A67FEF77CF872
:1024D4007861FB68FA88A3F85020FB68FA88A3F8AF
:1024E4005220FB689B68B3F5805F08D1FB681B69C9
:1024F400002B04D10023FB61BB68BB6103E0BB6814
:10250400FB610023BB612DE03B6800937B690022E3
:102514008021F86800F03BFC0346002B01D0032324
:102524003DE0FB69002B0BD1FB681B68BA6912887C
:10253400C2F3080292B21A85BB690233BB6108E098
:10254400FB681B68FA69127892B21A85FB69013339
:10255400FB61FB68B3F852309BB2013B9AB2FB6853
:10256400A3F85220FB68B3F852309BB2002BCBD1B6
:102574003B6800937B6900224021F86800F007FC67
:102584000346002B01D0032309E0FB6820225A678D
:10259400FB68002283F87020002300E00223184621
:1025A4002037BD4680BD00002DE9B04388B000AFA0
:1025B400786000237B610023FB740023FB607B684D
:1025C4009A687B681B691A437B685B691A437B685A
:1025D400DB691343FB617B681A687B681B681968B5
:1025E400AE4B0B40F9690B4313607B681B687A6838
:1025F4001268526822F440517A68D2680A435A60D9
:102604007B689B69FB617B681B68A54A934204D085
:102614007B681B6AFA691343FB617B681B687A68F1
:102624001268926822F43061FA690A439A607B68FE
:102634001B689C4A934221D19B4BD3F8883003F00A
:102644000303032B16D801A252F823F061260008D5
:102654006D26000867260008732600080123FB7610
:10266400BEE00223FB76BBE00423FB76B8E008233C
:10267400FB76B5E01023FB7600BFB1E07B681B68F6
:102684008A4A934234D1884BD3F8883003F00C0340
:102694000C2B29D801A252F823F000BFD52600083C
:1026A400ED260008ED260008ED260008E1260008C6
:1026B400ED260008ED260008ED260008DB260008BC
:1026C400ED260008ED260008ED260008E7260008A0
:1026D4000023FB7684E00223FB7681E00423FB766F
:1026E4007EE00823FB767BE01023FB7600BF77E0D7
:1026F4007B681B686E4A934220D16B4BD3F88830B9
:1027040003F03003102B0FD0102B02D8002B05D070
:1027140010E0202B05D0302B09D00BE00023FB76F2
:102724005EE00223FB765BE00423FB7658E008239B
:10273400FB7655E01023FB7600BF51E07B681B68F5
:102744005C4A934220D1584BD3F8883003F0C0033D
:10275400402B0FD0402B02D8002B05D010E0802B4B
:1027640005D0C02B09D00BE00023FB7638E0022310
:10277400FB7635E00423FB7632E00823FB762FE07A
:102784001023FB7600BF2BE07B681B68444A93420E
:1027940024D1454BD3F8883003F44063B3F5806FFC
:1027A40012D0B3F5806F02D8002B07D012E0B3F536
:1027B400006F06D0B3F5406F09D00BE00023FB7621
:1027C4000EE00223FB760BE00423FB7608E00823EB
:1027D400FB7605E01023FB7600BF01E01023FB76B7
:1027E4007B681B682E4A934240F0E980FB7E082BED
:1027F40023D801A252F823F0212800083F2800081A
:10280400292800083F2800082F2800083F2800082E
:102814003F2800083F28000837280008FEF77CFFFF
:10282400F8600DE0244BFB600AE0FEF7DFFEF86081
:1028340006E04FF40043FB6002E00123FB7400BF99
:10284400FB68002B00F0AD817B685A6813465B007F
:102854001A44FB689A4205D87B685B681A03FB68D4
:102864009A4202D20123FB749BE1FB7E082B00F207
:10287400938001A252F823F0C12800089D29000882
:10288400012900089D290008352900089D29000810
:102894009D2900089D29000873290008F369FFEFAA
:1028A4000080004000380140001002400044004015
:1028B40000480040004C00400024F400FEF72CFFC8
:1028C40003464FF000044FEA042949EA13694FEA2A
:1028D40003287B685B685B084FF0000418EB030077
:1028E40049EB04017B685B684FF000041A462346F9
:1028F400FDF776FC03460C467B6150E07B685B6821
:102904005B084FF00004AD494FF0000213EB0108DF
:1029140044EB0209404649467B685B684FF000047B
:102924001A462346FDF75CFC03460C467B6136E001
:10293400FEF75CFE03461A464FF000031D0245EA0B
:10294400126514027B685B685B081A464FF000034B
:10295400A01845EB03017B685B684FF000041A463E
:102964002346FDF73DFC03460C467B6117E07B687C
:102974005B685B084FF0000413F5000044F10001AC
:102984007B685B684FF000041A462346FDF728FC79
:1029940003460C467B6102E00123FB7400BF7B69A4
:1029A400B3F5407F08D37B69B3F5801F04D27B68FD
:1029B4001B687A69DA60F4E00123FB74F1E07B6858
:1029C400DB69B3F5004F7ED1FB7E082B5BD801A2F7
:1029D40052F823F0FD2900081B2A0008392A0008B0
:1029E4008B2A0008552A00088B2A00088B2A000825
:1029F4008B2A0008732A0008FEF78EFE03465A004D
:102A04007B685B685B081A447B685B68B2FBF3F322
:102A14009BB27B613AE0FEF795FE03465A007B6861
:102A24005B685B081A447B685B68B2FBF3F39BB298
:102A34007B612BE07B685B685B0803F1F47303F54F
:102A440090437A685268B3FBF2F39BB27B611DE05A
:102A5400FEF7CCFD03465A007B685B685B081A44AA
:102A64007B685B68B2FBF3F39BB27B610EE07B682F
:102A74005B685B0803F580327B685B68B2FBF3F349
:102A84009BB27B6102E00123FB7400BF7B690F2BC7
:102A940016D97B69B3F5803F12D27B699BB223F0D0
:102AA4000F037B817B695B089BB203F007039AB237
:102AB4007B8913437B817B681B687A89DA6070E0C9
:102AC4000123FB746DE0FB7E082B59D801A252F858
:102AD40023F000BFFD2A0008192B0008352B00083D
:102AE400852B0008512B0008852B0008852B000836
:102AF400852B00086D2B0008FEF70EFE02467B684E
:102B04005B685B081A447B685B68B2FBF3F39BB2B7
:102B14007B6138E0FEF716FE02467B685B685B0863
:102B24001A447B685B68B2FBF3F39BB27B612AE0D7
:102B34007B685B685B0803F5740303F510537A68DC
:102B44005268B3FBF2F39BB27B611CE0FEF74EFDCF
:102B540002467B685B685B081A447B685B68B2FB6F
:102B6400F3F39BB27B610EE07B685B685B0803F563
:102B740000427B685B68B2FBF3F39BB27B6102E0CB
:102B84000123FB7400BF7B690F2B08D97B69B3F564
:102B9400803F04D27B681B687A69DA6001E0012314
:102BA400FB747B6800221A667B6800225A66FB7CF1
:102BB40018462037BD46BDE8B08300BF000024F4AA
:102BC40080B483B000AF78607B685B6A03F0010374
:102BD400002B0AD07B681B687A681268526822F45A
:102BE40000317A68926A0A435A607B685B6A03F030
:102BF4000203002B0AD07B681B687A68126852684B
:102C040022F480317A68D26A0A435A607B685B6A2C
:102C140003F00403002B0AD07B681B687A681268EF
:102C2400526822F480217A68126B0A435A607B68E6
:102C34005B6A03F00803002B0AD07B681B687A6880
:102C44001268526822F400417A68526B0A435A604F
:102C54007B685B6A03F01003002B0AD07B681B6857
:102C64007A681268926822F480517A68926B0A43F7
:102C74009A607B685B6A03F02003002B0AD07B68B0
:102C84001B687A681268926822F400517A68D26BE1
:102C94000A439A607B685B6A03F04003002B1AD0F6
:102CA4007B681B687A681268526822F480117A681B
:102CB400126C0A435A607B681B6CB3F5801F0AD1FF
:102CC4007B681B687A681268526822F4C0017A68CB
:102CD400526C0A435A607B685B6A03F08003002BE2
:102CE4000AD07B681B687A681268526822F4002153
:102CF4007A68926C0A435A6000BF0C37BD465DF88F
:102D0400047B704780B586B002AF78607B68002290
:102D1400DA67FDF759FCF8607B681B681B6803F0F1
:102D24000803082B0ED16FF07E430093FB6800224A
:102D34004FF40011786800F02AF80346002B01D004
:102D4400032320E07B681B681B6803F00403042B47
:102D54000ED16FF07E430093FB6800224FF4800194
:102D6400786800F014F80346002B01D003230AE02E
:102D74007B6820225A677B6820229A677B6800223E
:102D840083F87020002318461037BD4680BD80B5F7
:102D940084B000AFF860B9603B601346FB712AE071
:102DA400BB69B3F1FF3F26D0FDF70EFC02463B683A
:102DB400D21ABB699A4202D8BB69002B1BD1FB68AB
:102DC4001B68FA681268126822F4D0721A60FB68F1
:102DD4001B68FA681268926822F001029A60FB6824
:102DE40020225A67FB6820229A67FB68002283F836
:102DF400702003230FE0FB681B68DA69BB681A4084
:102E0400BB689A420CBF01230023DBB21A46FB794C
:102E14009A42C5D0002318461037BD4680BD000035
:102E240090B583B000AF00237B60A4E0564A7B6872
:102E340013441B78002B0AD0534A7B6813441B7835
:102E4400013BD9B2504A7B6813440A461A704F4B6F
:102E54001B78DBB2002B00F084804D4A7B6832F88B
:102E64001330013399B24A4A7B6822F81310494A55
:102E74007B6813441B78002B05D0454A7B6832F8E5
:102E84001330C82B6DD9424A7B6832F81330052BB6
:102E940020D93F4A7B6832F813304F2B1AD83A4A6C
:102EA4007B6813441B78002B14D13B4A3B4B1446DC
:102EB40007CB20606160A2601B88A3813648FDF7C0
:102EC40087F903469AB24FF0FF3333493448FFF78A
:102ED400D7FA41E02E4A7B6832F81330502B1CD9C4
:102EE4002B4A7B6832F81330C72B16D82A4A2D4B4D
:102EF400144607CB20606160A2601A889B78A28187
:102F0400A3732548FDF764F903469AB24FF0FF33E3
:102F140021492348FFF7B4FA1EE01D4A7B6832F8C2
:102F24001330C82B18D9184A7B68134446221A70E8
:102F3400194A1D4B144607CB20606160A2601B78C0
:102F440023731548FDF744F903469AB24FF0FF3353
:102F540011491348FFF794FA0D4A7B68002122F8BF
:102F640013100C4B1978094A7B6813440A461A70EB
:102F74007B6801337B607B68012B7FF757AF00BF11
:102F84000C37BD4690BD00BF2C0000200800002077
:102F940030000020340000204000002048360008A3
:102FA400B8000020583600086836000880B582B0A2
:102FB40000AFFDF79DFA00F035F800F005F900F0D8
:102FC4009DF800F0D1F81348FEF7B8FF124B1B78B8
:102FD400002BFBD0104B1B78013BDAB20E4B1A705E
:102FE4000E4B7B6010E00E4B1B687A681288B3FBB3
:102FF400F2F102FB01F29B1A002B02D17B685B68A1
:1030040098477B6808337B607B681B88002BEAD178
:10301400DCE700BF780000203C0000207836000880
:103024007400002080B5B0B000AF07F17C034422E7
:103034000021184600F0F2FA07F1680300221A6032
:103044005A609A60DA601A613B4668220021184689
:1030540000F0E4FA0123FB674FF4A023C7F88030A3
:103064000223C7F8A4300323C7F8A8300123C7F804
:10307400AC301923C7F8B0300723C7F8B4300223A3
:10308400C7F8B8300423C7F8BC3007F17C031846EE
:10309400FDF7DCFD0346002B01D000F065F90F239A
:1030A400BB660323FB6600233B6700237B67002387
:1030B400BB6707F1680303211846FEF7B5F9034619
:1030C400002B01D000F050F902233B6000237B6207
:1030D4003B461846FEF7ACFB0346002B01D000F03C
:1030E40043F94FF40070FDF75BFD0346002B01D05C
:1030F40000F03AF900BFC037BD4680BD80B584B04A
:1031040000AF3B1D00221A605A609A60144B154AA6
:103114001A60134B31225A60114B00229A60104BF3
:1031240040F2E732DA600E4B00229A610C48FEF757
:10313400D9FE0346002B01D000F016F900237B6072
:103144000023FB603B1D19460548FFF7D7F80346EB
:10315400002B01D000F008F900BF1037BD4680BD38
:10316400780000200010004080B500AF144B154AD1
:103174001A60134B4FF4E1325A60114B00229A60EB
:103184000F4B0022DA600E4B00221A610C4B0C220A
:103194005A610B4B00229A61094B0022DA61084BF9
:1031A40000221A62064B00225A620548FFF71AF9F8
:1031B4000346002B01D000F0D7F800BF80BD00BF4C
:1031C400B80000200044004080B58AB000AF07F189
:1031D400140300221A605A609A60DA601A612F4A56
:1031E4002E4BDB6C43F00403D3642C4BDB6C03F0F9
:1031F40004033B613B69294A284BDB6C43F08003A1
:10320400D364264BDB6C03F08003FB60FB68234A2A
:10321400224BDB6C43F00103D364204BDB6C03F0E3
:103224000103BB60BB681D4A1C4BDB6C43F002030B
:10323400D3641A4BDB6C03F002037B607B680022CF
:1032440020214FF09040FDF76DFC4FF400537B615B
:10325400134BBB610023FB6107F1140319461148AA
:10326400FDF7CEFA20237B610123BB610023FB61C0
:1032740000233B6207F1140319464FF09040FDF719
:10328400BFFA002200212820FDF783FA2820FDF749
:103294009CFA00BF2837BD4680BD00BF0010024025
:1032A400000021100008004880B582B000AF7860AB
:1032B4004FF400510748FDF71DFC0346002B0CBFDB
:1032C40001230023DBB21A46034B1A7000BF0837F0
:1032D400BD4680BD000800483400002080B483B09F
:1032E40000AF0346FB80FB88B3F5005F02D1044BBB
:1032F40001221A7000BF0C37BD465DF8047B70478D
:103304003400002080B500AF012220214FF090400E
:10331400FDF708FC00BF80BD80B500AF002220216E
:103324004FF09040FDF7FEFB00BF80BD80B400AFBE
:1033340000BFBD465DF8047B7047000080B400AF59
:10334400074B1B680133064A1360064B1B78013395
:10335400DAB2044B1A7000BFBD465DF8047B7047B7
:10336400740000203C00002080B400AF00BFBD46C4
:103374005DF8047B7047000080B483B000AF0F4A4F
:103384000E4B1B6E43F0010313660C4B1B6E03F0D4
:1033940001037B607B68094A084B9B6D43F08053B3
:1033A4009365064B9B6D03F080533B603B6800BF05
:1033B4000C37BD465DF8047B704700BF0010024027
:1033C40080B584B000AF78607B681B680D4A934277
:1033D40013D10D4A0C4B9B6D43F0100393650A4BBC
:1033E4009B6D03F01003FB60FB6800220021362074
:1033F400FDF7CFF93620FDF7E8F900BF1037BD46D9
:1034040080BD00BF001000400010024080B58AB0AB
:1034140000AF786007F1140300221A605A609A60C2
:10342400DA601A617B681B68174A934228D1174AED
:10343400164B9B6D43F400339365144B9B6D03F45F
:1034440000333B613B69114A104BDB6C43F00103D1
:10345400D3640E4BDB6C03F00103FB60FB680C23AD
:103464007B610223BB610023FB6103233B620723CF
:103474007B6207F1140319464FF09040FDF7C0F941
:1034840000BF2837BD4680BD004400400010024004
:1034940080B400AF00BFBD465DF8047B704780B4C4
:1034A40000AFFEE780B400AFFEE780B400AFFEE7F4
:1034B40080B400AFFEE780B400AF00BFBD465DF846
:1034C400047B704780B400AF00BFBD465DF8047B49
:1034D400704780B400AF00BFBD465DF8047B704701
:1034E40080B500AFFFF72AFFFDF75CF800BF80BD91
:1034F40080B500AF4FF40050FDF72CFB00BF80BD3A
:1035040080B500AF0248FEF743FD00BF80BD00BF99
:103514007800002080B400AF174A174BD3F88830E6
:1035240043F47003C2F88830144A144B1B6843F008
:1035340001031360114B00229A60104A0F4B1B6861
:1035440023F0A85323F4102313600C4B4FF4805240
:10355400DA600A4A094B1B6823F480231360074B83
:1035640000229A61044B4FF000629A6000BFBD468E
:103574005DF8047B704700BF00ED00E000100240DE
:10358400DFF834D0002103E00C4B5B584350043186
:103594000B480C4B42189A42F6D30B4A02E0002324
:1035A40042F8043B094B9A42F9D3FFF7B3FF00F00A
:1035B40011F8FFF7FBFCFEE700800220F836000854
:1035C400000000201000002010000020380100201E
:1035D400FEE7000070B50D4E0D4CA41BA410002591
:1035E400A54209D10B4E0C4C00F020F8A41BA410EA
:1035F4000025A54205D170BD56F825309847013500
:10360400EEE756F8253098470135F2E7F036000822
:10361400F0360008F0360008F43600080244034689
:10362400934200D1704703F8011BF9E7F8B500BFD6
:10363400F8BC08BC9E467047F8B500BFF8BC08BC8F
:043644009E467047E7
:1036480053686F7274207072657373200A000000EB
:103658004D656469756D207072657373200A00008A
:103668004C6F6E67207072657373200A000000004B
:10367800A000000009330008FA0000001D3300080C
:10368800E8030000313300080A000000252E000876
:103698000000000000000000000000000000000022
:1036A80001020304060708090000000001020304E0
:1036B800A0860100400D0300801A060000350C00AA
:1036C80040420F0080841E0000093D0000127A006D
:1036D8000024F40000366E010048E801006CDC02AA
:0836E8002CCBFF7F0100000064
:0436F000B901000814
:0436F4009501000834
:1036F80010000000010000000101000000093D0069
:040000050800358535
:00000001FF
