:020000040800F2
:1000000000C0002039190008D9180008DB180008C2
:10001000DD180008DF180008E118000800000000E3
:10002000000000000000000000000000E3180008CD
:10003000E518000800000000E7180008E9180008AB
:100040008119000881190008811900088119000828
:100050008119000881190008811900088119000818
:100060008119000881190008811900088119000808
:1000700081190008811900088119000881190008F8
:1000800081190008811900088119000881190008E8
:1000900081190008811900088119000881190008D8
:1000A00081190008811900088119000881190008C8
:1000B00081190008811900088119000881190008B8
:1000C00081190008811900088119000881190008A8
:1000D0008119000881190008811900088119000898
:1000E0008119000881190008811900088119000888
:1000F0008119000881190008811900088119000878
:100100008119000881190008811900088119000867
:100110008119000881190008811900088119000857
:100120008119000881190008811900088119000847
:1001300000000000000000000000000000000000BF
:1001400000000000000000000000000000000000AF
:10015000000000000000000000000000000000009F
:10016000000000000000000000000000000000008F
:10017000000000000000000000000000000000007F
:10018000000000000000000000000000000000006F
:10019000000000000000000000000000000000005F
:1001A000000000000000000000000000000000004F
:1001B000000000000000000000000000000000003F
:1001C000000000000000000000000000000000002F
:1001D000000000000000000000000000000000001F
:0401E0005FF8E0F1F3
:1001E40010B5054C237833B9044B13B10448AFF36D
:1001F40000800123237010BD0C00002000000000CB
:10020400DC19000808B5034B1BB103490348AFF3DD
:10021400008008BD0000000010000020DC19000868
:1002240038B50E4B054618784FF47A73B3FBF0F3E8
:100234000B4A1068B0FBF3F000F0C2F9044658B959
:100244000F2D09D8024629464FF0FF3000F084F9FB
:10025400044B20461D6038BD012038BD000000203D
:100264000800002004000020074A08B51368032092
:1002740043F01003136000F05DF90020FFF7D0FF96
:1002840001F062F9002008BD00200240034A044B3B
:1002940011681B780B441360704700BF28000020CE
:1002A40000000020014B1868704700BF28000020A0
:1002B40038B50446FFF7F6FF0546631C1EBF044B22
:1002C4001B78E418FFF7EEFF401B8442FAD838BDD0
:1002D40000000020002373B5019390F82430012B13
:1002E40074D001234D6880F82430062D02684FEA4B
:1002F40085030C6825D82B441F25566B053B9D4070
:1003040026EA050504FA03F32B435363092C4FEA49
:1003140044038D682FD907262344D1681E3B9E4091
:1003240021EA060105FA03F30B43D360A4F1100399
:10033400012B2BD90023002280F82420184602B078
:1003440070BD0C2D0BD82B441F25166B233B9D40F1
:1003540026EA050504FA03F32B431363D6E72B447B
:100364001F25D66A413B9D4026EA050504FA03F39E
:100374002B43D362CAE70726116923449E4021EA2E
:10038400060105FA03F30B431361CFE7104B9A42BE
:1003940016D193681B02CDD49368102C43F4000348
:1003A4009360C7D10B4B0C4A1B68B3FBF2F20A23D0
:1003B40053430193019B002BBCD0019B013BF8E705
:1003C400836A43F0200383620123B4E70223B5E781
:1003D400002401400800002040420F0038B50368A3
:1003E40004469A68D20701D4002038BD9A6822F0E6
:1003F40001029A60FFF756FF054623689B68DB07F6
:10040400F2D5FFF74FFF401B0228F6D9A36A01205B
:1004140043F01003A362E36A43F00103E36238BDCF
:10042400F8B50446002877D0836A23B9C36280F8FC
:10043400243001F0ABF82046FFF7D0FFA36A13F095
:1004440010036BD1002869D1A26A374922F488527B
:1004540022F0020242F00202A26294E824008A42DC
:10046400E16904D1B1F5402F08BF4FF40021267B88
:1004740045EA46052943A568B5F5807F35D0012DA9
:1004840008BF4FF48073277D012F06D17EBBA66978
:10049400013E43EA463343F400635668B5F5807F72
:1004A40026F4694643EA0603536096681F4B03EA41
:1004B400060343EA0103936001D0012D20D123698F
:1004C400013B1B05D56A25F470052B43D362926862
:1004D400174B1340994215D10023E362A36A23F01A
:1004E400030343F00103A362F8BD2B46CBE7A66ADE
:1004F40046F02006A662E66A46F00106E662CCE70C
:100504000023DFE7A36A23F0120343F01003A3627E
:10051400E36A43F00103E3620120F8BDA36A43F0F8
:100524001003A362F8E700BF003C0140FDF7E1FFC0
:10053400FE0E1FFF074A0002D36800F4E06023F4B4
:10054400E0631B041B0C43F0BF6343F40033034319
:10055400D360704700ED00E0174B30B5DC68C4F39E
:100564000224C4F10703251D042B28BF0423062DF0
:100574004FF0010598BF002405FA03F303F1FF339C
:1005840088BF033C1940A14005FA04F4013C224011
:10059400002842EA01024FEA0212A9BF00F16040BA
:1005A400064BD2B200F56140BBBF00F00F00D2B2DF
:1005B40080F800231A5430BD00ED00E014ED00E093
:1005C4000138B0F1807F0AD2F021064B064A586008
:1005D40082F823100020072298601A6070470120D7
:1005E400704700BF10E000E000ED00E02DE9F74F98
:1005F400002426466C4F6D4BDFF8B8E1DFF8B8C134
:100604000A6832FA06F502D103B0BDE8F08F4FF064
:10061400010808FA06F802EA0802904540F08480CE
:100624004D68122D00F0B18000F28780022D00F099
:10063400A9807BD8002D00F08C80012D00F0A080D3
:100644004FF00F09FF2A93BF824606F18045083D0B
:10065400D0F800B092BFB500D0F804B0AD0009FAEC
:1006640005F82BEA080804FA05F588BF00F1040A26
:1006740048EA0505CAF80050D1F804A01AF0805FD2
:1006840052D0BD6926F0030845F00105BD61BD697E
:1006940008F1804805F00105019508F5803806F059
:1006A400030B019D4FEA8B0BD8F8085009FA0BF99C
:1006B40025EA09093E4DA8426CD005F58065A8429B
:1006C4006AD005F58065A84268D005F58065A84222
:1006D40066D005F58065A84264D070450CBF052539
:1006E400062505FA0BF545EA0905C8F808501D6802
:1006F4001AF4803F14BF154395431D605D681AF4D6
:10070400003F14BF154395435D609D681AF4801F34
:1007140014BF154395439D60DD681AF4001F14BF90
:100724002A4325EA0202DA60013669E7032D25D05F
:10073400112D85D1CC68043482E7654509D012D8DF
:10074400DFF878904D4504D009F580394D457FF4A4
:1007540077AF8C68E4B1012C0CBFC0F81080C0F8EE
:10076400148008246CE7DFF858904D45F1D009F562
:1007740080394D45EDD0A9F58019E7E700245FE7FE
:10078400CC685DE7CC6808345AE7CC680C3457E78A
:10079400042455E70025A4E70125A2E70225A0E7E4
:1007A40003259EE704259CE7001002400004014055
:1007B40000080140001C014000002110000011103D
:1007C400000031100AB1016170470904FBE7C368F6
:1007D4000B4214BF416101617047000070B50446CB
:1007E40008B9012070BD90F83D3003F0FF021BB939
:1007F40080F83C2000F01EFF2423226884F83D305A
:10080400136823F00103136000F004FB6568414B97
:100814009D424DD8404B9842E3D940492268B0FBF1
:10082400F1F1536823F03F030B435360136A23F041
:100834003F03013119431162D169364B21F44F4111
:100844009D4221F0FF0100F1FF3048D86D00B0FB5C
:10085400F5F00130C0F30B03042B38BF04230B4322
:10086400D3611168206AE36921F0C00103430B439B
:1008740013609168E068236921F40341034321F084
:10088400FF010B439360D168A069636921F0FF0104
:1008940003430B43D3601368002043F00103136048
:1008A4002023206484F83D30206384F83E0070BD2A
:1008B4001B4B984295D9194E4FF49671B0FBF6F63E
:1008C40022687143536823F03F0333434FF47A762D
:1008D4005360136AB1FBF6F123F03F03A9E7A36861
:1008E40053B905EB4503B0FBF3F0431CC3F30B030F
:1008F4006BB143F40043B2E719236B43B0FBF3F04D
:10090400431CC3F30B0313B143F44043A7E7012390
:10091400A5E700BFA08601007F841E0040420F00AF
:10092400FF083D002DE9F341054608B901203CE0EC
:100934000368DB0710D42B689F075DD42B68190765
:1009440000F194802B685A0700F1BE80E869002802
:1009540040F02C81002028E08F4C636803F00C03E6
:10096400042B07D0636803F00C03082B09D16368D8
:10097400DE0306D523689C03DDD56B68002BDAD132
:10098400D4E76B68B3F5803F12D1236843F4803316
:100994002360FFF787FC064623689803CBD4FFF750
:1009A40081FC801B6428F7D9032002B0BDE8F081E4
:1009B4009BB9236823F480332360236823F48023C2
:1009C4002360FFF76FFC064623689903B3D5FFF74E
:1009D40069FC801B6428F7D9E6E7B3F5A02F2368E8
:1009E40003D143F480232360CFE723F480332360CF
:1009F400236823F48023CBE7674C636813F00C0F60
:100A040007D0636803F00C03082B10D16368DA0382
:100A14000DD423689B0702D52B69012B86D123684B
:100A24006A6923F0F80343EAC203236086E72A696C
:100A34005A4B6AB101221A60FFF734FC0646236858
:100A44009F07ECD4FFF72EFC801B0228F7D9ABE7F5
:100A54001A60FFF727FC0646236898077FF56EAFF8
:100A6400FFF720FC801B0228F6D99DE7AA694A4CAF
:100A74004B4BDAB101221A60FFF714FC0646636A95
:100A84009B070DD54FF4FA52464B1B68B3FBF2F3A8
:100A9400019300BF019B5A1E0192002BF9D151E72B
:100AA400FFF700FC801B0228E9D97DE71A60FFF7F5
:100AB400F9FB0646636A9F077FF544AFFFF7F2FB35
:100AC400801B0228F6D96FE7334CE369D80024D49D
:100AD4000127E36943F08053E361E36903F0805342
:100AE4000093009B304E3368D90518D5EB68012B71
:100AF40026D1236A43F001032362FFF7D3FB41F2BB
:100B040088368046236A9B073FD5002F3FF41EAFEB
:100B1400E36923F08053E36118E70027E2E73368D1
:100B240043F480733360FFF7BDFB80463368DA0516
:100B3400DCD4FFF7B7FBA0EB08006428F6D933E751
:100B4400ABB9236A41F2883823F001032362236A94
:100B540023F004032362FFF7A5FB0646236A9807E4
:100B6400D3D5FFF79FFB801B4045F7D91CE7052B26
:100B7400236A03D143F004032362BAE723F0010399
:100B84002362236A23F00403B6E7FFF78BFBA0EB91
:100B94000800B042B6D907E7001002400000424204
:100BA4008004424208000020007000402A4B5A682A
:100BB4001C4602F00C02082A3DD00023274E0228CE
:100BC40033602BD1FFF76EFB0746236899011FD4CE
:100BD4002B6AB3F5803F05D16268A96822F400321C
:100BE4000A436260696A62680B4322F47412134315
:100BF400636001233360FFF755FB054623689A01C0
:100C04003FF5A8AEFFF74EFB401B0228F6D9CBE612
:100C1400FFF748FBC01B0228D7D9C5E6FFF742FB04
:100C2400054623689B017FF595AEFFF73BFB401B10
:100C34000228F6D9B8E601283FF4B7AE58682B6A03
:100C440000F480329A427FF471AE6B6A00F4701043
:100C5400C01A18BF0120A8E60010024060004242FA
:100C640030B5194B87B002AC03F110052246186861
:100C74005968083303C2AB421446F7D101238DF8F7
:100C84000430022311498DF805304B6803F00C023F
:100C9400082A17D1C3F3834206A80244DB0312F8DF
:100CA400102C0CD54B680A48C3F34043504306AAA2
:100CB400134413F8143CB0FBF3F007B030BD0548FF
:100CC4005043FAE70248F8E7F4190008001002401C
:100CD40000127A0000093D002DE9F0410D4604465A
:100CE40010B90120BDE8F081454A136803F00703F9
:100CF4008B4229D321688E0731D4CA0744D4404A91
:100D0400136803F007039D4267D322683D4D12F038
:100D1400040F6ED1130706D56B68226923F4605360
:100D240043EAC2036B60FFF79BFF6B68364AC3F369
:100D34000313D35CD840354B1860354B1868FFF764
:100D44006FFA0020BDE8F081136823F007030B431A
:100D54001360136803F007039942C2D1CAE7294B11
:100D640011F0040F1EBF5A6842F4E0625A6008078B
:100D740042BF5A6842F460525A605A68A06822F02E
:100D8400F00202435A60B8E762681E4E012A3368D3
:100D94001BD113F4003FA4D0736841F2883823F0C8
:100DA400030313437360FFF77DFA074673686268B1
:100DB40003F00C03B3EB820FA1D0FFF773FAC01B4F
:100DC4004045F3D90320BDE8F081022A02D113F093
:100DD400007FE0E713F0020FDDE7136823F0070359
:100DE4002B431360136803F007039D427FF479AF2C
:100DF4008BE76B68E16823F4E0630B436B6089E77E
:100E04000020024000100240041A000808000020DC
:100E140004000020044B054A5B68C3F30223D35C3F
:100E2400034A1068D840704700100240141A0008A2
:100E340008000020044B054A5B68C3F3C223D35C5B
:100E4400034A1068D840704700100240141A000882
:100E54000800002003682DE9F341D907054620D591
:100E6400354CE369DA0032D40127E36943F0805357
:100E7400E361E36903F080530193019B2F4E3368D0
:100E8400DB0526D5236A13F4407336D1236A6A68D6
:100E940023F44073134323621FB1E36923F08053A7
:100EA400E3612868830706D5234AA968536823F4B5
:100EB40040430B43536010F010001BD01E4A696975
:100EC4005368002023F480030B43536012E000278F
:100ED400D4E7336843F480733360FFF7E3F9804663
:100EE4003368D805CED4FFF7DDF9A0EB08006428F9
:100EF400F6D9032002B0BDE8F0816A6802F44072BA
:100F04009342C3D001200E4A236A1060002023F4C8
:100F1400407110602162D907B8D5FFF7C3F941F2D7
:100F240088380646236A9A07B0D4FFF7BBF9801BBA
:100F34004045F7D9DDE700BF0010024000700040D3
:100F44004004424210B50446002834D00023836292
:100F540090F8513003F0FF021BB980F8502000F0E4
:100F6400BFFB0223226884F851301368A06823F081
:100F7400400313606368A1690343E0680343206985
:100F8400034360690343E0690343206A0343A06A9F
:100F9400034301F40070090C034301F004011360DE
:100FA4005160D369002023F40063D3610123606599
:100FB40084F8513010BD012010BD0000244A03689C
:100FC400904212D002F5006290420ED0B0F1804FF0
:100FD4000BD0A2F59832904207D002F5806290427D
:100FE40003D002F5806290421DD14A6823F0700359
:100FF4001343174A904212D002F5006290420ED079
:10100400B0F1804F0BD0A2F59832904207D002F590
:101014008062904203D002F58062904203D1CA6894
:1010240023F4407313434A6923F08003134303609A
:101034008B68C3620B688362054B984203D003F547
:101044000063984201D10B69036301234361704734
:10105400002C014010B50446A0B190F83D3003F0D7
:10106400FF021BB980F83C2000F0AAFB0223206891
:1010740084F83D30211DFFF7A1FF0123002084F8EF
:101084003D3010BD012010BDF8B50C4605460028C2
:1010940043D090F83D3003F0FF021BB980F83C20A8
:1010A40000F060FB2946022351F8040B85F83D301B
:1010B400836823F4804323F007038360FFF77EFFF4
:1010C4002868236886688269A1681E43A36922F49C
:1010D400407222F0030241EA0323134323F47C42C7
:1010E4002369E1691B0143EA0123E168076A0B43B1
:1010F400216A22F0FC0243EA01331343616927F0B9
:101104002202676886608361012347EA0117174357
:10111400076285F83D300020F8BD0120F8BD90F845
:101124003C3030B5012B4FF0020314D0046880F832
:101134003D306268A3680D68496822F0700223F0AC
:1011440080030B432A436260A360012380F83D308F
:10115400002380F83C30184630BD000038B5054601
:101164000368C1681A69192422F440520A431A61B7
:1011740082680069D9680243686921F4B05121F09A
:101184000C0102430A43DA605A69A96922F44072E5
:101194000A435A610D4A934214D1FFF74BFE604350
:1011A4006C686422A400B0FBF4F0B0FBF2F402FB20
:1011B40014031B013233B3FBF2F3296803EB04136A
:1011C4008B6038BDFFF726FEE9E700BF0038014019
:1011D40010B5044640B390F8393003F0FF021BB950
:1011E40080F8382000F000FB2423226884F839308A
:1011F400D368204623F40053D360FFF7AFFF23687E
:1012040000201A6922F490421A615A6922F02A02D3
:101214005A61DA6842F40052DA602023E06384F809
:10122400393084F83A3010BD012010BD10B596B0A5
:10123400282200210CA800F0C7FB1422002101A8D9
:1012440000F0C2FB182200210DEB020000F0BCFBF1
:101254004FF48033022401220D9314934FF4E013CE
:101264000CA80C92109215931394FFF75BFB0F23B9
:101274004FF4806201930023214601A80393049252
:1012840005930294FFF728FD4FF4004306A8069443
:101294000893FFF7DFFD16B010BD000010B50E4C2B
:1012A4004FF4FA70FFF704F880212046FFF78FFA15
:1012B4004FF4FA70FEF7FCFF4FF480712046FFF7FD
:1012C40086FA4FF4FA70FEF7F3FF2046BDE81040AB
:1012D4004FF40071FFF77BBA0010014080B590B065
:1012E400FEF7C2FFFFF7A2FF1022002107A800F0BB
:1012F4006BFB804B12219A697F4842F020029A616D
:101304009A69002402F020020192019A9A69012646
:1013140042F010029A619A69022502F010020292C8
:10132400029A9A69754F42F004029A619A6902F02E
:1013340004020392039A9A6942F008029A619B6933
:10134400002203F008030493049BFFF73BFA0022F6
:101354004FF403416A48FFF735FA00224FF46071F5
:101364006848FFF72FFA122307A9634807930896E2
:101374000A950994FFF73AF9062307A960480793E9
:1013840008940994FFF732F94FF4034307A95C4822
:10139400079308960A950994FFF728F9402307A9AB
:1013A4005848079308940994FFF720F94FF46073A1
:1013B40007A95448079308960A950994524DFFF7D4
:1013C40015F9524B28462B604FF460232E61EB61D4
:1013D400AC602C732C756C60079408940994FFF727
:1013E4001FF8052328464FF4804507A9079308965C
:1013F4000994FEF76FFF4648464B056180E8880074
:101404008460C46044618461C4610462FFF7E6F9E6
:101414004148424B056180E888008460C4604461AF
:101424008461C4610462FFF7D9F94FF482733C48C4
:101434003C4A846080E80C004FF4007383611823F5
:10144400C361802303620A23C460C36204614461EC
:1014540044628462FFF776FD2422214607A800F047
:10146400B3FA314D314B07A985E8180060232846AB
:10147400AB60EC602C616C61AC61079609960D96CB
:1014840005940694FFF700FE05A92846284D059407
:101494000694FFF744FE274B284685E81800AC6005
:1014A400EC60AC614FF4E13607940894FFF7D2FD89
:1014B40028460C2507A907940894FFF730FE1E4818
:1014C4001E4B846080E84800C46004614561846107
:1014D400C461FFF77DFE1A481A4B846080E8480017
:1014E400C460046145618461C461FFF771FEFFF764
:1014F400D5FEFCE70010024000080140A086010070
:10150400000C01400010014014010020002401409F
:101514006C00002000540040C0000020005800402F
:10152400C40100200030014084010020002C01404F
:1015340044010020001000401C0200200044004030
:101544002C000020004800400E4B82B09A6942F003
:1015540001029A619A6902F001020092009ADA6922
:1015640042F08052DA61DB69074A03F08053019349
:10157400019B536823F0E06343F00073536002B0AF
:10158400704700BF0010024000000140102210B557
:10159400044688B00DEB0200002100F015FA226821
:1015A400204B9A423BD103F56C439A69032442F4DD
:1015B40000729A619A6904A902F400720092009A76
:1015C4009A69194842F010029A619A6902F010026D
:1015D4000192019A9A6942F004029A619A6902F0AE
:1015E40004020292029A9A6942F008029A619B6983
:1015F400059403F008030393039B3F230493FEF72E
:10160400F5FFE12304A9094804930594FEF7EEFFCE
:10161400012304A9064804930594FEF7E7FF08B0E4
:1016240010BD00BF0024014000100140000801402B
:10163400000C0140102210B5044688B00DEB0200E6
:10164400002100F0C1F92368214A93421ED1214CA4
:1016540004A9A369204843F00803A361A36903F024
:1016640008030093009BC0230493122305930323D0
:101674000793FEF7BBFFE36943F40013E361E369F7
:1016840003F400130193019B08B010BD134A934265
:10169400FAD1104C04A9A3690F4843F00803A361CD
:1016A400A36903F008030293029B4FF4406304937D
:1016B4001223059303230793FEF798FFE36943F48A
:1016C4008003E361E36903F480030393039BDBE793
:1016D4000054004000100240000C0140005800403B
:1016E40030B51024054687B02246002102A800F038
:1016F4006BF92A68184B9A422CD103F560439A6916
:1017040002A942F480529A619A69144802F4805200
:101714000092009A9A6942F008029A619B6903F068
:1017240008030193019B28230293022303930323B9
:101734000593FEF75BFF002302A908480393049373
:101744000294FEF753FF064A536843F0E06343F004
:101754000103536007B030BD00300140000C01406C
:101764000000014010B5044686B01022002102A8F2
:1017740000F02AF92268104B9A421AD103F5644307
:101784009A6902A942F400629A619A690B4802F4C8
:1017940000620092009A9A6942F004029A619B697D
:1017A40003F004030193019B4FF440730293FEF78B
:1017B4001DFF06B010BD00BF002C01400008014011
:1017C4000268084B82B09A420AD103F50033DA6901
:1017D40042F01002DA61DB6903F010030193019B0C
:1017E40002B0704700100040102210B5044688B0C3
:1017F4000DEB0200002100F0E7F823682F4A934222
:1018040027D12F4B04A9DA692E4842F40032DA6159
:10181400DA6902F400320092009A9A6942F00402F2
:101824009A619B6903F004030193019B04230493CD
:101834000223059303230793FEF7D8FE082304939A
:10184400002304A91F4805930693FEF7CFFE08B0B2
:1018540010BD1D4A9342FAD1194B04A9DA691B48F9
:1018640042F48022DA61DA6902F480220292029A56
:101874009A6942F010029A619B6903F01003039382
:10188400039B4FF48063049302230593032307937C
:10189400FEF7ACFE4FF400630493002304A90B4845
:1018A40005930693FEF7A2FE094A536823F030031A
:1018B40043F0E06343F010035360C8E70044004082
:1018C40000100240000801400048004000100140A0
:1018D400000001407047FEE7FEE7FEE7FEE77047C1
:1018E40070477047FEF7D2BC0F4B1A6842F00102F2
:1018F4001A6059680D4A0A405A601A6822F08472C4
:1019040022F480321A601A6822F480221A605A681B
:1019140022F4FE025A604FF41F029A604FF00062F4
:10192400034B9A60704700BF001002400000FFF8AC
:1019340000ED00E0002103E00B4B5B584350043101
:101944000A480B4B42189A42F6D30A4A02E0002393
:1019540042F8043B084B9A42F9D3FFF7C5FF00F065
:101964000FF8FFF7BBFC7047241A000800000020A2
:101974000C0000200C0000205C020020FEE70000A8
:1019840070B500250C4E0D4CA41BA410A54209D122
:1019940000F022F800250A4E0A4CA41BA410A5420C
:1019A40005D170BD56F8253098470135EEE756F855
:1019B400253098470135F2E71C1A00081C1A000864
:1019C4001C1A0008201A000803460244934200D15E
:1019D400704703F8011BF9E7F8B500BFF8BC08BC71
:1019E4009E467047F8B500BFF8BC08BC9E467047D9
:1019F40002030405060708090A0B0C0D0E0F10104C
:101A040000000000000000000102030406070809AA
:081A14000000000001020304C0
:041A1C0009020008B3
:041A2000E5010008D4
:0C1A240001000000100000000024F4008D
:04000005080019399D
:00000001FF
