:020000040800F2
:1000000000C00020B9580008D1570008D357000895
:10001000D5570008D7570008D9570008000000003E
:10002000000000000000000000000000DB57000896
:10003000DD57000800000000DF570008E157000806
:100040000159000801590008015900080159000828
:100050000159000801590008015900080159000818
:10006000015900080159000801590008E557000826
:1000700001590008015900080159000801590008F8
:1000800001590008015900080159000801590008E8
:1000900001590008015900080159000801590008D8
:1000A00001590008015900080159000801590008C8
:1000B00001590008015900080159000801590008B8
:1000C00001590008015900080159000801590008A8
:1000D0000159000801590008015900080159000898
:1000E000F15700080159000801590008015900089A
:1000F0000159000801590008015900080159000878
:100100000159000801590008015900080159000867
:100110000159000801590008F95700080159000861
:100120000159000801590008015900080159000847
:1001300000000000000000000000000000000000BF
:1001400000000000000000000000000000000000AF
:10015000000000000000000000000000000000009F
:10016000000000000000000000000000000000008F
:10017000000000000000000000000000000000007F
:10018000000000000000000000000000000000006F
:10019000000000000000000000000000000000005F
:1001A000000000000000000000000000000000004F
:1001B000000000000000000000000000000000003F
:1001C000000000000000000000000000000000002F
:1001D000000000000000000000000000000000001F
:0401E0005FF8E0F1F3
:1001E40010B5054C237833B9044B13B10448AFF36D
:1001F40000800123237010BD88000020000000004F
:10020400DC6B000808B5034B1BB103490348AFF38B
:10021400008008BD000000008C000020DC6B00089A
:10022400034613F8012B002AFBD1181A0138704732
:1002340080F0004002E000BF81F0004142001FBF97
:100244005FEA410392EA030F7FEA226C7FEA236CA0
:100254006AD04FEA1262D2EB1363C1BFD218414095
:1002640048404140B8BF5B42192B88BF704710F02B
:10027400004F40F4000020F07F4018BF404211F0CE
:10028400004F41F4000121F07F4118BF494292EA36
:10029400030F3FD0A2F1010241FA03FC10EB0C0062
:1002A400C3F1200301FA03F100F0004302D54942EF
:1002B40060EB4000B0F5000F13D3B0F1807F06D39C
:1002C40040084FEA310102F10102FE2A51D2B1F194
:1002D400004F40EBC25008BF20F0010040EA030089
:1002E4007047490040EB000010F4000FA2F1010236
:1002F400EDD1B0FA80FCACF1080CB2EB0C0200FAC0
:100304000CF0AABF00EBC25052421843BCBFD0400D
:100314001843704792F0000F81F4000106BF80F487
:1003240000000132013BB5E74FEA41037FEA226C4A
:1003340018BF7FEA236C21D092EA030F04D092F015
:10034400000F08BF0846704790EA010F1CBF002049
:10035400704712F07F4F04D1400028BF40F00040A6
:10036400704712F100723CBF00F50000704700F0C6
:10037400004343F0FE4040F4000070477FEA2262ED
:1003840016BF08467FEA23630146420206BF5FEABE
:10039400412390EA010F40F4800070474FF00003BE
:1003A40004E000BF10F0004348BF40425FEA000C85
:1003B40008BF704743F0964301464FF000001CE02D
:1003C40050EA010208BF70474FF000030AE000BF83
:1003D40050EA010208BF704711F0004302D54042C1
:1003E40061EB41015FEA010C02BF84460146002033
:1003F40043F0B64308BFA3F18053A3F50003BCFA4E
:100404008CF2083AA3EBC25310DB01FA02FC6344FA
:1004140000FA02FCC2F12002BCF1004F20FA02F201
:1004240043EB020008BF20F00100704702F12002F4
:1004340001FA02FCC2F1200250EA4C0021FA02F255
:1004440043EB020008BF20EADC7070474FF0FF0C5A
:100454001CEAD0521EBF1CEAD15392EA0C0F93EA55
:100464000C0F6FD01A4480EA010C400218BF5FEAF7
:1004740041211ED04FF0006343EA501043EA51116A
:10048400A0FB01310CF00040B1F5000F3EBF490064
:1004940041EAD3715B0040EA010062F17F02FD2A68
:1004A4001DD8B3F1004F40EBC25008BF20F001004B
:1004B400704790F0000F0CF0004C08BF49024CEA62
:1004C400502040EA51207F3AC2BFD2F1FF0340EAF4
:1004D400C250704740F400004FF00003013A5DDC65
:1004E40012F1190FDCBF00F000407047C2F10002A6
:1004F400410021FA02F1C2F1200200FA02FC5FEA93
:10050400310040F1000053EA4C0308BF20EADC70DC
:10051400704792F0000F00F0004C02BF400010F44E
:10052400000F013AF9D040EA0C0093F0000F01F0FB
:10053400004C02BF490011F4000F013BF9D041EA1D
:100544000C018FE70CEAD15392EA0C0F18BF93EA1F
:100554000C0F0AD030F0004C18BF31F0004CD8D149
:1005640080EA010000F00040704790F0000F17BFD0
:1005740090F0004F084691F0000F91F0004F14D016
:1005840092EA0C0F01D142020FD193EA0C0F03D16E
:100594004B0218BF084608D180EA010000F0004071
:1005A40040F0FE4040F40000704740F0FE4040F44C
:1005B400400070474FF0FF0C1CEAD0521EBF1CEAEB
:1005C400D15392EA0C0F93EA0C0F69D0A2EB030209
:1005D40080EA010C49024FEA402037D04FF08053A3
:1005E40043EA111143EA10130CF000408B4238BF68
:1005F4005B0042F17D024FF4000C8B4224BF5B1A76
:1006040040EA0C00B3EB510F24BFA3EB510340EAC3
:100614005C00B3EB910F24BFA3EB910340EA9C0071
:10062400B3EBD10F24BFA3EBD10340EADC001B01E1
:1006340018BF5FEA1C1CE0D1FD2A3FF650AF8B4285
:1006440040EBC25008BF20F0010070470CF0004C92
:100654004CEA50207F32C2BFD2F1FF0340EAC250BD
:10066400704740F400004FF00003013A37E792F07E
:10067400000F00F0004C02BF400010F4000F013ADC
:10068400F9D040EA0C0093F0000F01F0004C02BFD7
:10069400490011F4000F013BF9D041EA0C0195E740
:1006A4000CEAD15392EA0C0F08D142027FF47DAFD9
:1006B40093EA0C0F7FF470AF084676E793EA0C0FC9
:1006C40004D14B023FF44CAF08466EE730F0004CC7
:1006D40018BF31F0004CCAD130F000427FF45CAF57
:1006E40031F000437FF43CAF5FE700BF42000ED21D
:1006F400B2F1FE4F0BD34FF09E03B3EB126209D459
:100704004FEA002343F0004323FA02F070474FF00E
:100714000000704712F1610F01D1420202D14FF083
:10072400FF3070474FF00000704700BF38B50E4BE4
:10073400054618784FF47A73B3FBF0F30B4A10684C
:10074400B0FBF3F000F0D2FA044658B90F2D09D8E3
:10075400024629464FF0FF3000F086FA044B20464B
:100764001D6038BD012038BD00000020200000209D
:1007740004000020074A08B51368032043F010035F
:10078400136000F05FFA0020FFF7D0FF04F028FEAA
:10079400002008BD00200240034A044B11681B7866
:1007A4000B441360704700BF840500200000002044
:1007B400014B1868704700BF8405002038B5044613
:1007C400FFF7F6FF0546631C1EBF044B1B78E418B5
:1007D400FFF7EEFF401B8442FAD838BD000000202A
:1007E4007047436A10B59A6A12F0500F1BD19A6A87
:1007F40042F400729A621A68926802F46022B2F5B6
:10080400602F0CD11A7B52B99A6A22F480729A62D0
:100814009A6AD2045EBF9A6A42F001029A6218464A
:10082400FFF7DEFF10BD1B6ABDE810401B6B1847C5
:10083400704708B5406AFFF7FBFF08BD7047406A80
:1008440008B5836A43F040038362C36A43F0040338
:10085400C362FFF7F3FF08BD002373B5019390F85B
:100864002430012B74D001234D6880F82430062DE8
:1008740002684FEA85030C6825D82B441F25566B64
:10088400053B9D4026EA050504FA03F32B43536315
:10089400092C4FEA44038D682FD907262344D168D5
:1008A4001E3B9E4021EA060105FA03F30B43D36085
:1008B400A4F11003012B2BD90023002280F824205B
:1008C400184602B070BD0C2D0BD82B441F25166B97
:1008D400233B9D4026EA050504FA03F32B431363E7
:1008E400D6E72B441F25D66A413B9D4026EA0505E1
:1008F40004FA03F32B43D362CAE70726116923449E
:100904009E4021EA060105FA03F30B431361CFE786
:10091400104B9A4216D193681B02CDD49368102CC5
:1009240043F400039360C7D10B4B0C4A1B68B3FB21
:10093400F2F20A2353430193019B002BBCD0019B89
:10094400013BF8E7836A43F0200383620123B4E7A1
:100954000223B5E7002401402000002040420F009C
:10096400002373B50193036804469A68D20702D53D
:10097400002002B070BD9A6842F001029A60124BE6
:10098400124A1B68B3FBF2F30193019BC3B9FFF74F
:100994000FFF064623689D6815F00105E8D1FFF7AF
:1009A40007FF801B0228F5D9A36A84F8245043F07A
:1009B4001003A362E36A012043F00103E362D8E772
:1009C400019B013BE0E700BF2000002040420F00F4
:1009D4002DE9D8419046404B026804469A420F469E
:1009E40002D03E498A4203D15B6813F4702F6ED162
:1009F40094F82430012B6CD00123204684F8243051
:100A0400FFF7AEFF064600285DD1A06A216820F4F6
:100A14007060324B20F0010040F480709942A06273
:100A240004D12D4A536813F4702F3ED1A36A23F4E2
:100A34008013A3624B685A0505D5A36A23F4405377
:100A440043F48053A362A36A206A13F4805318BF4B
:100A5400E36A3A4618BF23F00603E362002384F8EE
:100A640024301F4B4C3183621E4BC3621E4B036305
:100A74006FF0020341F84C3C51F8443C43F480735A
:100A840041F8443C434600F087F923689A6802F42D
:100A94006022B2F5602F9A680CBF42F4A00242F4BF
:100AA40080129A603046BDE8D881A36A43F480136B
:100AB400A36253685B0541BFA06A20F4405040F430
:100AC4008050A062BFE7002384F82430EAE70126BF
:100AD400E8E70226E6E700BF0024014000280140C1
:100AE400E7070008370800084308000838B503681A
:100AF40004469A68D20701D4002038BD9A6822F0CF
:100B040001029A60FFF754FE054623689B68DB07E1
:100B1400F2D5FFF74DFE401B0228F6D9A36A012047
:100B240043F01003A362E36A43F00103E36238BDB8
:100B3400F8B50446002877D0836A23B9C36280F8E5
:100B4400243004F06FFC2046FFF7D0FFA36A13F0B3
:100B540010036BD1002869D1A26A374922F4885264
:100B640022F0020242F00202A26294E824008A42C5
:100B7400E16904D1B1F5402F08BF4FF40021267B71
:100B840045EA46052943A568B5F5807F35D0012D92
:100B940008BF4FF48073277D012F06D17EBBA66961
:100BA400013E43EA463343F400635668B5F5807F5B
:100BB40026F4694643EA0603536096681F4B03EA2A
:100BC400060343EA0103936001D0012D20D1236978
:100BD400013B1B05D56A25F470052B43D36292684B
:100BE400174B1340994215D10023E362A36A23F003
:100BF400030343F00103A362F8BD2B46CBE7A66AC7
:100C040046F02006A662E66A46F00106E662CCE7F4
:100C14000023DFE7A36A23F0120343F01003A36267
:100C2400E36A43F00103E3620120F8BDA36A43F0E1
:100C34001003A362F8E700BF003C0140FDF7E1FFA9
:100C4400FE0E1FFF074A0002D36800F4E06023F49D
:100C5400E0631B041B0C43F0BF6343F40033034302
:100C6400D360704700ED00E0174B30B5DC68C4F387
:100C74000224C4F10703251D042B28BF0423062DD9
:100C84004FF0010598BF002405FA03F303F1FF3385
:100C940088BF033C1940A14005FA04F4013C2240FA
:100CA400002842EA01024FEA0212A9BF00F16040A3
:100CB400064BD2B200F56140BBBF00F00F00D2B2C8
:100CC40080F800231A5430BD00ED00E014ED00E07C
:100CD400002808DB0123420900F01F0003FA00F09A
:100CE400014B43F82200704700E100E00138B0F105
:100CF400807F0AD2F021064B064A586082F82310FE
:100D04000020072298601A6070470120704700BFD6
:100D140010E000E000ED00E010B5002832D00168DA
:100D2400194B1424994225D8184AA3F207430A44BC
:100D3400B2FBF4F2920002648468C36343680A68F5
:100D44002343C46822F47F522343046922F030020F
:100D540023434469234384692343C46923431343DA
:100D64000B600122002380F82120836380F8203067
:100D7400184610BD064B0B44B3FBF4F39B0003640D
:100D8400044BD9E7012010BD07040240F8FFFDBF62
:100D9400F8FBFDBF00040240F0B590F82040012CA0
:100DA40035D0012490F8215080F82040A5424FF01E
:100DB40000064FF0020428D180F8214004688663BD
:100DC4002668076C26F001062660C66BBD40756078
:100DD400636043680568102BC36A0BBFA260A160FF
:100DE400E160E2604BB1236843F00E0323602B689B
:100DF400002043F001032B60F0BD236823F00403BB
:100E04002360236843F00A03F0E780F8206002209F
:100E1400F0BD000070B40425C66B026C346803682E
:100E240095402542196855D04D0753D51A68960642
:100E34005EBF1A6822F004021A60604A93421FD906
:100E440002F56272934214D01432934213D01432D6
:100E5400934212D0143293420CBF4FF480434FF4A8
:100E64008023574A5360C36A002B00F0A58070BCEE
:100E740018470423F5E74023F3E74FF48063F0E7D2
:100E840050498B4216D014318B4215D014318B4209
:100E940014D014318B4214D014318B4214D0143139
:100EA4008B4214D0934214BF4FF480234FF08063DD
:100EB400454AD7E70423FBE74023F9E74FF480636F
:100EC400F6E74FF48043F3E74FF48023F0E74FF461
:100ED4008003EDE702259540254257D08D0755D56F
:100EE4001A68940606D41A6822F00A021A600122CB
:100EF40080F82120314A93421ED902F5627293424E
:100F040013D01432934212D01432934211D01432BB
:100F140093420CBF4FF400534FF40033284A5360FC
:100F2400002380F82030836A9EE70223F6E720231B
:100F3400F4E74FF40073F1E722498B4216D01431E1
:100F44008B4215D014318B4214D014318B4214D0FF
:100F540014318B4214D014318B4214D0934214BFF9
:100F64004FF400334FF00073174AD8E70223FBE72E
:100F74002023F9E74FF40073F6E74FF40053F3E747
:100F84004FF40033F0E74FF40013EDE708259540E4
:100F9400254211D009070FD5196821F00E011960F7
:100FA400012303FA02F27260836380F82130002384
:100FB40080F82030036B57E770BC70478000024014
:100FC4000004024008000240000002402DE9F74FEF
:100FD400002426466C4F6D4BDFF8B8E1DFF8B8C14A
:100FE4000A6832FA06F502D103B0BDE8F08F4FF07B
:100FF400010808FA06F802EA0802904540F08480E5
:101004004D68122D00F0B18000F28780022D00F0AF
:10101400A9807BD8002D00F08C80012D00F0A080E9
:101024004FF00F09FF2A93BF824606F18045083D21
:10103400D0F800B092BFB500D0F804B0AD0009FA02
:1010440005F82BEA080804FA05F588BF00F1040A3C
:1010540048EA0505CAF80050D1F804A01AF0805FE8
:1010640052D0BD6926F0030845F00105BD61BD6994
:1010740008F1804805F00105019508F5803806F06F
:10108400030B019D4FEA8B0BD8F8085009FA0BF9B2
:1010940025EA09093E4DA8426CD005F58065A842B1
:1010A4006AD005F58065A84268D005F58065A84238
:1010B40066D005F58065A84264D070450CBF05254F
:1010C400062505FA0BF545EA0905C8F808501D6818
:1010D4001AF4803F14BF154395431D605D681AF4EC
:1010E400003F14BF154395435D609D681AF4801F4B
:1010F40014BF154395439D60DD681AF4001F14BFA7
:101104002A4325EA0202DA60013669E7032D25D075
:10111400112D85D1CC68043482E7654509D012D8F5
:10112400DFF878904D4504D009F580394D457FF4BA
:1011340077AF8C68E4B1012C0CBFC0F81080C0F804
:10114400148008246CE7DFF858904D45F1D009F578
:1011540080394D45EDD0A9F58019E7E700245FE714
:10116400CC685DE7CC6808345AE7CC680C3457E7A0
:10117400042455E70025A4E70125A2E70225A0E7FA
:1011840003259EE704259CE700100240000401406B
:1011940000080140001C0140000021100000111053
:1011A400000031108368194214BF012000207047E9
:1011B4000AB1016170470904FBE7C36803EA01024D
:1011C40021EA030141EA02410161704708B5044B79
:1011D4005969014202D0586102F094FD08BD00BF74
:1011E40000040140016800224B6913F4806310D0AD
:1011F4006FF480634B612023026380F83D3080F8F4
:101204003E20036C80F83C2043F004030364012077
:101214007047184670472DE9F84304461746994627
:10122400C1F307488EB22568B8F1010F0CBF6B6992
:10123400AB6936EA030314BF0120002008B9BDE8F6
:10124400F8836B695A0516D52B68202243F4007382
:101254002B606FF480636B610023236384F83D206B
:1012640084F83E30226C42F00402226484F83C305C
:101274000120BDE8F8837B1CD5D0FFF799FAA0EBD9
:101284000900874201D3002FCDD1002320222363FC
:1012940084F83D2084F83E30226C42F02002E4E7DA
:1012A40070B504460D46164623685B695B0701D595
:1012B400002070BD2046FFF795FFA8B96A1CF3D043
:1012C400FFF776FA801B854201D3002DECD1002371
:1012D4002022236384F83D2084F83E30226C84F875
:1012E4003C3042F020022264012070BD70B50446F7
:1012F4000D4616462068436913F0400301D00020D0
:1013040070BD4269D2060ED56FF0100242612022F0
:10131400236384F83D2084F83E30226C226484F8F0
:101324003C30012070BDFFF743FA801BA84201D86E
:10133400002DDFD100232022236384F83D2084F88C
:101344003E30226C42F02002E8E72DE9F8430446DF
:1013540090461F46089EC1F307498DB22368B9F130
:10136400010F0CBF5B699B6935EA03030CBF0123C2
:101374000023434502D00020BDE8F8837B1CEDD058
:10138400FFF716FA801B874201D3002FE6D1002312
:101394002022236384F83D2084F83E30226C84F8B4
:1013A4003C3042F0200222640120BDE8F88370B58D
:1013B40004460D46164623685B691B0601D50020CA
:1013C40070BD2046FFF70EFFA8B96A1CF3D0FFF7E3
:1013D400EFF9801B854201D3002DECD1002320229C
:1013E400236384F83D2084F83E30226C84F83C303A
:1013F40042F020022264012070BD00002DE9FF416B
:101404009846036816461A680B9D42F480621A6077
:101414001A680F4642F480721A604FF001110A9B59
:10142400009500220446FFF790FF236848B11B682B
:10143400DB0502D54FF400732364032004B0BDE838
:10144400F081FFB207F0FE021A612A492B460A9A7C
:101454002046FFF7E0FE08B10120EFE72368039080
:101464005A690A9903929B692A4603932046039B6F
:10147400FFF79DFF40B1236C042B01BF2268136862
:1014840043F400731360E7E7B8F1010F236825D133
:10149400F6B21E612A460A992046FFF788FF0246E3
:1014A4000028E8D1216820460B6843F480730B6060
:1014B4000A9B00954FF00111FFF747FF23680028AE
:1014C400B5D147F001071F610A9A2B460949204606
:1014D400FFF7A1FE003018BF0120AFE7320A1A61FE
:1014E4000A992A462046FFF762FF0028C3D12368E1
:1014F400CEE700BF0200010070B5044608B9012020
:1015040070BD90F83D3003F0FF021BB980F83C2019
:1015140003F0F8FF242384F83D3023681A6822F08E
:1015240001021A601A6842F400421A601A6822F42E
:1015340000421A6000F064FF6568414B9D424DD83B
:10154400404B9842DBD940492268B0FBF1F1536823
:1015540023F03F030B435360136A23F03F0301312D
:1015640019431162D169364B21F44F419D4221F058
:10157400FF0100F1FF3048D86D00B0FBF5F00130F9
:10158400C0F30B03042B38BF04230B43D36111684E
:10159400206AE36921F0C00103430B43136091689F
:1015A400E068236921F40341034321F0FF010B4365
:1015B4009360D168A069636921F0FF0103430B4381
:1015C400D3601368002043F00103136020232064D8
:1015D40084F83D30206384F83E0070BD1B4B984274
:1015E4008DD9194E4FF49671B0FBF6F6226871430B
:1015F400536823F03F0333434FF47A765360136AFE
:10160400B1FBF6F123F03F03A9E7A36853B905EB57
:101614004503B0FBF3F0431CC3F30B036BB143F47A
:101624000043B2E719236B43B0FBF3F0431CC3F34D
:101634000B0313B143F44043A7E70123A5E700BF1D
:10164400A08601007F841E0040420F00FF083D0079
:101654002DE9FF4104461F460D469046FFF7A8F8C2
:1016640094F83D300646202B04D00225284604B0C9
:10167400BDE8F0810090192301225B492046FFF761
:1016840064FE0028F1D194F83C30012BEDD0012305
:1016940084F83C3023681A68D2075EBF1A6842F0A7
:1016A40001021A601A6822F400621A60212284F886
:1016B4003D20102284F83E20002222646785628D3A
:1016C400C4F824802285494AE262E26A082A04D0E6
:1016D400012A02D012F5803F04D11A6842F48072C4
:1016E4001A6002E0226B122AF7D0002200960A9BAD
:1016F4004FF001112046FFF728FE226838B1136825
:10170400DB0544BF4FF4007323640125AEE723696E
:10171400B3F5804F13D105F0FE05156133460A9ADF
:1017240033492046FFF777FD05460028EDD12368AD
:1017340003905A6903929B690393039B44E0EB1162
:1017440003F0060343F0F00313612A4933460A9A6F
:101754002046FFF760FD0028D7D12368EDB21D6154
:10176400DCE732460A992046FFF721FE40B1236C9C
:10177400042B01BF2268136843F400731360C4E7A9
:10178400636A20681A4612F8011B01616262628D65
:10179400013A92B26285228D4769511E89B27F0750
:1017A40021850AD549B15978023301616362638D99
:1017B400023A013B9BB26385228532460A99204650
:1017C400FFF76EFD0028D2D1238D002BC9D12168EB
:1017D4000A6842F400720A60202284F83C3084F8DB
:1017E4003D2084F83E3041E7020010000000FFFF76
:1017F40002000100080001002DE9F0411F4600230A
:10180400044688B002930D469046FEF7D1FF94F843
:101814003D300646202B04D00225284608B0BDE8FA
:10182400F0810090192301228D492046FFF78DFD98
:101834000028F1D194F83C30012BEDD0012384F839
:101844003C3023681A68D2075EBF1A6842F001026E
:101854001A601A6822F400621A60222284F83D2079
:10186400102284F83E20002222646785628DC4F829
:10187400248022857B4AE262E26A1968082A41F4DC
:101884008061196004D0012A02D012F5803F04D18E
:101894001A6842F480721A6002E0226B112AF7D0AF
:1018A4000E9B009600224FF001112046FFF74DFDDC
:1018B400236838B11B68DD0502D54FF40073236437
:1018C4000125AAE72269B2F5804F44D145F001050C
:1018D400EDB21D6133460E9A63492046FFF79BFC27
:1018E40005460028ECD1228D2368002A67D0012AFE
:1018F40078D11A6822F480621A6072B6236804955B
:101904005A6904929A690492049A1A6842F4007219
:101914001A6062B6554FDFF85C81238D002B58D0D6
:10192400032B00F2E980012B78D132460E99204630
:10193400FFF7DCFC0028C3D12268636A12691A70BD
:10194400636A01336362238D013B2385638D013B0D
:101954009BB26385E1E7EF1107F0060747F0F00259
:101964001A61434933460E9A2046FFF754FC002877
:10197400A6D12368EDB21D610E9A33463A4920463A
:10198400FFF749FC024600289AD123680790596959
:1019940020460791996907910799196841F4807164
:1019A40019600E9B00964FF00111FFF7CEFC2368DF
:1019B40000287FF47FAF47F0F1071F618AE70395A2
:1019C4005A6903929A690392039A1A6842F400725C
:1019D4001A60202384F83D30002384F83E3084F8D4
:1019E4003C301AE7022A1A680ED142F400621A60E7
:1019F40072B6236805955A6905929A690592059A03
:101A04001A6822F4806283E742F480621A600695C1
:101A14005A6906929B690693069B7BE7022B009604
:101A24000E9B4FF000023946204625D1FFF78DFC6E
:101A340000287FF445AF72B623681A6842F4007236
:101A44001A601B69626A1370636A01336362238DCF
:101A5400013B2385638D013B9BB2638562B66BE7D3
:101A6400020010000000FFFF02000100040001005A
:101A74000800010020000020FFF767FC00287FF425
:101A84001FAF2268136823F48063136072B6226860
:101A9400636A12691A7046F2A812616A4B1C636287
:101AA400238D013B2385638D013B9BB26385D8F86D
:101AB4000030B3FBF2F2232353430293029B013B16
:101AC4000293029B6BB92022236384F83D2084F89F
:101AD4003E30226C42F02002226462B684F83C302C
:101AE400EEE623685A695007E8D51A6842F4007292
:101AF4001A601B694B70A7E732460E992046FFF720
:101B0400F5FB00287FF4DCAE2268636A12691A7060
:101B1400626A531C6362238D013B2385638D013B01
:101B24009BB263852368596949077FF5F6AE1B6943
:101B3400537005E72DE9F04399460023044689B024
:101B440003930D469046129FFEF732FE94F83D3003
:101B54000646202B04D00225284609B0BDE8F083B0
:101B64000090192301228E492046FFF7EEFB00283E
:101B7400F1D194F83C30012BEDD0012384F83C30B2
:101B8400236829461A682046D2075EBF1A6842F0C5
:101B940001021A601A6822F400621A60222384F88F
:101BA4003D30402384F83E3000232364109B01968B
:101BB4006362BDF8443000976385638D4246238594
:101BC400784BE3624B46FFF719FC054608B1012543
:101BD400C2E7228D236892B904905A6904929A69E3
:101BE4000492049A1A6842F400721A60202384F85A
:101BF4003D30002384F83E3084F83C30ACE7012AC1
:101C040032D11A6822F480621A6072B62368059091
:101C14005A6905929A690592059A1A6842F4007203
:101C24001A6062B6DFF88081DFF88091238D002B83
:101C3400DCD0032B00F29580012B31D1324639469A
:101C44002046FFF753FB0028C1D12268636A12695A
:101C54001A70636A01336362238D013B2385638DAC
:101C6400013B9BB26385E1E7022A1A680ED142F474
:101C740000621A6072B6236806905A6906929A69DD
:101C84000692069A1A6822F48062C9E742F48062D6
:101C94001A6007905A6907929B690793079BC1E7EB
:101CA400022B00963B464FF000024146204618D1D5
:101CB400FFF74BFB00288AD172B623681A6842F4F6
:101CC40000721A601B69626A1370636A013363628B
:101CD400238D013B2385638D013B9BB2638562B6F3
:101CE400B3E7FFF732FB00287FF471AF2268136873
:101CF40023F48063136072B62268636A12691A70EF
:101D040046F2A812616A4B1C6362238D013B238552
:101D1400638D013B9BB26385D9F80030B3FBF2F2CB
:101D2400232353430393039B013B0393039B6BB90B
:101D34002022236384F83D2084F83E30226C42F054
:101D44002002226462B684F83C3040E723685A6972
:101D54005007E8D51A6842F400721A601B694B7088
:101D6400B3E7324639462046FFF7C0FA00287FF42D
:101D74002EAF2268636A12691A70626A531C636226
:101D8400238D013B2385638D013B9BB263852368CF
:101D9400596949077FF54AAF1B69537059E700BF7A
:101DA400020010000000FFFF0400010020000020DA
:101DB4002DE9F04F044685B0984689469246FEF7D1
:101DC400F7FC94F83D300546202B03D0022005B0E3
:101DD400BDE8F08F0090192301224C492046FFF7FB
:101DE400B4FA0028F2D194F83C30012BEED0012350
:101DF40084F83C30236801271A68DFF810B1D20751
:101E040058BF1A6809F0FE095CBF42F001021A606B
:101E14001A6822F400621A60242384F83D300023F7
:101E24002364A3F58033E36222684FF00111136841
:101E3400204643F480731360434600950022FFF765
:101E440084FA236838B11B68DB0502D54FF40073AC
:101E540023640320BBE7C3F81090FEF7A9FCA02677
:101E6400054623685A695B69C2F34002C3F38023C1
:101E740094F83D10A02901D002B9E3B120262368CB
:101E840084F83D605A6912F0020F1A6842F4007235
:101E94001A6027D0002203925A691C4903929B6955
:101EA40001220393039B009519232046FFF74DFA63
:101EB40098B101208BE7FEF77BFC401B804502D3E1
:101EC400B8F1000F01D184F83D6023685A695B6959
:101ED400C2F34002C3F38023CAE784F83D6084F868
:101EE4003C0074E76FF4806259465A6120460095BD
:101EF40019230122FFF729FA0028DAD101375745BF
:101F040092D384F83D6084F83C00D2E702001000CC
:101F14002DE9F341054608B901203CE00368DB07DD
:101F240010D42B689F075DD42B68190700F19480A7
:101F34002B685A0700F1BE80E869002840F02C8124
:101F4400002028E08F4C636803F00C03042B07D0B7
:101F5400636803F00C03082B09D16368DE0306D51C
:101F640023689C03DDD56B68002BDAD1D4E76B685A
:101F7400B3F5803F12D1236843F480332360FEF726
:101F840017FC064623689803CBD4FEF711FC801B8C
:101F94006428F7D9032002B0BDE8F0819BB9236817
:101FA40023F480332360236823F480232360FEF723
:101FB400FFFB064623689903B3D5FEF7F9FB801BA4
:101FC4006428F7D9E6E7B3F5A02F236803D143F4D7
:101FD40080232360CFE723F480332360236823F432
:101FE4008023CBE7674C636813F00C0F07D063685A
:101FF40003F00C03082B10D16368DA030DD42368B3
:102004009B0702D52B69012B86D123686A6923F0CB
:10201400F80343EAC203236086E72A695A4B6AB18C
:1020240001221A60FEF7C4FB064623689F07ECD41E
:10203400FEF7BEFB801B0228F7D9ABE71A60FEF758
:10204400B7FB0646236898077FF56EAFFEF7B0FB33
:10205400801B0228F6D99DE7AA694A4C4B4BDAB19A
:1020640001221A60FEF7A4FB0646636A9B070DD59E
:102074004FF4FA52464B1B68B3FBF2F3019300BFD3
:10208400019B5A1E0192002BF9D151E7FEF790FBF8
:10209400801B0228E9D97DE71A60FEF789FB064612
:1020A400636A9F077FF544AFFEF782FB801B02281B
:1020B400F6D96FE7334CE369D80024D40127E369E8
:1020C40043F08053E361E36903F080530093009B82
:1020D400304E3368D90518D5EB68012B26D1236A15
:1020E40043F001032362FEF763FB41F28836804626
:1020F400236A9B073FD5002F3FF41EAFE36923F00B
:102104008053E36118E70027E2E7336843F4807300
:102114003360FEF74DFB80463368DA05DCD4FEF706
:1021240047FBA0EB08006428F6D933E7ABB9236A70
:1021340041F2883823F001032362236A23F0040365
:102144002362FEF735FB0646236A9807D3D5FEF7CC
:102154002FFB801B4045F7D91CE7052B236A03D1CD
:1021640043F004032362BAE723F001032362236AE2
:1021740023F00403B6E7FEF71BFBA0EB0800B04214
:10218400B6D907E7001002400000424280044242F0
:1021940020000020007000402A4B5A681C4602F0C0
:1021A4000C02082A3DD00023274E022833602BD18D
:1021B400FEF7FEFA0746236899011FD42B6AB3F58C
:1021C400803F05D16268A96822F400320A43626044
:1021D400696A62680B4322F4741213436360012337
:1021E4003360FEF7E5FA054623689A013FF5A8AE89
:1021F400FEF7DEFA401B0228F6D9CBE6FEF7D8FA42
:10220400C01B0228D7D9C5E6FEF7D2FA05462368D3
:102214009B017FF595AEFEF7CBFA401B0228F6D959
:10222400B8E601283FF4B7AE58682B6A00F4803250
:102234009A427FF471AE6B6A00F47010C01A18BF32
:102244000120A8E6001002406000424230B5194B5C
:1022540087B002AC03F110052246186859680833A8
:1022640003C2AB421446F7D101238DF80430022394
:1022740011498DF805304B6803F00C02082A17D178
:10228400C3F3834206A80244DB0312F8102C0CD5D6
:102294004B680A48C3F34043504306AA134413F857
:1022A400143CB0FBF3F007B030BD05485043FAE7E7
:1022B4000248F8E7F46B00080010024000127A00AC
:1022C40000093D002DE9F0410D46044610B90120F6
:1022D400BDE8F081454A136803F007038B4229D314
:1022E40021688E0731D4CA0744D4404A136803F0E6
:1022F40007039D4267D322683D4D12F0040F6ED14F
:10230400130706D56B68226923F4605343EAC203BA
:102314006B60FFF79BFF6B68364AC3F30313D35C10
:10232400D840354B1860354B1868FEF7FFF900208C
:10233400BDE8F081136823F007030B4313601368AF
:1023440003F007039942C2D1CAE7294B11F0040FE5
:102354001EBF5A6842F4E0625A60080742BF5A68D6
:1023640042F460525A605A68A06822F0F0020243B4
:102374005A60B8E762681E4E012A33681BD113F411
:10238400003FA4D0736841F2883823F00303134359
:102394007360FEF70DFA07467368626803F00C0376
:1023A400B3EB820FA1D0FEF703FAC01B4045F3D96B
:1023B4000320BDE8F081022A02D113F0007FE0E798
:1023C40013F0020FDDE7136823F007032B431360B8
:1023D400136803F007039D427FF479AF8BE76B68C2
:1023E400E16823F4E0630B436B6089E7002002405B
:1023F400001002403E7D0008200000200400002060
:10240400044B054A5B68C3F30223D35C034A106898
:10241400D8407047001002404E7D00082000002084
:10242400044B054A5B68C3F3C223D35C034A1068B8
:10243400D8407047001002404E7D00082000002064
:1024440003682DE9F341D907054620D5354CE369E6
:10245400DA0032D40127E36943F08053E361E3698E
:1024640003F080530193019B2F4E3368DB0526D57F
:10247400236A13F4407336D1236A6A6823F44073E1
:10248400134323621FB1E36923F08053E361286897
:10249400830706D5234AA968536823F440430B43B2
:1024A400536010F010001BD01E4A69695368002065
:1024B40023F480030B43536012E00027D4E733680E
:1024C40043F480733360FEF773F980463368D805AC
:1024D400CED4FEF76DF9A0EB08006428F6D90320EA
:1024E40002B0BDE8F0816A6802F440729342C3D03E
:1024F40001200E4A236A1060002023F4407110600A
:102504002162D907B8D5FEF753F941F28838064657
:10251400236A9A07B0D4FEF74BF9801B4045F7D9DC
:10252400DDE700BF0010024000700040400442425A
:102534002DE9F3411C4616460F460546FEF738F9C9
:102544003444241AFEF734F98046234B1B68C3F342
:10255400CB3363432A680193936837EA030301D0BA
:1025640000202EE0731CF7D0FEF722F9A0EB080040
:10257400A04229D32B685A6822F0E0025A606A68A4
:10258400B2F5827F0AD1AA68B2F5004F02D0B2F543
:10259400806F03D11A6822F040021A60AA6AB2F569
:1025A400005F07D11A6822F400521A601A6842F4D4
:1025B40000521A60012385F851300023032085F866
:1025C400503002B0BDE8F081019B002B019B08BF95
:1025D4000024013BBEE700BF2000002038B51346AD
:1025E40042680446B2F5827F16D18068B0F5004F88
:1025F40002D0B0F5806F0FD12268B0F5806F1568F6
:1026040025F04005156007D10A4601212046FFF751
:102614008FFF20B9002038BD0A468021F6E7636D9C
:10262400032043F02003636538BD10B513460A4602
:1026340080210446FFF77CFF20B10320636D43F043
:102644002003636510BD10B50446002851D0436AC9
:10265400002B4AD14268B2F5827F00D0C3610023C7
:10266400A36294F8513003F0FF0223B984F8502098
:10267400204602F0A5FF0223226884F85130136833
:10268400A06823F040031360636800F4044003F47B
:1026940082730343E068A16900F400600343206986
:1026A40000F002000343606900F00100034301F4F9
:1026B40000700343E069090C00F038000343206A0A
:1026C40001F0040100F080000343A06A00F400500C
:1026D400034313605160D369002023F40063D36182
:1026E4000123606584F8513010BD00230361436108
:1026F400B5E7012010BD2DE9F3411E4690F8503096
:102704000446012B0D46904600F09E80012380F87C
:102714005030FEF74DF8074694F85100C0B2012836
:1027240040F09080002D60D0B8F1000F5DD00323FD
:10273400002084F85130A3686065B3F5004FA4F815
:102744003680A063A087E087606420642563A4F8D2
:102754003480206807D1036823F0400303600368D2
:1027640043F48043036003685B065EBF036843F081
:1027740040030360E368B3F5006F63683ED113B1AF
:10278400B8F1010F07D135F8023BC3602563E38E2E
:10279400013B9BB2E386E38E9BB2A3B93A46314632
:1027A4002046FFF742FF002849D1A36833B90193BB
:1027B4002368DA6801929B680193019B606D003085
:1027C40018BF012011E022689368980705D5236B90
:1027D40033F8021BD1602363D9E7FDF7E9FFC01B7F
:1027E400B042D8D3711CD6D00320012384F85130D1
:1027F400002384F8503002B0BDE8F08113B1B8F181
:10280400010F08D12B780373236B01332363E38E09
:10281400013B9BB2E386E38E9BB2002BBED02368C0
:102824009A68920703D5226B12781A73ECE7FDF7C6
:10283400BFFFC01B8642EED8731CECD0D4E7202324
:102844006365B2E70220D0E70220D4E72DE9F7431D
:102854001E4690F850300446012B0D4691460A9FBF
:1028640000F0E280012380F85030FDF7A1FF94F8D6
:1028740051308046DBB2012B61680AD0B1F5827F0A
:1028840040F0D080A068002840F0CC80042B40F0B9
:10289400C980002D00F0C480B9F1000F00F0C080A1
:1028A400002E00F0BD8094F85130C4F83890042B09
:1028B4001CBF052384F851300023636523646364DB
:1028C4002368E687E6861A68A687500658BF1A6802
:1028D400256358BF42F04002A68658BF1A60E268DA
:1028E400B2F5006F58D109B1012E07D135F8022B8A
:1028F400DA60E38E2563013B9BB2E3860125E38E18
:102904009BB2ABB9E38F9BB293B94246394620469A
:10291400FFF78BFE002840F08180A368002B32D1A2
:1029240023680190DA6801929B680193019B2AE075
:102934002268936899070DD5E38E9BB253B14DB1CC
:102944000025236B33F8021BD1602363E38E013B24
:102954009BB2E3869368DB070CD5E38F9BB24BB144
:102964000125D268A36B23F8022BA363E38F013BF9
:102974009BB2E387FDF71CFFA0EB08008742BED89B
:102984007E1CBCD00320012384F85130002384F83A
:10299400503003B0BDE8F08309B1012E08D12A7884
:1029A4001A73236B01332363E38E013B9BB2E386EB
:1029B4000125E38E9BB21BB9E38F9BB2002BA4D0FD
:1029C4002268936898070ED5E38E9BB25BB155B12C
:1029D4000025236B1B781373236B01332363E38E6E
:1029E400013B9BB2E38622689368D9070DD5E38F38
:1029F4009BB253B10125D268A36B1A70A36B013348
:102A0400A363E38F013B9BB2E387FDF7D1FEA0EB09
:102A140008008742CDD87B1CCBD0B3E72023636565
:102A24000120B0E70220AEE70220B2E72DE9F3412E
:102A34001D4643680446B3F5827F884617460CD189
:102A4400836853B9042380F85130134600950A462D
:102A5400FFF7FCFE02B0BDE8F08194F85030012B82
:102A64007DD0012384F85030FDF7A2FE064694F889
:102A74005100C0B2012870D1B8F1000F5BD0002F13
:102A840059D0042384F85130002363652363E78716
:102A9400A386E38623646364A368C4F83880B3F52B
:102AA400004FA787216807D10B6823F040030B6010
:102AB4000B6823F480430B600B685F065EBF0B68F2
:102AC40043F040030B60E368F3B1E38F9BB2FBB1C7
:102AD40023689A68D20735D5DA68A36B23F8022BEA
:102AE400A363E38F013B9BB2E387EEE723689A6815
:102AF400D00718D51B7BA26B1370A36B0133A363A0
:102B0400E38F013B9BB2E387E38F9BB2002BEDD1B4
:102B1400324629462046FFF761FDD8B9606D003082
:102B240018BF012007E0FDF743FE801B8542EBD868
:102B3400691CE9D00320012384F85130002384F870
:102B4400503087E7FDF734FE801B8542BDD86B1CEF
:102B5400BBD0EFE720236365E0E70220EBE7022028
:102B640078E7000090F83D30012B28D1022380F84B
:102B74003D300368DA6842F00102DA60114A934298
:102B840012D002F5006293420ED0B3F1804F0BD005
:102B9400A2F59832934207D002F58062934203D0A3
:102BA40002F58062934204D19A6802F00702062A71
:102BB40003D01A6842F001021A6000207047012015
:102BC400704700BF002C014030B590F83E4090F8AB
:102BD4003F2090F8423090F84350E4B2D2B2DBB2D6
:102BE400EDB2C1B9012C47D1012B45D1022380F8A4
:102BF4003E3080F8423003681A6A22F001021A62F9
:102C04001A6A42F001021A6202680020136843F053
:102C14000103136030BD042911D1012A2CD1012DE7
:102C24002AD1022380F83F3080F8433003681A6ABF
:102C340022F010021A621A6A42F01002E3E7012C31
:102C44001AD1012A18D1012B16D1012D14D1022336
:102C540080F83E3080F83F3080F8423080F84330CE
:102C64000029C8D003681A6A22F001021A621A6A9B
:102C740042F001021A62DAE7012030BD7047704762
:102C840070477047036810B51A69044691070ED55A
:102C9400DA6892070BD56FF002021A6101229B6970
:102CA40002779B0777D0FFF7EAFF00232377236897
:102CB4001A69500710D5DA6851070DD56FF0040270
:102CC4001A6102229B69227713F4407F204668D060
:102CD400FFF7D5FF0023237723681A6912070FD55E
:102CE400DA6810070CD56FF008021A610422DB6958
:102CF4002277990720465AD0FFF7C1FF0023237794
:102D040023681A69D20610D5DA68D0060DD56FF09B
:102D140010021A610822DB69227713F4407F2046EF
:102D24004BD0FFF7ACFF0023237723681A69D10740
:102D340008D5DA68D20705D56FF0010220461A617A
:102D440000F0C6FF23681A69100608D5DA68110670
:102D540005D56FF0800220461A6100F03EF9236821
:102D64001A69520608D5DA68500605D56FF0400294
:102D740020461A61FFF785FF23681A69910622D558
:102D8400DA6892061FD56FF020022046BDE8104095
:102D94001A6100F021B9FFF771FF2046FFF770FFB9
:102DA40083E7FFF76BFF2046FFF76AFF92E7FFF721
:102DB40065FF2046FFF764FFA0E7FFF75FFF2046AB
:102DC400FFF75EFFAFE710BD244A0368904212D0BC
:102DD40002F5006290420ED0B0F1804F0BD0A2F504
:102DE4009832904207D002F58062904203D002F5F7
:102DF400806290421DD14A6823F070031343174A3E
:102E0400904212D002F5006290420ED0B0F1804F91
:102E14000BD0A2F59832904207D002F5806290421E
:102E240003D002F58062904203D1CA6823F4407350
:102E340013434A6923F08003134303608B68C3621E
:102E44000B688362054B984203D003F500639842F4
:102E540001D10B690363012343617047002C0140D6
:102E640010B5044630B390F83D3003F0FF021BB9AF
:102E740080F83C2002F016FC0223206884F83D30E0
:102E8400211DFFF7A1FF0123002084F8463084F8B8
:102E94003E3084F83F3084F8403084F8413084F880
:102EA400423084F8433084F8443084F8453084F860
:102EB4003D3010BD012010BDF8B50D460446002874
:102EC4004DD090F83D3003F0FF021BB980F83C2050
:102ED40002F0B8FB2146022351F8040B84F83D307C
:102EE400836823F4804323F007038360FFF76CFFB8
:102EF40020682B6886688269A9681E43AB6922F43E
:102F0400407222F0030241EA0323134323F47C4278
:102F14002B69E9691B0143EA0123E968076A0B434A
:102F2400296A22F0FC0243EA01331343696927F05A
:102F340022026F6886608361012347EA0117174301
:102F4400076284F84630002084F83E3084F83F302D
:102F540084F8423084F8433084F83D30F8BD0120D1
:102F6400F8BD000090F83C3030B5012B4FF002035F
:102F74002DD0012280F83D3003680D685C6880F82C
:102F84003C2024F070042C439A685C60114CA342EA
:102F940012D004F50064A3420ED0B3F1804F0BD0DD
:102FA400A4F59834A34207D004F58064A34203D067
:102FB40004F58064A34204D1496822F080020A43E4
:102FC4009A60012380F83D30002380F83C30184695
:102FD40030BD00BF002C01407047704738B504462F
:102FE4000368C1681A6922F440520A431A6182686C
:102FF4000069D9680243606921F4B05121F00C01E1
:1030040002430A43DA605A69A16922F440720A430E
:103014005A610E4A934215D1FFF702FA1923584315
:10302400636864229B00B0FBF3F0B0FBF2F102FB97
:1030340011031B013233B3FBF2F3256803EB0113D5
:10304400AB6038BDFFF7DCF9E8E700BF00380140AA
:10305400F8B504460E4617461D4621680B6836EA45
:10306400030301D10020F8BD6B1CF7D095B9236888
:103074000320DA6822F4D072DA605A6922F001027D
:103084005A61202384F8393084F83A30002384F8D4
:103094003830F8BDFDF78CFBC01B8542DDD2E6E776
:1030A40010B5044640B390F8393003F0FF021BB961
:1030B40080F8382002F014FB2423226884F8393085
:1030C400D368204623F40053D360FFF787FF2368B7
:1030D40000201A6922F490421A615A6922F02A02E5
:1030E4005A61DA6842F40052DA602023E06384F81B
:1030F400393084F83A3010BD012010BD2DE9F84371
:10310400984690F839300446202B0E4691464CD10F
:10311400002947D0002A45D090F83830012B44D0FC
:103124000123002580F838302123C56380F8393025
:10313400FDF73EFBA3680746B3F5805FA4F824902F
:10314400A4F8269003D123690BB935461E46002303
:1031540084F83830E38C9BB25BB943463A4640214D
:103164002046FFF775FF58B9202384F83930BDE8AD
:10317400F88343463A4680212046FFF769FF10B1A1
:103184000320BDE8F88322684EB935F8023BC3F347
:1031940008035360E38C013B9BB2E384DAE716F83F
:1031A400013BF6E70120BDE8F8830220BDE8F8837F
:1031B4002DE9F843984690F83A300446202B0E4601
:1031C40091464ED1002949D0002A47D090F8383092
:1031D400012B46D00123002580F838302223C56313
:1031E40080F83A30FDF7E4FAA3680746B3F5805F48
:1031F400A4F82C90A4F82E9003D123690BB935467A
:103204001E46002384F83830E08D80B220B9202394
:1032140084F83A30BDE8F88343463A4620212046F4
:10322400FFF716FF00BB23684EB95B68C3F30803BE
:1032340025F8023BE38D013B9BB2E385E4E7A268FA
:10324400B2F5805F02D02AB922691AB95B6833707B
:103254000136EFE75B6803F07F03F8E70120BDE880
:10326400F8830220BDE8F8830320BDE8F88300005A
:10327400CD2313B58DF806300023124C8DF807309A
:103284009DF80730CD2B4FF0640309D108220E4975
:103294000C48FFF733FF0120FDF790FA02B010BD90
:1032A4000DF1060101222046FFF728FF3220FDF729
:1032B40085FA642301220DF107012046FFF778FF08
:1032C400DEE700BFFC05002018000020044B03EBE0
:1032D4008000437803F03F036FF345134370704756
:1032E4008805002038B54FF480611148FDF75AFF76
:1032F400B0FA80F00F4C400963780F4D60F3C303BC
:10330400637002212846FDF74DFFB0FA80F063791F
:10331400400960F3C303637104212846FDF742FFAB
:10332400B0FA80F0637A400960F3C303637238BD76
:103334000008014088050020000C01402DE9F047F9
:10334400324FFFF7CFFF00243D46DFF8C480DFF89B
:10335400C490DFF8C4A0BB780BB1053BBB70A600DA
:10336400A9194B78D80626D535F82420531DC3F364
:103374000A0363F30A0225F824204A78120702D5C7
:10338400B3F5FA6F17D903F2EB72C2F30A02B2F57E
:10339400EF7F1ED8BA78E2B921465046AA1953786D
:1033A40043F02003537002F0E9FA35F824306FF348
:1033B4000A0325F824302E4473780134C3F3C00281
:1033C40062F30413032C737007F10407C3D1BDE83F
:1033D400F08740F2DA5103F20B62C2F30A028A4226
:1033E40007D8AA195378214643F04003537048463E
:1033F400D9E7B3F5FA6FD8DDC823AA19BB7053789F
:10340400214643F0800353704046CCE788050020F2
:103414002F6C00081C6C0008046C00081FB50A23FC
:1034240002932C23094C01930094FF230022A02132
:103434000748FEF77FFB002306481A18E1580433B7
:103444002C2BD162F9D104B010BD00BF940500202B
:103454003C060020CA0800207FB5192305464FF416
:103464007A760C788DF80C308DF80D20A4B2009685
:10347400022303AA21462846FEF7EAF80028F6D1DB
:1034840004B070BD1C232DE9F04307460C461646D4
:103494004FF47A7985B00D780DF1100808F8013DE4
:1034A400ADB2CDF800900123424629463846FEF7D6
:1034B400CFF80028F5D14FF47A78CDF800800123B5
:1034C4000DF10E0229463846FEF796F90028F4D18C
:1034D4004FF47A789DF80E3023F0180343EAC603BC
:1034E4008DF80E30CDF8008001230DF10E0229462F
:1034F4003846FEF7ADF80028F4D1032E06D8DFE8ED
:1035040006F002090C0F4FF06253A360002005B0CF
:10351400BDE8F0834FF06453F7E74FF06653F4E7E8
:103524004FF06853F1E700001B232DE9F0430746F1
:103534000C4616464FF47A7985B00D780DF11008D3
:1035440008F8013DADB2CDF800900123424629466A
:103554003846FEF77DF80028F5D14FF47A78CDF897
:10356400008001230DF10E0229463846FEF744F986
:103574000028F4D14FF47A789DF80E3023F0180324
:1035840043EAC6038DF80E30CDF8008001230DF117
:103594000E0229463846FEF75BF80028F4D1032EC4
:1035A40005D8DFE806F002080A0C064B6360002029
:1035B40005B0BDE8F083044BF8E7044BF6E7044B91
:1035C400F4E700BF2D23FA3B2D237A3C90C1F93C4C
:1035D40090C1793D2DE9FF419846752342F0D00210
:1035E40094B20A700E468DF80A3002220523214651
:1035F4000546FEF7DDFB18B1012004B0BDE8F081FB
:103604004FF47A77012300970DF10A0221462846E8
:10361400FEF71EF80028EFD1009701230DF10B02ED
:1036240021462846FEF7E8F80028E5D19DF80B303E
:10363400682B20D16B238DF80D008DF80C302146BA
:103644000097022303AA2846FEF702F8044600283E
:10365400D2D1072231462846FFF7FEFE42463146C4
:103664002846FFF70FFF9DF8282031462846FFF72C
:103674005BFF2046C1E70320BFE70000014801F0DB
:103684004FBB00BFB408002008B5074B93F90130C5
:10369400002B08DA054802F0E5F90020FFF716FED2
:1036A4000122034B9A7708BD88050020EA730008BD
:1036B4005001002008B520210E4800F0FDFCA0B107
:1036C4000D4B0C4A03F1140153F8040B8B4242F8DE
:1036D400040BF9D11B88802113800848FDF76DFD88
:1036E400074A13680133136008BD0648BDE8084063
:1036F40002F0B8B924070020CA08002000100140D5
:10370400500100200274000813B5194B18780428DE
:103714002BD8DFE800F00309141B2200154802B07F
:10372400BDE8104001F0E4B901241348838B428BB7
:10373400018BC08A009401F01BF902B010BD0E4841
:103744000524C389828941890089F3E70221084657
:1037540002B0BDE8104001F021BA0420074B1978EB
:1037640002B0BDE8104001F08DB9044B1978F7E7B9
:10377400A500002050010020CA080020A400002059
:1037840010B596B0282200210CA802F0EEF81422FD
:10379400002101A802F0E9F8182200210DEB020033
:1037A40002F0E3F84FF48033012202240D931493C2
:1037B4004FF4E0130CA80C92109215931394FEF797
:1037C400A7FB0F230193002303934FF48063214647
:1037D40001A8049305930294FEF774FD4FF400438B
:1037E40006A806940893FEF72BFE16B010BD000041
:1037F4002DE9F04FB04D97B0FCF7BCFFFFF7C0FFC9
:10380400102200210DA802F0B0F8AB69002243F0A9
:103814002003AB61AB69122103F020030793079BDC
:10382400AB69A64843F01003AB61AB69002403F015
:1038340010030893089BAB69012643F00403AB61B2
:10384400AB69022703F004030993099BAB694FF0AA
:10385400060B43F00803AB61AB694FF4806A03F0D5
:1038640008030A930A9BFDF7A3FC00224FF443418B
:103874009348FDF79DFC00224FF460719148FDF7D9
:1038840097FC12230DA98D480D930F9410970E9653
:10389400FDF79CFB0DA98A48CDF834B00E940F9423
:1038A400FDF794FB4FF443430DA985480D930F9402
:1038B40010970E96FDF78AFB40230DA981480D93BE
:1038C4000E940F94FDF782FB4FF460730DA97D48AD
:1038D4000D930F9410970E96FDF778FB7A4B0DA974
:1038E40076480E93CDF834A00F94FDF76FFB224673
:1038F40021462820FDF7B8F92820FDF7E9F96B697E
:10390400224633436B616B692146334006930B2097
:10391400069BFDF7A9F90B206C4DFDF7D9F96C4B0B
:103924004FF00B082B604FF48073AB604FF46023AF
:103934004FF007092846EB612C756C60C5F81080C0
:103944000D940E940F942E73FDF7F2F80DA92846EA
:103954000D94CDF83C900E96FCF77EFF05220DA940
:1039640028460D9204920E97FCF776FF03230DA9C7
:103974002846CDF834B00E93FCF76EFF04230DA94E
:103984002846CDF834900E93FCF766FF08230A27E7
:10399400049A0DA928460E920D930393FCF75CFF3D
:1039A400CDF838B04FF00C0B0DA928460D97FCF755
:1039B40053FF0DA92846CDF83480CDF83890FCF794
:1039C4004BFF039B0DA928460E93CDF834B0FCF7AA
:1039D40043FF0D230D9309230DA928460E93FCF7ED
:1039E4003BFF0E234FF00F090DA928460D930E97A8
:1039F400FCF732FFCDF838804FF480480DA92846F3
:103A0400CDF83490FCF728FF3248334B334D036034
:103A1400334B846043600393C46044618461C46134
:103A24000462C0F81080FDF767FD2E4A039B284608
:103A34002A606B60AC60EC606C61AC61EC612C6220
:103A4400C5F81080FDF758FD4FF4827326482749C6
:103A5400846080E80A004FF4007383612023C4600B
:103A640004614461C361046244628462C762FEF714
:103A7400EAFD49221E4B1F489C6083E8050040F282
:103A8400E7321846DA609C610D940E940393FFF7B5
:103A9400E7F9039B0DA918460D940E94FFF762FAFB
:103AA4001548164B4FF4805203604FF400531449E9
:103AB40082604160059125E0001002400008014049
:103AC400000C01400010014000001110F406002019
:103AD400002401403C0600200054004090060020D1
:103AE400801A0600005800401808002000300140E9
:103AF40088070020001000407408002000440040A3
:103B0400A08601000492C3600393C0F810A08461EE
:103B1400C461C0F814B0FFF7C3FADFF894E1564863
:103B2400039B0599049AC0F800E0C3604160826079
:103B3400C0F810A08461C461C0F814B0FFF7B0FAF3
:103B4400242221460DA801F010FFDFF854A14B4BAD
:103B54000DA98AE818001723CAF80C30032350462D
:103B64000D930B940C94CAF80840CAF81040CAF894
:103B74001440CAF818400F96CDF844901396CDF827
:103B84005490FFF799F90BA950460B940C94FFF746
:103B9400E9F900F07DFE00F08BFE00F035FE3246C0
:103BA40041463748FDF704FB3846FCF707FE234639
:103BB4002246009433492846FFF70CFD324C20730B
:103BC4003846FCF7FBFD314B1B78002B35D13048D0
:103BD40001F048FF012001F09BF80B222D492E48EB
:103BE400FCF7F6FE2D48FEF7BDFF3C212C48FEF7FE
:103BF400EBFFFFF713FC002301262A4F2A4DADF8F3
:103C040034303B7843B3A37F33BB3B78DFF8A480E5
:103C1400013BDBB23B70BDF8343001339BB2ADF8ED
:103C2400343038F8081CBDF8343041B99BB2B3F5D0
:103C34007A7FE6D9ADF83460E3E71C48C8E79AB266
:103C4400B2FBF1F301FB13239BB213B958F8043C04
:103C5400984708F10808E4E794F81E80B8F1010FCA
:103C6400CFD101F005F8424680212846FDF7A0FA9D
:103C7400FFF7FEFAC5E700BFFC050020002C014059
:103C8400000C0140E00500205001002070080020D5
:103C9400AC730008B4080020F40600208807002054
:103CA400D0070020A600002000100140CD730008BA
:103CB400004800401474000810B514460A2392B258
:103CC4000248FFF71BFA204610BD00BFFC05002088
:103CD4000122084B1A70084A1378013B13F0FF03C2
:103CE40001BF0A231370054B054A04BF5B6A9B0896
:103CF40013707047A600002010000020002C014023
:103D0400A5000020B0F5806F08B50FD100F1804008
:103D14004FF4007100F58630FDF74FFA044A13782A
:103D24000133DBB2032B88BF0023137008BD00BF2F
:103D3400A400002070470000034B01221988034BA4
:103D44001868FDF735BA00BFAC000020B0000020B1
:103D5400034B01221988034B1868FDF729BA00BFE9
:103D6400AA000020B0000020024608B1FFF7E4BF1B
:103D7400024B1988024B1868FDF71ABAAC000020F0
:103D8400B0000020024608B1FFF7E2BF024B1988D9
:103D9400024B1868FDF70CBAAA000020B0000020FE
:103DA40013B504460020FFF7DFFF04F01F0402A947
:103DB40001F8044D094C642301222046FEF79BFCC4
:103DC400642301220DF105012046FEF72FFE9DF824
:103DD4000540FFF7B1FF204602B010BDB40000203B
:103DE40073B504460D4616460020FFF7BDFF04F0E8
:103DF4001F0402A901F8044D074C64230122204644
:103E0400FEF779FC6423324629462046FEF70EFE6F
:103E1400FFF792FF02B070BDB400002037B504462E
:103E24000D460020FFF7A0FF44F020046423022283
:103E340001A905488DF804408DF80550FEF75BFC98
:103E4400FFF77AFF03B030BDB400002073B5044619
:103E54000D4616460020FFF787FF44F0200402A910
:103E640001F8044D074C642301222046FEF743FC6D
:103E74006423324629462046FEF73DFCFFF75CFFEB
:103E840002B070BDB400002073B5054600200E4694
:103E9400FFF76AFFA023094C02A901F8013D0122A2
:103EA40064232046FEF727FC642332462946204635
:103EB400FEF721FCFFF740FF02B070BDB400002004
:103EC400FF21E120FFF7AABFFF21E220FFF7A6BFF1
:103ED4000720FFF765BF08B50020FFF753FFFFF782
:103EE400EFFFBDE80840FFF7EFBF000013B502ACD9
:103EF40064E90201052221460A20FFF7A7FF0522F3
:103F040021461020FFF7A2FF044B11201978202925
:103F140028BF2021FFF782FF02B010BD4C01002012
:103F24007F28014628BF7F210520FFF777BF602047
:103F3400FFF736BF08B51D20FFF732FF00F0FB0185
:103F44001D20FFF76BFFBDE8084000211C20FFF790
:103F540065BF014600B13F210120FFF75FBF10B5E7
:103F640004460620FFF71CFF032C00F0F90102D1E0
:103F740041F0060103E0022C06D141F004010620C1
:103F8400BDE81040FFF74ABF012C02D141F0020105
:103F9400F5E7042CF3D1EBE738B505460620FFF727
:103FA400FFFE022D00F0D7040CD144F0200421467A
:103FB4000620FFF733FF0620FFF7F2FE231A5842CC
:103FC400584138BD012D08BF44F00804EFE710B58F
:103FD40004460020FFF7E4FE00F0F3012CB1012CAD
:103FE4000CBF41F0080141F00C010020BDE8104075
:103FF400FFF714BF08B50020FFF7D2FEBDE8084064
:1040040000F0FD010020FFF709BF70B50546FFF77A
:104014005FFF00F04003002B044614BF0126002676
:104024000DD015B1C0F342032B7040210720FFF7D8
:10403400F5FEA30603D520210720FFF7EFFE304647
:1040440070BD0020FFF7E1BF38B5044600200D46DF
:10405400FFF798FE0020FFF7A3FE00F0FC0141F0FB
:1040640002010020FFF7DAFEFFF772FE2046294620
:10407400FFF70AFFFFF76CFEBDE838400020FFF7AA
:1040840081BEF8B505460F461646FFF721FF00230B
:1040940004462B7070210720FFF7C0FEC4F34013C1
:1040A4002B70C4F30013C4F380143B703470F8BD58
:1040B40070210720FFF7B2BE37B504460D46FFF75F
:1040C400F7FF20462946FFF7BFFFFCF771FB0446C4
:1040D40001220DF105010820FFF782FEFFF7F8FE2B
:1040E40010F0300F16D00E4C0DF1070122460DF1E1
:1040F4000600FFF7C6FF23789DF806501BB1FFF7B3
:1041040016FF084B1870FFF79CFFFFF7D9FE2846EF
:1041140003B030BDFCF74CFB001B0928D8D9E2E7FB
:10412400A7000020A800002007B50020FFF71CFE10
:1041340050238DF80430732302228DF8053001A931
:1041440064230448FEF7D7FAFFF7F6FD03B05DF8E1
:1041540004FB00BFB400002010B5A0B0BC4907A800
:1041640001F0ACFC07A8FCF75BF80A2382B207A9AC
:10417400B848FEF7C3FF0020FFF712FE040740F122
:10418400308240074CBFB449B44907A801F096FCFB
:1041940007A8FCF745F80A2382B207A9AD48FEF741
:1041A400ADFF0120FFF7FCFDC0F340130393C0F300
:1041B40000130293C0F3C0030193C0F3800300F023
:1041C4000102A7490093C0F3400307A801F052FC81
:1041D40007A8FCF725F80A2382B207A99D48FEF731
:1041E4008DFF0220FFF7DCFDC0F340130393C0F3FF
:1041F40000130293C0F3C0030193C0F3800300F0E3
:10420400010298490093C0F3400307A801F032FC6F
:1042140007A8FCF705F80A2382B207A98D48FEF720
:104224006DFF0320FFF7BCFD00F0030202328E494C
:1042340007A801F01FFC07A8FBF7F2FF0A2382B2CC
:1042440007A98448FEF75AFF0520FFF7A9FD87490F
:1042540000F07F0207A801F00DFC07A8FBF7E0FFC0
:1042640007A982B20A237B48FEF748FF0620FFF71E
:1042740097FD01074CBF7E497E49044607A801F01B
:104284001DFC07A8FBF7CCFFC4F3410482B20A2348
:1042940007A97048FEF732FF002C40F0A48176494C
:1042A40007A801F00BFC07A8FBF7BAFF0A2382B2A8
:1042B40007A96848FEF722FF05A905220A20FFF78F
:1042C4008FFD9DF814109DF8173002919DF815107C
:1042D4009DF8182001919DF8161007A800916749D0
:1042E40001F0C8FB07A8FBF79BFF0A2382B207A9CA
:1042F4005848FEF703FF05A905220B20FFF770FDC0
:104304009DF814109DF8173002919DF815109DF832
:10431400182001919DF8161007A80091584901F042
:10432400A9FB07A8FBF77CFF0A2382B207A9494827
:10433400FEF7E4FE05A901220C20FFF751FD9DF8CC
:104344001420504907A801F095FB07A8FBF768FF64
:104354000A2382B207A93F48FEF7D0FE05A901222D
:104364000D20FFF73DFD9DF81420474907A801F0F3
:1043740081FB07A8FBF754FF0A2382B207A935483B
:10438400FEF7BCFE05A901220E20FFF729FD9DF8CA
:1043940014203E4907A801F06DFB07A8FBF740FF76
:1043A4000A2382B207A92B48FEF7A8FE05A9012219
:1043B4000F20FFF715FD9DF81420354907A801F0DB
:1043C40059FB07A8FBF72CFF0A2382B207A921484F
:1043D400FEF794FE05A905221020FFF701FD9DF8C4
:1043E40014109DF8173002919DF815109DF81820AF
:1043F40001919DF8161007A80091264901F03AFB97
:1044040007A8FBF70DFF0A2382B207A91148FEF79C
:1044140075FE1120FFF7C4FC1F4900F03F0207A8F6
:1044240001F028FB07A8FBF7FBFE0A2382B207A9C9
:104434000848FEF763FE1220FFF7B2FC174900F0AC
:104444003F0207A801F016FB07A8FBF7E9FE27E0E7
:104454003C7400080C0100206F7400088B74000881
:10446400BA740008FE7400084775000860750008F7
:10447400737500088A750008A1750008EE750008B8
:104484001E7600084E760008767600089E760008B0
:10449400C6760008EE760008187700083177000821
:1044A4000A2382B207A95448FEF728FE1320FFF717
:1044B40077FC524900F03F0207A801F0DBFA07A895
:1044C400FBF7AEFE0A2382B207A94B48FEF716FE9D
:1044D4001420FFF765FC4A4900F03F0207A801F0E9
:1044E400C9FA07A8FBF79CFE0A2382B207A942482F
:1044F400FEF704FE1520FFF753FC424900F03F028B
:1045040007A801F0B7FA07A8FBF78AFE0A2382B2CC
:1045140007A93948FEF7F2FD1620FFF741FC3A4996
:1045240000F03F0207A801F0A5FA07A8FBF778FE00
:1045340007A982B20A233048FEF7E0FD1C20FFF7EA
:104544002FFCC0F340130393C0F300130293C0F392
:10455400C0030193C0F3800300F0010200932B49D0
:10456400C0F3400307A801F085FA07A8FBF758FE3B
:1045740007A982B20A232048FEF7C0FD1D20FFF7D9
:104584000FFC42074CBF22492249044607A801F008
:1045940095FA07A8FBF744FE07A90A2382B2164836
:1045A400FEF7ACFDA3074CBF1B491C4907A801F04B
:1045B40085FA07A8FBF734FE0A2382B207A90E483E
:1045C400FEF79CFD164907A801F078FA07A8FBF747
:1045D40027FE0A2382B207A90748FEF78FFD20B001
:1045E40010BD1049D1E5012C01D10F4958E6022C28
:1045F4000CBF0E490E4953E60C0100204A7700080F
:10460400637700087C77000895770008AE77000888
:10461400F87700080E780008257800083F7800082D
:104624003C740008A6740008B5750008C975000834
:10463400DC75000882B073B506460D46144606A91B
:10464400582241F8043F5F4801F084F95E4B1E6034
:104654005E4B1D805E4B02AD1C80FFF76DFB00209E
:10466400FFF790FB0520FCF7A9F808210020FFF7CD
:10467400D5FB3F210120FFF7D1FB03210220FFF7E7
:10468400CDFB0321E7240846FFF7C8FB03210420E0
:10469400FFF7C4FB02210520FFF7C0FB0F21062012
:1046A400FFF7BCFB0E210720FFF7B8FB0021082011
:1046B400FFF7B4FB00210920FFF7B0FB05F8084D14
:1046C400294605220A208DF804408DF803408DF810
:1046D40002408DF80140FFF7B9FBC22305222946A9
:1046E4000B208DF804308DF803308DF802308DF8EE
:1046F40001308DF80030FFF7A9FBC3210C20FFF730
:104704008DFBC4210D20FFF789FBC5210E20FFF787
:1047140085FBC6210F20FFF781FB052229461020C7
:104724008DF804408DF803408DF802408DF8014067
:104734008DF80040FFF78AFB00211120FFF76EFB84
:1047440000211220FFF76AFB00211320FFF766FB0C
:1047540000211420FFF762FB00211520FFF75EFB08
:1047640000211620FFF75AFBFFF7DEFC00211C2076
:10477400FFF754FB00211D20FFF750FBFFF7ECFC73
:10478400FF210420FFF74AFB0320FFF7E8FB012089
:10479400FFF702FC0220FFF71AFCFFF7CBFB2022F5
:1047A4000C4B1A70FFF784FC4C20FFF7B9FBFFF7A2
:1047B40087FBFFF789FBFFF71DFC02B0BDE87040E3
:1047C40002B07047B4000020B0000020AC0000200C
:1047D400AA0000204C01002084B030B503AC84E86A
:1047E4000F00084C03AD0FCD0FC40FCD0FC40FCD78
:1047F4000FC495E80F0084E80F00BDE8304004B012
:10480400704700BF0C01002070B51C4C96B0211DF0
:104814005422684601F09EF823686C46184E102214
:104824000221184806F11005FFF704FF0FCD0FC44D
:104834000FCD0FC495E80F0084E80F0096E80F0031
:10484400FFF7CAFF0020FFF784FB3420FFF768FB63
:1048540020220D4B1A70FFF73EFB0C4BD3E90001ED
:10486400FFF744FB0120FFF7B2FB6420FBF7A6FF30
:1048740016B0BDE87040FFF76FBC00BF18080020F9
:10488400FC050020000801404C0100201800002015
:1048940008B501224FF480710448FCF789FC052017
:1048A400FBF78CFFBDE8084000F0ECBC000C0140B5
:1048B40070B58AB0274B284A284903A8012401F07F
:1048C400D9F8402500F0D6FC002101940846009553
:1048D4008023234A00F0D4FA00212B468022084684
:1048E400009400F005FC00F0A3FC4FF4FA60FBF721
:1048F40065FF00F0BFFC0A211A4E084600F000FBD9
:1049040022463146184800F04DFB16210A2000F0DB
:10491400F7FA22463146154800F044FB22210A20CA
:1049240000F0EEFA2246314603A800F03BFB0021DA
:104934002B4608468022009400F0DAFB00F078FC55
:104944004FF47A70FBF73AFF00F094FC00F070FC2F
:104954000AB070BDD37C0008DF7C0008E37C00084B
:104964005A78000808000020EA7C0008F87C000857
:104974002DE9F04F04464FF00A0887B09DF84050E7
:10498400DFF8F8A000201E461746DFF8F4908B46A7
:1049940000F046FA0521032000F0B2FA2A465146F7
:1049A40002A801F067F84946012202A800F0FAFAC9
:1049B400A4F57A7292FBF8F201240823D2B200948F
:1049C4000521142000F0D5FB1421032000F098FAEF
:1049D4002A195146D2B202A801F04CF8224649469F
:1049E40002A800F0DFFAABF57A72142192FBF8F218
:1049F4000823D2B20846009400F0BBFB2221032016
:104A040000F07EFAAA1C5146D2B202A801F032F894
:104A14002246494602A800F0C5FAA7F57A7292FB2D
:104A2400F8F20823D2B200942221142000F0A1FB52
:104A34003021032000F064FAEA1C5146D2B202A8E5
:104A440001F018F82246494602A800F0ABFAA6F590
:104A54007A7292FBF8F200940823D2B23021142027
:104A640000F087FB0021402380220846009400F0D8
:104A74003FFB00F0DDFB07B0BDE8F08F5A7C000877
:104A84000800002030B504468BB000200D4600F02D
:104A9400C7F92246134903A800F0ECFF0A21124C7F
:104AA400084600F02DFA2146012203A800F07AFA04
:104AB4002A460E4903A800F0DDFF16210A2000F063
:104AC4001FFA2146012203A800F06CFA00210123F9
:104AD400802200930846402300F00AFB00F0A8FB64
:104AE4000BB030BDB87C000808000020C67C00086C
:104AF40030B505468BB0002000F092F92A682249AF
:104B040003A800F0B7FF0A21204C084600F0F8F98A
:104B14002146012203A800F045FA2A7B1C4903A878
:104B240000F0A8FF16210A2000F0EAF9214601222C
:104B340003A800F037FA6A7B164903A800F09AFF2D
:104B440022210A2000F0DCF92146012203A800F00A
:104B540029FAAA68104903A800F08CFF2E210A2024
:104B640000F0CEF92146012203A800F01BFA00212F
:104B74000123802200930846402300F0B9FA00F094
:104B840057FB0BB030BD00BF057D000808000020B6
:104B9400147D0008227D0008307D000870B50646AB
:104BA4008AB000200D4600F03BF92B4903A800F021
:104BB40085FF0A21294C084600F0A2F9214601226A
:104BC40003A800F0EFF93246254903A800F052FF8C
:104BD40016210A2000F094F92146012203A800F0CE
:104BE400E1F932461F4903A800F044FF1E4E22217A
:104BF4000A2000F085F90122214603A800F0D2F929
:104C0400314603A800F05AFF2E210A2000F078F95B
:104C14000122214603A800F0C5F9314603A800F09B
:104C24004DFF05EB4505114903A800F047FFA90016
:104C3400552000F065F92146012203A800F0B2F9DD
:104C440000210123802200930846402300F050FAFB
:104C540000F0EEFA0AB070BD7A7C0008080000206B
:104C64008B7C00089A7C0008AA7C0008B67C0008AB
:104C740030B58BB0174B184A184903A800F0FAFE58
:104C8400012400F0F7FA0021402380220846009412
:104C940000F02EFA0A21124D084600F031F922469E
:104CA4002946104800F07EF916210A2000F028F960
:104CB400224629460C4800F075F922210A2000F00A
:104CC4001FF92246294603A800F06CF900F0B0FA57
:104CD4000BB030BDD37C0008DF7C0008E37C000807
:104CE40008000020607C0008767C00084FF47A738A
:104CF400401A5843521A90FBF2F0184480B298427A
:104D040038BF1846B0F5FA6F28BF4FF4FA60704701
:104D140010B1024B83F85800704700BFCA08002046
:104D24002DE9F8433A4C054694F85830012B23D129
:104D34008089B4F84620B4F84410FFF7D7FF40F652
:104D4400B836301A20806889B4F84220B4F840108C
:104D5400FFF7CCFF6080E889B4F84A20B4F8481023
:104D6400FFF7C4FF301AA080288AB4F84E20B4F8A4
:104D74004C10FFF7BBFFE080288840F63E6200211C
:104D8400FFF7B4FF2081688840F64C620021FFF7EA
:104D9400ADFF6081A8884FF47A620021FFF7A6FF77
:104DA400A081E8884FF47A620021FFF79FFFE08139
:104DB400688A4FF47A620021FFF798FF2082A88A5C
:104DC4004FF47A620021FFF791FFA082114CDFF8C3
:104DD4004890DFF8488004F108066088FBF7E2FA9F
:104DE4004946FBF733FB074634F8140CFBF7DAFAB1
:104DF4004146FBF72BFB01463846FBF71FFAFBF74E
:104E040075FC24F8020FA642E7D1BDE8F88300BF81
:104E1400CA080020DE0800203333733FCDCC4C3D5C
:104E240000284FF4806214BFFF210021014800F0E4
:104E34009CBD00BF760100207F2810B51AD83F29F9
:104E440018D80D4B1B7913B1B2FA82F25209CC086F
:104E5400012A0A4B01F0070100EBC41004D18A4077
:104E6400195C0A431A5410BD01228A40195C21EAD4
:104E74000201195410BD00BF70010020760100200A
:104E84002DE9F04F87B09846BDF9403000250293D4
:104E94000823934608F1070292FBF3F282468946FF
:104EA4002E462C4601929DF844200492029932B277
:104EB400914222DD06EB090292B20027039215E02B
:104EC400B8B2410705BF92FBF3F20BEB0501640096
:104ED4008C5C18BFE4B2220607D55044049A0399A7
:104EE40080B20593FFF7A8FF059B01373AB242450C
:104EF400E6DB019A01361544D8E707B0BDE8F08F28
:104F0400014B188059807047700100202DE9F04F43
:104F1400234D93462E880A7885B032447F2A8246F0
:104F24000C4639DC6B884A7801931A443F2A33DCF7
:104F34000027A0F1200303936278974206D32278D6
:104F440016442E80504605B0BDE8F08F4FF000089F
:104F5400039B616802FB037231F812300293019BD8
:104F640003EB07091FFA89F92278904501D3013729
:104F7400E2E7029B06EB080003FA08F212F4004F82
:104F84000ABFBBFA8BF25A465209494680B2FFF770
:104F940053FF08F10108E7E74FF0000AD2E700BF2A
:104FA4007001002070B50D461646441E637843B167
:104FB400184632462946FFF7A9FF14F8013F9842E4
:104FC400F4D0184670BD7F2828BF7F207F2A28BFD1
:104FD4007F223F2928BF3F213F2B28BF3F232DE9B4
:104FE400F04F85B09DF838409042019491460446B4
:104FF4000D461E4611D2A2EB000A8B420FFA8AFA22
:1050040071D84C45A5EB06073FB22CBF4FF0FF3BD0
:105014004FF0010B4FF0FF330AE0A0EB020A8B4282
:105024000FFA8AFAEDD94FF0FF3B5F1A3FB2012322
:105034004FF002085745A5BF97FBF8F8C8F10008E0
:105044009AFBF8F80FFA88F8BAF1000F16D1AE42BD
:105054003EBF2B4635461E464C4528BF4C46A4B29F
:105064002DB2B54202DD05B0BDE8F08FADB22946E0
:10507400019A2046FFF7E0FE0135F1E7FFB1CAF1DE
:1050840000020292019A294620460393FFF7D4FEB8
:105094004C45039B01D1B542E5D0029A9045C1BF6E
:1050A400A8EB07025C4412B2A4B2D8BF4246B8458A
:1050B40003DA52441D4412B2ADB29046E2E7B5425F
:1050C40028BF35464C45ADB202D923464C469946D5
:1050D40024B24C45C7DCA4B22046019A2946FFF706
:1050E400ABFE0134F4E75F1A3FB24FF0010B9EE7C9
:1050F4002DE9F3417F2807460E461D469DF8208082
:1051040034D83F2932D883187F2BC8BFC0F180021E
:1051140001EB0503C8BF92B23F2BC4BFC1F14005E8
:10512400ADB2024494B23544ADB20B462246CDF83A
:105134000080FFF748FF2B46224629463846CDF823
:105144000080FFF740FF2B463A4631463846CDF8FB
:105154000080FFF738FF2B46224631462046CDF823
:10516400208002B0BDE8F041FFF72DBF02B0BDE8DA
:10517400F0812DE9F7437F2806460F461D469DF82A
:1051840028801AD83F2918D84FF0000983187F2B9C
:10519400C8BFC0F1800201EB0503C8BF92B23F2B28
:1051A400C8BFC1F140050244C8BFADB294B25FFAB2
:1051B40089F39D4209F1010902D203B0BDE8F083ED
:1051C4003B449BB2CDF80080224619463046FFF797
:1051D400FAFEECE730B5C3B08DF8081000214C1C82
:1051E400C9B299420AD30A220133009201469BB202
:1051F40002AA0548FCF72CFA43B030BD02AD0D44B9
:10520400515C69702146EAE73C0600201FB50A2379
:105214008DF80C108DF80D2000930146022303AA8B
:105224000248FCF715FA05B05DF804FB3C060020C3
:1052340038B500240E4DA4F15002D2B200217820DA
:10524400FFF7E4FF002278201146FFF7DFFF10226A
:1052540000217820FFF7DAFF05EBC41280234021F8
:1052640078200134FFF7B6FF082CE4D138BD00BF25
:105274007601002008B50020FFF7D2FDBDE8084004
:10528400FFF7D6BF10B544F62063012278215248B7
:10529400FCF78EFD0446002840F09C800146AE22B7
:1052A4007820FFF7B3FF214620227820FFF7AEFFD6
:1052B400214610227820FFF7A9FF2146B02278204A
:1052C400FFF7A4FF2146C8227820FFF79FFF22465C
:1052D40021467820FFF79AFF214610227820FFF715
:1052E40095FF214640227820FFF790FF2146812236
:1052F4007820FFF78BFF2146FF227820FFF786FFF7
:105304002146A1227820FFF781FF2146A62278209A
:10531400FFF77CFF2146A8227820FFF777FF21467C
:105324003F227820FFF772FF2146A4227820FFF75E
:105334006DFF2146D3227820FFF768FF22462146DD
:105344007820FFF763FF2146D5227820FFF75EFF20
:105354002146F0227820FFF759FF2146D9227820F0
:10536400FFF754FF214622227820FFF74FFF214602
:10537400DA227820FFF74AFF214612227820FFF72D
:1053840045FF2146DB227820FFF740FF21462022FB
:105394007820FFF73BFF21468D227820FFF736FF68
:1053A400214614227820FFF731FF2146AF227820CE
:1053B400FFF72CFF2E2221467820FFF727FF2046F7
:1053C400FFF72EFDFFF734FF0120044B58711C80BA
:1053D4005C8010BD002010BD3C0600207001002040
:1053E4000E4B82B09A6942F001029A619A6902F006
:1053F40001020092009ADA6942F08052DA61DB69B4
:10540400074A03F080530193019B536823F0E06340
:1054140043F00073536002B0704700BF00100240B5
:1054240000000140102230B5054689B00DEB0200A2
:10543400002100F09AFA2A682C4B9A4254D103F5C1
:105444006C439A69032442F400729A619A6904A92C
:1054540002F400720092009A9A69254842F0100200
:105464009A619A6902F010020192019A9A6942F0D3
:1054740004029A619A6902F004020292029A9A69F9
:1054840042F008029A619B69059403F008030393B0
:10549400039B3F230493FBF799FDE12304A91548DB
:1054A40004930594FBF792FD0123134804A9049384
:1054B4000594FBF78BFD8022104C114BE2604FF4F6
:1054C400807222614FF48062236062610023202293
:1054D40020466360A360A261E361FBF71DFC08B191
:1054E400FEF728FC2C62656209B030BD002401403F
:1054F4000010014000080140000C01404407002056
:105504000800024010B504468AB01022002106A803
:1055140000F02BFA2368264A934227D1254C06A98A
:10552400E369254843F48003E361E36903F48003FA
:105534000193019BA36943F00803A361A36903F0EA
:1055440008030293029BC0230693122307930323A9
:105554000993FBF73BFDE36943F40013E361E3695B
:1055640003F400130393039B0AB010BD134A934240
:10557400FAD1104C06A9A3690F4843F00803A361AC
:10558400A36903F008030493049B4FF44063069358
:105594001223079303230993FBF718FDE36943F4EC
:1055A4008003E361E36903F480030593059BDBE770
:1055B4000054004000100240000C0140005800401C
:1055C40030B51024054687B02246002102A800F019
:1055D400CCF92A68184B9A422CD103F560439A6996
:1055E40002A942F480529A619A69144802F48052E2
:1055F4000092009A9A6942F008029A619B6903F04A
:1056040008030193019B282302930223039303239A
:105614000593FBF7DBFC002302A9084803930493DA
:105624000294FBF7D3FC064A536843F0E06343F06B
:105634000103536007B030BD00300140000C01404D
:105644000000014010B5044686B01022002102A8D3
:1056540000F08BF92268114B9A421CD103F5644384
:105664009A6902A942F400629A619A690C4802F4A8
:1056740000620092009A9A6942F004029A619B695E
:1056840003F004030193019B4FF44073029301233D
:105694000493FBF79BFC06B010BD00BF002C014037
:1056A4000008014007B50D4B02689A4212D103F578
:1056B4000033DA69362042F01002DA610022DB6935
:1056C400114603F010030193019BFBF7CDFA36203A
:1056D400FBF7FEFA03B05DF804FB00BF00100040C6
:1056E400102210B5044688B00DEB0200002100F032
:1056F4003CF923682F4A934227D12F4B04A9DA6936
:105704002E4842F40032DA61DA6902F4003200927F
:10571400009A9A6942F004029A619B6903F00403B7
:105724000193019B0423049302230593032307930A
:10573400FBF74CFC08230493002304A91F4805939A
:105744000693FBF743FC08B010BD1D4A9342FAD1FF
:10575400194B04A9DA691B4842F48022DA61DA6938
:1057640002F480220292029A9A6942F010029A612B
:105774009B6903F010030393039B4FF4806304932A
:105784000223059303230793FBF720FC4FF40063E4
:105794000493002304A90B4805930693FBF716FC16
:1057A400094A536823F0300343F0E06343F01003E5
:1057B4005360C8E700440040001002400008014064
:1057C4000048004000100140000001407047FEE71F
:1057D400FEE7FEE7FEE7704770477047FAF7DCBF65
:1057E4000148FBF717BB00BF440700204FF480605B
:1057F400FBF7ECBC0148FDF745BA00BF8807002061
:1058040070B50E4615460C46A31B9D4201DC284686
:1058140070BDAFF3008004F8010BF5E708B50A4B3F
:105824000246196809B909491960694618680244A9
:105834008A4206D900F064F80C2303604FF0FF306D
:1058440008BD1A6008BD00BF7805002028090020A3
:105854004FF0FF3070474FF4005300204B60704707
:1058640001207047002070470F4B1A6842F0010274
:105874001A6059680D4A0A405A601A6822F0847204
:1058840022F480321A601A6822F480221A605A685C
:1058940022F4FE025A604FF41F029A604FF0006235
:1058A400034B9A60704700BF001002400000FFF8ED
:1058B40000ED00E0002103E00B4B5B584350043142
:1058C4000A480B4B42189A42F6D30A4A02E00023D4
:1058D40042F8043B084B9A42F9D3FFF7C5FF00F0A6
:1058E40015F8FDF785FF7047F87D000800000020DB
:1058F400880000208800002028090020FEE700001E
:10590400014B1868704700BF2400002070B50025C3
:105914000C4E0D4CA41BA410A54209D101F05CF956
:1059240000250A4E0A4CA41BA410A54205D170BD43
:1059340056F8253098470135EEE756F82530984754
:105944000135F2E7F07D0008F07D0008F07D0008E5
:10595400F47D000810B5431E0A44914200D110BDE5
:1059640011F8014B03F8014FF7E703460244934251
:1059740000D1704703F8011BF9E700000FB40A4B8C
:1059840013B51C6824B1A36913B9204600F050FA7A
:1059940005AB049AA1682046019300F059FD02B0BA
:1059A400BDE8104004B070472400002070B50E46D6
:1059B400054618B183690BB900F03AFAAB69AC68D3
:1059C40013B9284600F034FA234B9C4217D16C6873
:1059D400A3891B071DD52369DBB1013EA36816F813
:1059E400011F013BA360E9B9002B2EDA22460A21EC
:1059F400284600F06BF8013011D00A2070BD174B17
:105A04009C4201D1AC68E3E7154B9C4208BFEC68AB
:105A1400DEE72146284600F0ABF80028DDD04FF041
:105A2400FF3070BD002B04DAA269934206DB0A2919
:105A340004D023685A1C22601970CFE722462846F6
:105A440000F044F80130C9D1E9E70A2023685A1C60
:105A54002260187070BD00BF7C7D00089C7D00082A
:105A64005C7D0008024B01461868FFF79FBF00BF2A
:105A7400240000200EB44FF4027100B59CB0ADF8C0
:105A840014106FF00041049107914FF6FF711DABA4
:105A940002900690084853F8042BADF816100068DD
:105AA40002A9019300F0B8FB0022029B1A701CB0FB
:105AB4005DF804EB03B0704724000020034611F89E
:105AC400012B03F8012B002AF9D17047F8B50E46D3
