:020000040800F2
:1000000000C00020FD5700081557000817570008CA
:10001000195700081B5700081D5700080000000072
:100020000000000000000000000000001F57000852
:10003000215700080000000023570008255700083A
:10004000455800084558000845580008455800081C
:10005000455800084558000845580008455800080C
:100060004558000845580008455800082957000819
:1000700045580008455800084558000845580008EC
:1000800045580008455800084558000845580008DC
:1000900045580008455800084558000845580008CC
:1000A00045580008455800084558000845580008BC
:1000B00045580008455800084558000845580008AC
:1000C000455800084558000845580008455800089C
:1000D000455800084558000845580008455800088C
:1000E000355700084558000845580008455800088D
:1000F000455800084558000845580008455800086C
:10010000455800084558000845580008455800085B
:1001100045580008455800083D5700084558000854
:10012000455800084558000845580008455800083B
:1001300000000000000000000000000000000000BF
:1001400000000000000000000000000000000000AF
:10015000000000000000000000000000000000009F
:10016000000000000000000000000000000000008F
:10017000000000000000000000000000000000007F
:10018000000000000000000000000000000000006F
:10019000000000000000000000000000000000005F
:1001A000000000000000000000000000000000004F
:1001B000000000000000000000000000000000003F
:1001C000000000000000000000000000000000002F
:1001D000000000000000000000000000000000001F
:0401E0005FF8E0F1F3
:1001E80010B5054C237833B9044B13B10448AFF369
:1001F80000800123237010BD88000020000000004B
:10020800206B000808B5034B1BB103490348AFF343
:10021800008008BD000000008C000020206B000852
:10022800034613F8012B002AFBD1181A013870472E
:1002380081F0004102E000BF83F0004330B54FEA8F
:1002480041044FEA430594EA050F08BF90EA020FFC
:100258001FBF54EA000C55EA020C7FEA645C7FEA8F
:10026800655C00F0E2804FEA5454D4EB5555B8BFB2
:100278006D420CDD2C4480EA020281EA030382EA23
:10028800000083EA010180EA020281EA0303362DB5
:1002980088BF30BD11F0004F4FEA01314FF4801C88
:1002A8004CEA113102D0404261EB410113F0004F9A
:1002B8004FEA03334CEA133302D0524263EB430351
:1002C80094EA050F00F0A780A4F10104D5F1200EEF
:1002D8000DDB02FA0EFC22FA05F2801841F100014A
:1002E80003FA0EF2801843FA05F359410EE0A5F11E
:1002F80020050EF1200E012A03FA0EFC28BF4CF04F
:10030800020C43FA05F3C01851EBE37101F0004504
:1003180007D54FF0000EDCF1000C7EEB00006EEB11
:100328000101B1F5801F1BD3B1F5001F0CD349089B
:100338005FEA30004FEA3C0C04F101044FEA4452F2
:1003480012F5800F80F09A80BCF1004F08BF5FEA79
:10035800500C50F1000041EB045141EA050130BD59
:100368005FEA4C0C404141EB010111F4801FA4F1FC
:100378000104E9D191F0000F04BF01460020B1FA51
:1003880081F308BF2033A3F10B03B3F120020CDA89
:100398000C3208DD02F1140CC2F10C0201FA0CF067
:1003A80021FA02F10CE002F11402D8BFC2F1200CCC
:1003B80001FA02F120FA0CFCDCBF41EA0C01904082
:1003C800E41AA2BF01EB0451294330BD6FEA0404CB
:1003D8001F3C1CDA0C340EDC04F11404C4F12002B6
:1003E80020FA04F001FA02F340EA030021FA04F3C8
:1003F80045EA030130BDC4F10C04C4F1200220FA1F
:1004080002F001FA04F340EA0300294630BD21FA5C
:1004180004F0294630BD94F0000F83F4801306BF22
:1004280081F480110134013D4EE77FEA645C18BF16
:100438007FEA655C29D094EA050F08BF90EA020FAD
:1004480005D054EA000C04BF1946104630BD91EAA5
:10045800030F1EBF0021002030BD5FEA545C05D1A8
:100468004000494128BF41F0004130BD14F58004E7
:100478003CBF01F5801130BD01F0004545F0FE415B
:1004880041F470014FF0000030BD7FEA645C1ABF90
:10049800194610467FEA655C1CBF0B46024650EAC7
:1004A800013406BF52EA033591EA030F41F40021F3
:1004B80030BD00BF90F0000F04BF0021704730B579
:1004C8004FF4806404F132044FF000054FF000014E
:1004D80050E700BF90F0000F04BF0021704730B50F
:1004E8004FF4806404F1320410F0004548BF4042E4
:1004F8004FF000013EE700BF42004FEAE2014FEA39
:1005080031014FEA02701FBF12F07F4393F07F4F13
:1005180081F06051704792F0000F14BF93F07F4F45
:10052800704730B54FF4607401F0004521F0004188
:1005380020E700BF50EA010208BF704730B54FF00E
:1005480000050AE050EA010208BF704730B511F013
:10055800004502D5404261EB41014FF4806404F14B
:1005680032045FEA915C3FF4DCAE4FF003025FEACD
:10057800DC0C18BF03325FEADC0C18BF033202EB55
:10058800DC02C2F1200300FA03FC20FA02F001FAAF
:1005980003FE40EA0E0021FA02F11444C1E600BF4E
:1005A80070B54FF0FF0C4CF4E06C1CEA11541DBF01
:1005B8001CEA135594EA0C0F95EA0C0F00F0DEF8CC
:1005C8002C4481EA030621EA4C5123EA4C5350EAB1
:1005D800013518BF52EA033541F4801143F4801302
:1005E80038D0A0FB02CE4FF00005E1FB02E506F093
:1005F8000042E0FB03E54FF00006E1FB03569CF0E8
:10060800000F18BF4EF0010EA4F1FF04B6F5007FED
:1006180064F5407404D25FEA4E0E6D4146EB06065F
:1006280042EAC62141EA55514FEAC52040EA5E50E8
:100638004FEACE2EB4F1FD0C88BFBCF5E06F1ED892
:10064800BEF1004F08BF5FEA500E50F1000041EBC9
:10065800045170BD06F0004646EA010140EA020076
:1006680081EA0301B4EB5C04C2BFD4EB0C0541EA98
:10067800045170BD41F480114FF0000E013C00F3AD
:10068800AB8014F1360FDEBF002001F0004170BDD1
:10069800C4F10004203C35DA0C341BDC04F11404EA
:1006A800C4F1200500FA05F320FA04F001FA05F276
:1006B80040EA020001F0004221F0004110EBD37043
:1006C80021FA04F642EB06015EEA430E08BF20EA6F
:1006D800D37070BDC4F10C04C4F1200500FA04F312
:1006E80020FA05F001FA04F240EA020001F00041A4
:1006F80010EBD37041F100015EEA430E08BF20EA17
:10070800D37070BDC4F1200500FA05F24EEA020E5E
:1007180020FA04F301FA05F243EA020321FA04F08D
:1007280001F0004121FA04F220EA020000EBD37044
:100738005EEA430E08BF20EAD37070BD94F0000F44
:100748000FD101F00046400041EB010111F4801F78
:1007580008BF013CF7D041EA060195F0000F18BF29
:10076800704703F00046520043EB030313F4801F65
:1007780008BF013DF7D043EA0603704794EA0C0F1F
:100788000CEA135518BF95EA0C0F0CD050EA410635
:1007980018BF52EA4306D1D181EA030101F00041B2
:1007A8004FF0000070BD50EA410606BF10461946DA
:1007B80052EA430619D094EA0C0F02D150EA0136E6
:1007C80013D195EA0C0F05D152EA03361CBF104627
:1007D80019460AD181EA030101F0004141F0FE41C6
:1007E80041F470014FF0000070BD41F0FE4141F44A
:1007F800780170BD70B54FF0FF0C4CF4E06C1CEA4A
:1008080011541DBF1CEA135594EA0C0F95EA0C0FFE
:1008180000F0A7F8A4EB050481EA030E52EA0335B9
:100828004FEA013100F088804FEA03334FF08055DA
:1008380045EA131343EA12634FEA022245EA111507
:1008480045EA10654FEA00260EF000419D4208BFB8
:10085800964244F1FD0404F5407402D25B084FEA65
:100868003202B61A65EB03055B084FEA32024FF411
:1008780080104FF4002CB6EB020E75EB030E22BF6E
:10088800B61A754640EA0C005B084FEA3202B6EB2E
:10089800020E75EB030E22BFB61A754640EA5C00DD
:1008A8005B084FEA3202B6EB020E75EB030E22BF6D
:1008B800B61A754640EA9C005B084FEA3202B6EB6E
:1008C800020E75EB030E22BFB61A754640EADC002D
:1008D80055EA060E18D04FEA051545EA16754FEA8F
:1008E80006164FEAC30343EA52734FEAC2025FEAAD
:1008F8001C1CC0D111F4801F0BD141EA00014FF03C
:1009080000004FF0004CB6E711F4801F04BF01430C
:100918000020B4F1FD0C88BFBCF5E06F3FF6AFAE28
:10092800B5EB030C04BFB6EB020C5FEA500C50F1B8
:10093800000041EB045170BD0EF0004E4EEA11313B
:1009480014EB5C04C2BFD4EB0C0541EA045170BD42
:1009580041F480114FF0000E013C90E645EA060E86
:100968008DE60CEA135594EA0C0F08BF95EA0C0FB4
:100978003FF43BAF94EA0C0F0AD150EA01347FF4FC
:1009880034AF95EA0C0F7FF425AF104619462CE7D3
:1009980095EA0C0F06D152EA03353FF4FDAE104636
:1009A800194622E750EA410618BF52EA43067FF487
:1009B800C5AE50EA41047FF40DAF52EA43057FF417
:1009C800EBAE12E74A0011D212F5001211D20DD582
:1009D8006FF47873B3EB62520ED44FEAC12343F03D
:1009E800004343EA505323FA02F070474FF00000E7
:1009F800704750EA013002D14FF0FF3070474FF096
:100A08000000704738B50E4B054618784FF47A73D6
:100A1800B3FBF0F30B4A1068B0FBF3F000F0D2FA26
:100A2800044658B90F2D09D8024629464FF0FF3021
:100A380000F086FA044B20461D6038BD012038BD01
:100A4800000000202000002004000020074A08B50C
:100A58001368032043F01003136000F05FFA0020CE
:100A6800FFF7D0FF04F05CFC002008BD0020024026
:100A7800034A044B11681B780B441360704700BF8E
:100A88006405002000000020014B1868704700BF73
:100A98006405002038B50446FFF7F6FF0546631CD9
:100AA8001EBF044B1B78E418FFF7EEFF401B84427F
:100AB800FAD838BD000000207047436A10B59A6A1A
:100AC80012F0500F1BD19A6A42F400729A621A68A7
:100AD800926802F46022B2F5602F0CD11A7B52B9E9
:100AE8009A6A22F480729A629A6AD2045EBF9A6AFB
:100AF80042F001029A621846FFF7DEFF10BD1B6A3A
:100B0800BDE810401B6B1847704708B5406AFFF7EF
:100B1800FBFF08BD7047406A08B5836A43F040038D
:100B28008362C36A43F00403C362FFF7F3FF08BD9F
:100B3800002373B5019390F82430012B74D001235E
:100B48004D6880F82430062D02684FEA85030C684A
:100B580025D82B441F25566B053B9D4026EA0505E5
:100B680004FA03F32B435363092C4FEA44038D68BB
:100B78002FD907262344D1681E3B9E4021EA06014F
:100B880005FA03F30B43D360A4F11003012B2BD90F
:100B98000023002280F82420184602B070BD0C2DD6
:100BA8000BD82B441F25166B233B9D4026EA0505D1
:100BB80004FA03F32B431363D6E72B441F25D66AA5
:100BC800413B9D4026EA050504FA03F32B43D36213
:100BD800CAE70726116923449E4021EA060105FA5F
:100BE80003F30B431361CFE7104B9A4216D1936876
:100BF8001B02CDD49368102C43F400039360C7D133
:100C08000B4B0C4A1B68B3FBF2F20A2353430193C4
:100C1800019B002BBCD0019B013BF8E7836A43F0A2
:100C2800200383620123B4E70223B5E700240140CF
:100C38002000002040420F00002373B50193036891
:100C480004469A68D20702D5002002B070BD9A689F
:100C580042F001029A60124B124A1B68B3FBF2F38E
:100C68000193019BC3B9FFF70FFF064623689D68F0
:100C780015F00105E8D1FFF707FF801B0228F5D919
:100C8800A36A84F8245043F01003A362E36A0120A6
:100C980043F00103E362D8E7019B013BE0E700BFB3
:100CA8002000002040420F002DE9D8419046404BDB
:100CB800026804469A420F4602D03E498A4203D14E
:100CC8005B6813F4702F6ED194F82430012B6CD02C
:100CD8000123204684F82430FFF7AEFF064600289B
:100CE8005DD1A06A216820F47060324B20F00100C9
:100CF80040F480709942A06204D12D4A536813F4DD
:100D0800702F3ED1A36A23F48013A3624B685A055F
:100D180005D5A36A23F4405343F48053A362A36A1E
:100D2800206A13F4805318BFE36A3A4618BF23F0C9
:100D38000603E362002384F824301F4B4C3183629E
:100D48001E4BC3621E4B03636FF0020341F84C3C19
:100D580051F8443C43F4807341F8443C434600F066
:100D680087F923689A6802F46022B2F5602F9A68BE
:100D78000CBF42F4A00242F480129A603046BDE8EB
:100D8800D881A36A43F48013A36253685B0541BF0B
:100D9800A06A20F4405040F48050A062BFE70023CE
:100DA80084F82430EAE70126E8E70226E6E700BFF0
:100DB8000024014000280140C30A0008130B000862
:100DC8001F0B000838B5036804469A68D20701D497
:100DD800002038BD9A6822F001029A60FFF754FE9D
:100DE800054623689B68DB07F2D5FFF74DFE401BDD
:100DF8000228F6D9A36A012043F01003A362E36A2C
:100E080043F00103E36238BDF8B50446002877D003
:100E1800836A23B9C36280F8243004F0A3FA204619
:100E2800FFF7D0FFA36A13F010036BD1002869D134
:100E3800A26A374922F4885222F0020242F00202E2
:100E4800A26294E824008A42E16904D1B1F5402FF6
:100E580008BF4FF40021267B45EA46052943A568CB
:100E6800B5F5807F35D0012D08BF4FF48073277DFD
:100E7800012F06D17EBBA669013E43EA463343F4FF
:100E880000635668B5F5807F26F4694643EA060391
:100E9800536096681F4B03EA060343EA0103936015
:100EA80001D0012D20D12369013B1B05D56A25F40A
:100EB80070052B43D3629268174B1340994215D1A2
:100EC8000023E362A36A23F0030343F00103A36250
:100ED800F8BD2B46CBE7A66A46F02006A662E66A6E
:100EE80046F00106E662CCE70023DFE7A36A23F0B9
:100EF800120343F01003A362E36A43F00103E362C1
:100F08000120F8BDA36A43F01003A362F8E700BF0D
:100F1800003C0140FDF7E1FFFE0E1FFF074A0002FB
:100F2800D36800F4E06023F4E0631B041B0C43F077
:100F3800BF6343F400330343D360704700ED00E020
:100F4800174B30B5DC68C4F30224C4F10703251D30
:100F5800042B28BF0423062D4FF0010598BF002459
:100F680005FA03F303F1FF3388BF033C1940A1409E
:100F780005FA04F4013C2240002842EA01024FEA43
:100F88000212A9BF00F16040064BD2B200F56140E1
:100F9800BBBF00F00F00D2B280F800231A5430BD56
:100FA80000ED00E014ED00E0002808DB0123420911
:100FB80000F01F0003FA00F0014B43F822007047CD
:100FC80000E100E00138B0F1807F0AD2F021064B41
:100FD800064A586082F823100020072298601A6099
:100FE80070470120704700BF10E000E000ED00E00E
:100FF80010B5002832D00168194B1424994225D81D
:10100800184AA3F207430A44B2FBF4F292000264BE
:101018008468C36343680A682343C46822F47F5220
:101028002343046922F0300223434469234384693B
:101038002343C469234313430B600122002380F830
:101048002120836380F82030184610BD064B0B44DE
:10105800B3FBF4F39B000364044BD9E7012010BDF4
:1010680007040240F8FFFDBFF8FBFDBF0004024083
:10107800F0B590F82040012C35D0012490F821508B
:1010880080F82040A5424FF000064FF0020428D116
:1010980080F82140046886632668076C26F00106FC
:1010A8002660C66BBD407560636043680568102B99
:1010B800C36A0BBFA260A160E160E2604BB1236824
:1010C80043F00E0323602B68002043F001032B60DC
:1010D800F0BD236823F004032360236843F00A0368
:1010E800F0E780F820600220F0BD000070B404250D
:1010F800C66B026C3468036895402542196855D060
:101108004D0753D51A6896065EBF1A6822F0040286
:101118001A60604A93421FD902F56272934214D052
:101128001432934213D01432934212D014329342A1
:101138000CBF4FF480434FF48023574A5360C36A6F
:10114800002B00F0A58070BC18470423F5E7402366
:10115800F3E74FF48063F0E750498B4216D014311F
:101168008B4215D014318B4214D014318B4214D0D9
:1011780014318B4214D014318B4214D0934214BFD3
:101188004FF480234FF08063454AD7E70423FBE7F9
:101198004023F9E74FF48063F6E74FF48043F3E721
:1011A8004FF48023F0E74FF48003EDE702259540E4
:1011B800254257D08D0755D51A68940606D41A6863
:1011C80022F00A021A60012280F82120314A934253
:1011D8001ED902F56272934213D01432934212D090
:1011E8001432934211D0143293420CBF4FF400537F
:1011F8004FF40033284A5360002380F82030836A74
:101208009EE70223F6E72023F4E74FF40073F1E7A3
:1012180022498B4216D014318B4215D014318B429F
:1012280014D014318B4214D014318B4214D01431A1
:101238008B4214D0934214BF4FF400334FF0007325
:10124800174AD8E70223FBE72023F9E74FF4007396
:10125800F6E74FF40053F3E74FF40033F0E74FF4A9
:101268000013EDE708259540254211D009070FD551
:10127800196821F00E011960012303FA02F2726065
:10128800836380F82130002380F82030036B57E710
:1012980070BC704780000240000402400800024011
:1012A800000002402DE9F74F002426466C4F6D4B95
:1012B800DFF8B8E1DFF8B8C10A6832FA06F502D1FA
:1012C80003B0BDE8F08F4FF0010808FA06F802EA0B
:1012D8000802904540F084804D68122D00F0B180DE
:1012E80000F28780022D00F0A9807BD8002D00F045
:1012F8008C80012D00F0A0804FF00F09FF2A93BFCA
:10130800824606F18045083DD0F800B092BFB5008E
:10131800D0F804B0AD0009FA05F82BEA080804FA79
:1013280005F588BF00F1040A48EA0505CAF8005027
:10133800D1F804A01AF0805F52D0BD6926F00308E6
:1013480045F00105BD61BD6908F1804805F001055A
:10135800019508F5803806F0030B019D4FEA8B0BC9
:10136800D8F8085009FA0BF925EA09093E4DA842B0
:101378006CD005F58065A8426AD005F58065A8425D
:1013880068D005F58065A84266D005F58065A84255
:1013980064D070450CBF0525062505FA0BF545EA0E
:1013A8000905C8F808501D681AF4803F14BF154392
:1013B80095431D605D681AF4003F14BF15439543BB
:1013C8005D609D681AF4801F14BF154395439D60A6
:1013D800DD681AF4001F14BF2A4325EA0202DA6006
:1013E800013669E7032D25D0112D85D1CC68043449
:1013F80082E7654509D012D8DFF878904D4504D0CA
:1014080009F580394D457FF477AF8C68E4B1012C3C
:101418000CBFC0F81080C0F8148008246CE7DFF80F
:1014280058904D45F1D009F580394D45EDD0A9F5D5
:101438008019E7E700245FE7CC685DE7CC680834EB
:101448005AE7CC680C3457E7042455E70025A4E78D
:101458000125A2E70225A0E703259EE704259CE7CE
:10146800001002400004014000080140001C014037
:101478000000211000001110000031100AB10161B4
:1014880070470904FBE7C3680B4214BF416101615F
:101498007047000008B5044B5969014202D05861F1
:1014A80002F0E2FB08BD00BF000401400168002211
:1014B8004B6913F4806310D06FF480634B61202371
:1014C800026380F83D3080F83E20036C80F83C20B1
:1014D80043F00403036401207047184670472DE960
:1014E800F843044617469946C1F307488EB2256863
:1014F800B8F1010F0CBF6B69AB6936EA030314BF7F
:101508000120002008B9BDE8F8836B695A0516D593
:101518002B68202243F400732B606FF480636B61A7
:101528000023236384F83D2084F83E30226C42F087
:101538000402226484F83C300120BDE8F8837B1C57
:10154800D5D0FFF7A1FAA0EB0900874201D3002FFD
:10155800CDD100232022236384F83D2084F83E3037
:10156800226C42F02002E4E770B504460D461646A8
:1015780023685B695B0701D5002070BD2046FFF733
:1015880095FFA8B96A1CF3D0FFF77EFA801B854245
:1015980001D3002DECD100232022236384F83D20C1
:1015A80084F83E30226C84F83C3042F020022264F9
:1015B800012070BD70B504460D4616462068436983
:1015C80013F0400301D0002070BD4269D2060ED549
:1015D8006FF0100242612022236384F83D2084F8D2
:1015E8003E30226C226484F83C30012070BDFFF745
:1015F8004BFA801BA84201D8002DDFD100232022FE
:10160800236384F83D2084F83E30226C42F02002A7
:10161800E8E72DE9F843044690461F46089EC1F3C3
:1016280007498DB22368B9F1010F0CBF5B699B694B
:1016380035EA03030CBF01230023434502D00020F1
:10164800BDE8F8837B1CEDD0FFF71EFA801B8742AC
:1016580001D3002FE6D100232022236384F83D2004
:1016680084F83E30226C84F83C3042F02002226438
:101678000120BDE8F88370B504460D461646236878
:101688005B691B0601D5002070BD2046FFF70EFFE1
:10169800A8B96A1CF3D0FFF7F7F9801B854201D37C
:1016A800002DECD100232022236384F83D2084F808
:1016B8003E30226C84F83C3042F020022264012043
:1016C80070BD00002DE9FF41154602689846136871
:1016D8000B9E43F4807313600F4600960A9B00220A
:1016E8004FF001110446FFF794FF18B1012004B030
:1016F800BDE8F081236807F0FE071F610A9A3346A8
:1017080016492046FFF7EBFE0028EFD12368039027
:101718005A690A9903929B69324603932046039BB0
:10172800FFF7A9FF40B1236C042B01BF226813689F
:1017380043F400731360D9E7B8F1010F236802D1AD
:10174800EDB21D61D3E72A0A1A610A99324620468A
:10175800FFF791FF0028E6D12368F1E702000100B6
:101768002DE9FF419846036816461A680B9D42F416
:1017780080621A601A680F4642F480721A604FF04D
:10178800011100950A9B00220446FFF742FF18B199
:10179800012004B0BDE8F0812368FFB207F0FE0223
:1017A8001A6129492B460A9A2046FFF798FE002815
:1017B800EED1236803905A690A9903929B692A46D5
:1017C80003932046039BFFF756FF40B1236C042B7D
:1017D80001BF2268136843F400731360D8E7B8F1B7
:1017E800010F236825D1F6B21E612A460A992046C0
:1017F800FFF741FF02460028E8D1216820460B6820
:1018080043F480730B6000950A9B4FF00111FFF7BA
:1018180000FF0028BCD1236847F001071F610A9A1E
:101828002B4609492046FFF75AFE003018BF012011
:10183800AFE7320A1A610A992A462046FFF71BFFCA
:101848000028C3D12368CEE70200010070B5044622
:1018580008B9012070BD90F83D3003F0FF021BB9B4
:1018680080F83C2003F0EEFD2423226884F83D3004
:10187800136823F00103136000F09EFF6568414B75
:101888009D424DD8404B9842E3D940492268B0FB6D
:10189800F1F1536823F03F030B435360136A23F0BD
:1018A8003F03013119431162D169364B21F44F418D
:1018B8009D4221F0FF0100F1FF3048D86D00B0FBD8
:1018C800F5F00130C0F30B03042B38BF04230B439E
:1018D800D3611168206AE36921F0C00103430B4317
:1018E80013609168E068236921F40341034321F000
:1018F800FF010B439360D168A069636921F0FF0180
:1019080003430B43D3601368002043F001031360C3
:101918002023206484F83D30206384F83E0070BDA5
:101928001B4B984295D9194E4FF49671B0FBF6F6B9
:1019380022687143536823F03F0333434FF47A76A8
:101948005360136AB1FBF6F123F03F03A9E7A368DC
:1019580053B905EB4503B0FBF3F0431CC3F30B038A
:101968006BB143F40043B2E719236B43B0FBF3F0C8
:10197800431CC3F30B0313B143F44043A7E701230C
:10198800A5E700BFA08601007F841E0040420F002B
:10199800FF083D002DE9FF4104461F460D469046CD
:1019A800FFF772F894F83D300646202B04D0022544
:1019B800284604B0BDE8F081009019230122584957
:1019C8002046FFF726FE0028F1D194F83C30012B81
:1019D800EDD0012384F83C3023681A68D2075EBF33
:1019E8001A6842F001021A601A6822F400621A604A
:1019F800212284F83D20102284F83E20002222640F
:101A08006785628DC4F824802285464AE262E26ACC
:101A1800082A04D0012A02D012F5803F04D11A689E
:101A280042F480721A6002E0226B122AF7D0009604
:101A38000A9B00224FF001112046FFF7EAFD08B18A
:101A48000125B5E723692268B3F5804F13D105F066
:101A5800FE05156133460A9A33492046FFF73FFDD4
:101A680005460028ECD1236803905A6903929B69C4
:101A78000393039B44E0EB1103F0060343F0F003E8
:101A880013612A4933460A9A2046FFF728FD0028A1
:101A9800D6D12368EDB21D61DCE732460A992046AB
:101AA800FFF7E9FD40B1236C042B01BF22681368DE
:101AB80043F400731360C3E7636A20681A4612F898
:101AC800011B01616262628D013A92B26285228DC8
:101AD8004769511E89B27F0721850AD549B15978CE
:101AE800023301616362638D023A013B9BB26385F5
:101AF800228532460A992046FFF736FD0028D2D1C2
:101B0800238D002BC9D121680A6842F400720A604B
:101B1800202284F83C3084F83D2084F83E3047E7A2
:101B2800020010000000FFFF020001000800010091
:101B38002DE9F043044689B098460F469146109E19
:101B4800FEF7A2FF94F83D300546202B04D002276B
:101B5800384609B0BDE8F0830090192301229C495A
:101B68002046FFF756FD0028F1D194F83C30012BB0
:101B7800EDD0012384F83C3023681A68D0075EBF93
:101B88001A6842F001021A601A6822F400621A60A8
:101B9800222284F83D20102284F83E20002222646C
:101BA800A4F82A80628DC4F824902285894AE262CA
:101BB800E26A1968082A41F48061196004D0012A90
:101BC80002D012F5803F04D11A6842F480721A607C
:101BD80002E0226B112AF7D00095334600224FF01D
:101BE80001112046FFF715FD08B10127B0E7236969
:101BF800B3F5804F236843D147F00107FFB21F6157
:101C08002B46324674492046FFF769FC07460028F0
:101C1800EBD1228D2368002A66D0012A77D11A6871
:101C280022F480621A6072B6236804975A69049293
:101C38009A690492049A1A6842F400721A6062B6A9
:101C4800DFF89C81238D002B58D0032B00F2CA802B
:101C5800012B78D12A4631462046FFF7ABFC0028F5
:101C6800C3D12268636A12691A70636A01336362B6
:101C7800238D013B2385638D013B9BB26385E1E79F
:101C88004FEAE71808F0060848F0F0021A615349CD
:101C98002B4632462046FFF722FC0028A5D12368B0
:101CA800FFB21F6132462B464B492046FFF717FC0F
:101CB8000246002899D12368079059692046079160
:101CC800996907910799196841F48071196000951D
:101CD80033464FF00111FFF79CFC002885D122689C
:101CE80048F0F10313618BE703975A6903929A69E5
:101CF8000392039A1A6842F400721A60202384F847
:101D08003D30002384F83E3084F83C3020E7022A36
:101D18001A680ED142F400621A6072B623680597F9
:101D28005A6905929A690592059A1A6822F480629E
:101D380084E742F480621A6006975A6906929B69A2
:101D48000693069B7CE7022B009533464FF0000272
:101D58004146204619D1FFF75CFC00287FF445AFC7
:101D680072B623681A6842F400721A601B69626AC4
:101D78001370636A01336362238D013B2385638D8E
:101D8800013B9BB2638562B66BE7FFF742FC0246F4
:101D980000287FF42AAF21680B6823F480630B6066
:101DA80072B62168636A096920461970636A0095EA
:101DB80001336362238D4146013B2385638D013BDB
:101DC8009BB263853346FFF724FC0028C9D00CE793
:101DD800020010000000FFFF0200010008000100DF
:101DE800040001002A4631462046FFF7E3FB00289D
:101DF8007FF4FBAE2268636A12691A70626A531C28
:101E08006362238D013B2385638D013B9BB2638510
:101E18002368596949077FF515AF1B69537024E793
:101E28002DE9F743044699460F4690460C9EFEF767
:101E38002BFE94F83D300546202B03D0022003B03A
:101E4800BDE8F0830090192301223B492046FFF7A3
:101E5800E0FB0028F2D194F83C30012BEED00123AE
:101E680084F83C30236820461A68D10758BF1A689E
:101E780039465CBF42F001021A601A6822F4006217
:101E88001A60212384F83D30402384F83E30002333
:101E980023640A9B01956362BDF82C300096638524
:101EA800638D42462385254BE3624B46FFF70AFCC8
:101EB80000282AD00120C2E7FFF7DDFB40B1236CE0
:101EC800042B01BF2268136843F400731360F1E721
:101ED800636A27681A4612F8011B39616262628DCB
:101EE800218D013A92B262857A69481E80B2520702
:101EF80020850AD548B15A7802333A616362638D06
:101F08000239013B9BB221856385238D2A463146E0
:101F18002046002BD0D1FFF727FB0028CFD122681D
:101F2800136843F400731360202384F83C0084F89A
:101F38003D3084F83E0082E7020010000000FFFFF9
:101F48002DE9F043044687B099460D469046109F08
:101F5800FEF79AFD94F83D300646202B04D0022562
:101F6800284607B0BDE8F0830090192301227E4976
:101F78002046FFF74EFB0028F1D194F83C30012BA6
:101F8800EDD0012384F83C30236829461A68D0072D
:101F980058BF1A6820465CBF42F001021A601A68EE
:101FA80022F400621A60222384F83D30402384F82A
:101FB8003E30002323640E9B01966362BDF83C30DB
:101FC80000976385638D42462385684BE3624B46E1
:101FD800FFF7C6FB054608B10125C1E7228D236836
:101FE80092B902905A6902929A690292029A1A6800
:101FF80042F400721A60202384F83D30002384F8EC
:102008003E3084F83C30ABE7012A2FD11A6822F41D
:1020180080621A6072B6236803905A6903929A69BB
:102028000392039A1A6842F400721A6062B6DFF8E3
:102038004081238D002BDED0032B77D8012B31D1A3
:10204800324639462046FFF7B5FA0028C4D122683F
:10205800636A12691A70636A01336362238D013BF4
:102068002385638D013B9BB26385E2E7022A1A68E8
:102078000ED142F400621A6072B6236804905A695D
:1020880004929A690492049A1A6822F48062CCE74E
:1020980042F480621A6005905A6905929B6905931B
:1020A800059BC4E7022B00963B464FF000024146D1
:1020B800204618D1FFF7ADFA00288DD172B62368F3
:1020C8001A6842F400721A601B69626A1370636AC4
:1020D80001336362238D013B2385638D013B9BB2F2
:1020E800638562B6B3E7FFF794FA024600287FF4E7
:1020F80073AF21680B6823F480630B6072B62168A4
:10210800636A096920461970636A0096013363623D
:10211800238D4146013B2385638D013B9BB263853B
:102128003B46FFF776FA0028C9D055E732463946CC
:102138002046FFF73FFA00287FF44EAF2268636A13
:1021480012691A70626A531C6362238D013B2385EE
:10215800638D013B9BB263852368596949077FF505
:1021680068AF1B69537076E7020010000000FFFF9C
:10217800040001002DE9F04F044685B098468946D1
:102188009246FEF781FC94F83D300546202B03D09B
:10219800022005B0BDE8F08F0090192301224949BB
:1021A8002046FFF736FA0028F2D194F83C30012B8C
:1021B800EED0012384F83C30236801271A68DFF841
:1021C80004B1D20758BF1A6809F0FE095CBF42F093
:1021D80001021A601A6822F400621A60242384F843
:1021E8003D3000232364A3F58033E36222684FF077
:1021F80001111368204643F4807313600095434629
:102208000022FFF706FA08B10120C2E72368A026DA
:10221800C3F81090FEF738FC054623685A695B69D5
:10222800C2F34002C3F3802394F83D10A02901D0E3
:1022380002B903B32026236884F83D605A6912F076
:10224800020F1A6842F400721A6026D00022039224
:102258005A691C4903929B6901220393039B0095C9
:1022680019232046FFF7D5F90028CDD184F83D6021
:1022780084F83C008DE7FEF707FC401B804502D33D
:10228800B8F1000F01D184F83D6023685A695B6991
:10229800C2F34002C3F38023C6E76FF48062594655
:1022A8005A612046009519230122FFF7B2F9002848
:1022B800AAD10137574599D384F83D6084F83C008A
:1022C800A2E700BF020010002DE9F341054608B956
:1022D80001203CE00368DB0710D42B689F075DD41E
:1022E8002B68190700F194802B685A0700F1BE800B
:1022F800E869002840F02C81002028E08F4C6368B2
:1023080003F00C03042B07D0636803F00C03082BBD
:1023180009D16368DE0306D523689C03DDD56B68A5
:10232800002BDAD1D4E76B68B3F5803F12D123686C
:1023380043F480332360FEF7A7FB0646236898031F
:10234800CBD4FEF7A1FB801B6428F7D9032002B089
:10235800BDE8F0819BB9236823F4803323602368A8
:1023680023F480232360FEF78FFB06462368990336
:10237800B3D5FEF789FB801B6428F7D9E6E7B3F5E8
:10238800A02F236803D143F480232360CFE723F4ED
:1023980080332360236823F48023CBE7674C63688A
:1023A80013F00C0F07D0636803F00C03082B10D14F
:1023B8006368DA030DD423689B0702D52B69012BC8
:1023C80086D123686A6923F0F80343EAC2032360CD
:1023D80086E72A695A4B6AB101221A60FEF754FB54
:1023E800064623689F07ECD4FEF74EFB801B0228A5
:1023F800F7D9ABE71A60FEF747FB0646236898074C
:102408007FF56EAFFEF740FB801B0228F6D99DE7EB
:10241800AA694A4C4B4BDAB101221A60FEF734FB29
:102428000646636A9B070DD54FF4FA52464B1B6864
:10243800B3FBF2F3019300BF019B5A1E0192002BDC
:10244800F9D151E7FEF720FB801B0228E9D97DE787
:102458001A60FEF719FB0646636A9F077FF544AFCB
:10246800FEF712FB801B0228F6D96FE7334CE369AD
:10247800D80024D40127E36943F08053E361E3697A
:1024880003F080530093009B304E3368D90518D56C
:10249800EB68012B26D1236A43F001032362FEF780
:1024A800F3FA41F288368046236A9B073FD5002F0E
:1024B8003FF41EAFE36923F08053E36118E7002778
:1024C800E2E7336843F480733360FEF7DDFA804651
:1024D8003368DA05DCD4FEF7D7FAA0EB08006428E5
:1024E800F6D933E7ABB9236A41F2883823F0010300
:1024F8002362236A23F004032362FEF7C5FA064623
:10250800236A9807D3D5FEF7BFFA801B4045F7D951
:102518001CE7052B236A03D143F004032362BAE7BF
:1025280023F001032362236A23F00403B6E7FEF7CE
:10253800ABFAA0EB0800B042B6D907E7001002409A
:102548000000424280044242200000200070004007
:102558002A4B5A681C4602F00C02082A3DD0002378
:10256800274E022833602BD1FEF78EFA07462368E0
:1025780099011FD42B6AB3F5803F05D16268A96819
:1025880022F400320A436260696A62680B4322F4EB
:1025980074121343636001233360FEF775FA05462E
:1025A80023689A013FF5A8AEFEF76EFA401B022891
:1025B800F6D9CBE6FEF768FAC01B0228D7D9C5E6DC
:1025C800FEF762FA054623689B017FF595AEFEF794
:1025D8005BFA401B0228F6D9B8E601283FF4B7AEEB
:1025E80058682B6A00F480329A427FF471AE6B6AA5
:1025F80000F47010C01A18BF0120A8E600100240AD
:102608006000424230B5194B87B002AC03F11005A7
:10261800224618685968083303C2AB421446F7D1FA
:1026280001238DF80430022311498DF805304B68D9
:1026380003F00C02082A17D1C3F3834206A8024408
:10264800DB0312F8102C0CD54B680A48C3F340433F
:10265800504306AA134413F8143CB0FBF3F007B038
:1026680030BD05485043FAE70248F8E7386B0008E0
:102678000010024000127A0000093D002DE9F041E7
:102688000D46044610B90120BDE8F081454A13689B
:1026980003F007038B4229D321688E0731D4CA0778
:1026A80044D4404A136803F007039D4267D3226865
:1026B8003D4D12F0040F6ED1130706D56B682269E1
:1026C80023F4605343EAC2036B60FFF79BFF6B6818
:1026D800364AC3F30313D35CD840354B1860354BE7
:1026E8001868FEF78FF90020BDE8F081136823F021
:1026F80007030B431360136803F007039942C2D121
:10270800CAE7294B11F0040F1EBF5A6842F4E06271
:102718005A60080742BF5A6842F460525A605A68C1
:10272800A06822F0F00202435A60B8E762681E4EC1
:10273800012A33681BD113F4003FA4D0736841F217
:10274800883823F0030313437360FEF79DF90746A7
:102758007368626803F00C03B3EB820FA1D0FEF735
:1027680093F9C01B4045F3D90320BDE8F081022A44
:1027780002D113F0007FE0E713F0020FDDE71368E2
:1027880023F007032B431360136803F007039D42EC
:102798007FF479AF8BE76B68E16823F4E0630B4360
:1027A8006B6089E700200240001002402F7C00087F
:1027B8002000002004000020044B054A5B68C3F396
:1027C8000223D35C034A1068D840704700100240C7
:1027D8003F7C000820000020044B054A5B68C3F3D7
:1027E800C223D35C034A1068D840704700100240E7
:1027F8003F7C00082000002003682DE9F341D90739
:10280800054620D5354CE369DA0032D40127E3695F
:1028180043F08053E361E36903F080530193019B24
:102828002F4E3368DB0526D5236A13F4407336D15F
:10283800236A6A6823F44073134323621FB1E36970
:1028480023F08053E3612868830706D5234AA968E3
:10285800536823F440430B43536010F010001BD01F
:102868001E4A69695368002023F480030B435360B0
:1028780012E00027D4E7336843F480733360FEF72F
:1028880003F980463368D805CED4FEF7FDF8A0EBEF
:1028980008006428F6D9032002B0BDE8F0816A6810
:1028A80002F440729342C3D001200E4A236A10609A
:1028B800002023F4407110602162D907B8D5FEF7D3
:1028C800E3F841F288380646236A9A07B0D4FEF73F
:1028D800DBF8801B4045F7D9DDE700BF0010024058
:1028E8000070004040044242F8B504460E461546C2
:1028F8001F4621688A6836EA020301D00020F8BD25
:102908006B1CF7D0FEF7C0F8C01B8542F1D82368CE
:102918005A6822F0E0025A606268B2F5827F0AD1F2
:10292800A268B2F5004F02D0B2F5806F03D11A68E1
:1029380022F040021A60A26AB2F5005F07D11A6855
:1029480022F400521A601A6842F400521A600123F5
:1029580084F851300023032084F85030F8BD38B58E
:10296800134642680446B2F5827F16D18068B0F5F6
:10297800004F02D0B0F5806F0FD12268B0F5806F9C
:10298800156825F04005156007D10A460121204643
:10299800FFF7AAFF20B9002038BD0A468021F6E7D4
:1029A800636D032043F02003636538BD10B51346FB
:1029B8000A4680210446FFF797FF20B10320636D84
:1029C80043F02003636510BD10B50446002834D0D9
:1029D8000023836290F8513003F0FF021BB980F89E
:1029E800502002F08DFD0223226884F851301368CC
:1029F800A06823F0400313606368A1690343E0689B
:102A080003432069034360690343E0690343206A81
:102A18000343A06A034301F40070090C034301F067
:102A2800040113605160D369002023F40063D3616B
:102A38000123606584F8513010BD012010BD2DE9D7
:102A4800F3411E4690F850300446012B0D4690463F
:102A580000F09C80012380F85030FEF715F80746F7
:102A680094F85100C0B2012840F08E80002D5ED04D
:102A7800B8F1000F5BD00323002084F85130A3681D
:102A88006065A063A4F83680A087E087606420644E
:102A98002068B3F5004F08BF0368256308BF43F4F7
:102AA8008043A4F8348008BF036003685B065EBFF8
:102AB800036843F040030360E368B3F5006F63689D
:102AC8003ED113B1B8F1010F07D135F8023BC3600D
:102AD8002563E38E013B9BB2E386E38E9BB2A3B9E9
:102AE8003A4631462046FFF761FF002849D1A368DE
:102AF80033B901932368DA6801929B680193019BBB
:102B0800606D003018BF012011E0226893689807B3
:102B180005D5236B33F8021BD1602363D9E7FDF792
:102B2800B3FFC01BB042D8D3711CD6D003200123F9
:102B380084F85130002384F8503002B0BDE8F081A9
:102B480013B1B8F1010F08D12B780373236B01334C
:102B58002363E38E013B9BB2E386E38E9BB2002B9B
:102B6800BED023689A68920703D5226B12781A732D
:102B7800ECE7FDF789FFC01B8642EED8731CECD04A
:102B8800D4E720236365B2E70220D0E70220D4E728
:102B98002DE9F7431E4690F850300446012B0D46A8
:102BA80091460A9F00F0E280012380F85030FDF73B
:102BB8006BFF94F851308046DBB2012B61680AD074
:102BC800B1F5827F40F0D080A068002840F0CC802A
:102BD800042B40F0C980002D00F0C480B9F1000F2B
:102BE80000F0C080002E00F0BD8094F85130C4F889
:102BF8003890042B1CBF052384F8513000236365EB
:102C0800236463642368E687E6861A68A687500605
:102C180058BF1A68256358BF42F04002A68658BFBD
:102C28001A60E268B2F5006F58D109B1012E07D1D8
:102C380035F8022BDA60E38E2563013B9BB2E3860D
:102C48000125E38E9BB2ABB9E38F9BB293B94246A1
:102C580039462046FFF7AAFE002840F08180A36885
:102C6800002B32D123680190DA6801929B680193A6
:102C7800019B2AE02268936899070DD5E38E9BB2E1
:102C880053B14DB10025236B33F8021BD160236388
:102C9800E38E013B9BB2E3869368DB070CD5E38F99
:102CA8009BB24BB10125D268A36B23F8022BA36317
:102CB800E38F013B9BB2E387FDF7E6FEA0EB08003C
:102CC8008742BED87E1CBCD00320012384F8513033
:102CD800002384F8503003B0BDE8F08309B1012E19
:102CE80008D12A781A73236B01332363E38E013BDF
:102CF8009BB2E3860125E38E9BB21BB9E38F9BB29F
:102D0800002BA4D02268936898070ED5E38E9BB257
:102D18005BB155B10025236B1B781373236B01330B
:102D28002363E38E013B9BB2E38622689368D9074D
:102D38000DD5E38F9BB253B10125D268A36B1A70EE
:102D4800A36B0133A363E38F013B9BB2E387FDF7DA
:102D58009BFEA0EB08008742CDD87B1CCBD0B3E705
:102D6800202363650120B0E70220AEE70220B2E726
:102D78002DE9F3411D4643680446B3F5827F884632
:102D880017460CD1836853B9042380F85130134691
:102D980000950A46FFF7FCFE02B0BDE8F08194F802
:102DA8005030012B79D0012384F85030FDF76CFEA8
:102DB800064694F85100C0B201286CD1B8F1000F52
:102DC80057D0002F55D0042384F851300023636571
:102DD8002363E787A386E38623646364A368A787DE
:102DE800B3F5004F2368C4F8388002BF1A6822F48C
:102DF80080421A601A6857065EBF1A6842F040029D
:102E08001A60E368F3B1E38F9BB2FBB123689A6859
:102E1800D20735D5DA68A36B23F8022BA363E38FB7
:102E2800013B9BB2E387EEE723689A68D00718D581
:102E38001B7BA26B1370A36B0133A363E38F013B6E
:102E48009BB2E387E38F9BB2002BEDD13246294634
:102E58002046FFF784FDD8B9606D003018BF012007
:102E680007E0FDF711FE801B8542EBD8691CE9D00D
:102E78000320012384F85130002384F850308BE775
:102E8800FDF702FE801B8542BDD86B1CBBD0EFE767
:102E980020236365E0E70220EBE702207CE7036874
:102EA8000020DA6842F00102DA609A6802F007024C
:102EB800062A1EBF1A6842F001021A6070470368AA
:102EC80089B1042907D01A6A22F001021A621A6A23
:102ED80042F001021A621A6A22F010021A621A6A91
:102EE80042F0100206E01A6A22F001021A621A6A17
:102EF80042F001021A621A68002042F001021A60C8
:102F080070477047704770477047036810B51A6973
:102F1800044691070ED5DA6892070BD56FF00202C6
:102F28001A6101229B6902779B0777D0FFF7EAFFB6
:102F38000023237723681A69500710D5DA685107E8
:102F48000DD56FF004021A6102229B69227713F4EF
:102F5800407F204668D0FFF7D5FF002323772368FA
:102F68001A6912070FD5DA6810070CD56FF0080236
:102F78001A610422DB692277990720465AD0FFF7A5
:102F8800C1FF0023237723681A69D20610D5DA68AF
:102F9800D0060DD56FF010021A610822DB6922777E
:102FA80013F4407F20464BD0FFF7ACFF0023237774
:102FB80023681A69D10708D5DA68D20705D56FF0F2
:102FC800010220461A6100F039FE23681A691006CA
:102FD80008D5DA68110605D56FF0800220461A6117
:102FE80000F006F923681A69520608D5DA6850060F
:102FF80005D56FF0400220461A61FFF785FF236868
:103008001A69910622D5DA6892061FD56FF0200258
:103018002046BDE810401A6100F0E9B8FFF771FFDB
:103028002046FFF770FF83E7FFF76BFF2046FFF7A7
:103038006AFF92E7FFF765FF2046FFF764FFA0E706
:10304800FFF75FFF2046FFF75EFFAFE710BD000008
:10305800244A0368904212D002F5006290420ED0D2
:10306800B0F1804F0BD0A2F59832904207D002F50C
:103078008062904203D002F5806290421DD14A6876
:1030880023F070031343174A904212D002F50062EE
:1030980090420ED0B0F1804F0BD0A2F598329042FA
:1030A80007D002F58062904203D002F58062904218
:1030B80003D1CA6823F4407313434A6923F0800399
:1030C800134303608B68C3620B688362054B9842A5
:1030D80003D003F50063984201D10B690363012310
:1030E80043617047002C014010B50446A0B190F828
:1030F8003D3003F0FF021BB980F83C2002F072FA61
:103108000223206884F83D30211DFFF7A1FF012329
:10311800002084F83D3010BD012010BDF8B50C46E4
:103128000546002843D090F83D3003F0FF021BB954
:1031380080F83C2002F026FA2946022351F8040BB5
:1031480085F83D30836823F4804323F007038360C8
:10315800FFF77EFF2868236886688269A1681E4396
:10316800A36922F4407222F0030241EA03231343C5
:1031780023F47C422369E1691B0143EA0123E168E6
:10318800076A0B43216A22F0FC0243EA0133134326
:10319800616927F02202676886608361012347EA34
:1031A80001171743076285F83D300020F8BD01205C
:1031B800F8BD90F83C3030B5012B4FF0020314D025
:1031C800046880F83D306268A3680D68496822F099
:1031D800700223F080030B432A436260A36001233B
:1031E80080F83D30002380F83C30184630BD7047E9
:1031F8007047000038B505460368C1681A69192484
:1032080022F440520A431A6182680069D96802436D
:10321800686921F4B05121F00C0102430A43DA60D5
:103228005A69A96922F440720A435A610D4A9342C5
:1032380014D1FFF7D1FA60436C686422A400B0FB94
:10324800F4F0B0FBF2F402FB14031B013233B3FBBE
:10325800F2F3296803EB04138B6038BDFFF7ACFA6F
:10326800E9E700BF00380140F8B504460E461746A6
:103278001D4621680B6836EA030301D10020F8BD1A
:103288006B1CF7D095B923680320DA6822F4D07252
:10329800DA605A6922F001025A61202384F8393031
:1032A80084F83A30002384F83830F8BDFDF7ECFB99
:1032B800C01B8542DDD2E6E710B5044640B390F85E
:1032C800393003F0FF021BB980F8382002F0A8F962
:1032D8002423226884F83930D368204623F4005325
:1032E800D360FFF787FF236800201A6922F4904211
:1032F8001A615A6922F02A025A61DA6842F40052C5
:10330800DA602023E06384F8393084F83A3010BD5D
:10331800012010BD2DE9F0411F4690F839300446D0
:10332800202B0D4690464ED1002949D0002A47D07F
:1033380090F83830012B46D0012380F8383000232C
:10334800C363212380F83930FDF79EFB0646A4F8B5
:103358002480A4F82680E38C9BB26BB93B463246A6
:1033680040212046FFF780FFA8B9202384F83800C1
:1033780084F83930BDE8F081E38C3246013B9BB2DA
:10338800E384A3688021B3F5805F20463B460ED1D5
:10339800FFF76AFF10B10320BDE8F0812B8822688F
:1033A800C3F308035360236943B90235D3E7FFF732
:1033B8005BFF0028EFD123682A785A600135CAE7F5
:1033C8000120BDE8F0810220BDE8F0817FB5192316
:1033D80005464FF47A760C788DF80C308DF80D2070
:1033E800A4B20096022303AA21462846FEF7D2FA81
:1033F8000028F6D104B070BD1C232DE9F043074620
:103408000C4616464FF47A7985B00D780DF1100800
:1034180008F8013DADB2CDF8009001234246294697
:103428003846FEF7B7FA0028F5D14FF47A78CDF888
:10343800008001230DF10E0229463846FEF778FB7D
:103448000028F4D14FF47A789DF80E3023F0180351
:1034580043EAC6038DF80E30CDF8008001230DF144
:103468000E0229463846FEF795FA0028F4D1032EB5
:1034780006D8DFE806F002090C0F4FF06253A3608C
:10348800002005B0BDE8F0834FF06453F7E74FF034
:103498006653F4E74FF06853F1E700001B232DE96A
:1034A800F04307460C4616464FF47A7985B00D78F6
:1034B8000DF1100808F8013DADB2CDF800900123D8
:1034C800424629463846FEF765FA0028F5D14FF4FA
:1034D8007A78CDF8008001230DF10E02294638468E
:1034E800FEF726FB0028F4D14FF47A789DF80E30C9
:1034F80023F0180343EAC6038DF80E30CDF8008098
:1035080001230DF10E0229463846FEF743FA00283A
:10351800F4D1032E05D8DFE806F002080A0C064BA2
:103528006360002005B0BDE8F083044BF8E7044B66
:10353800F6E7044BF4E700BF2D23FA3B2D237A3C32
:1035480090C1F93C90C1793D2DE9FF41984675231A
:1035580042F0D00294B20A700E468DF80A30022268
:10356800052321460546FEF705FE18B1012004B0E3
:10357800BDE8F0814FF47A77012300970DF10A0234
:1035880021462846FEF706FA0028EFD100970123C6
:103598000DF10B0221462846FEF7CAFA0028E5D1AC
:1035A8009DF80B30682B20D16B238DF80D008DF81A
:1035B8000C3021460097022303AA2846FEF7EAF9B1
:1035C80004460028D2D1072231462846FFF7FEFEDE
:1035D800424631462846FFF70FFF9DF8282031461E
:1035E8002846FFF75BFF2046C1E70320BFE700003E
:1035F800014801F0F5BA00BF4C08002013B5184B7C
:103608001878042828D8DFE800F00309141B2300E1
:10361800144802B0BDE8104001F01EBA0124124857
:10362800838B428B018BC08A009401F055F902B05C
:1036380010BD0D480524C389828941890089F3E7B3
:1036480003200A4B197802B0BDE8104001F0CEB94A
:10365800064B04201978F6E7044B1978F3E700BF06
:10366800A5000020C008002064080020A400002055
:1036780008B520210E4800F0D7FCA0B10D4B0C4A2C
:1036880003F1140153F8040B8B4242F8040BF9D1EF
:103698001B88802113800848FDF7F5FE074A136848
:1036A8000133136008BD0648BDE8084002F07AB946
:1036B800CC0600206408002000100140C00800204B
:1036C800F972000810B596B0282200210CA802F063
:1036D800ECF81422002101A802F0E7F818220021D2
:1036E8000DEB020002F0E1F84FF4803301220224CE
:1036F8000D9314934FF4E0130CA80C9210921593A9
:103708001394FEF7E1FD0F230193002303934FF475
:103718008063214601A8049305930294FEF7AEFF47
:103728004FF4004306A806940893FFF765F816B00F
:1037380010BD00002DE9F04FB04D97B0FDF786F9A8
:10374800FFF7C0FF102200210DA802F0AEF8AB6908
:10375800002243F02003AB61AB69122103F0200380
:103768000793079BAB69A64843F01003AB61AB69AD
:10377800002403F010030893089BAB69012643F06B
:103788000403AB61AB69022703F004030993099BA7
:10379800AB694FF0060943F00803AB61AB694FF022
:1037A8000B0803F008030A930A9BFDF767FE002243
:1037B8004FF443419348FDF761FE00224FF46071D6
:1037C8009148FDF75BFE12230DA98D480D930F94C8
:1037D80010970E96FDF766FD0DA98A48CDF834902E
:1037E8000E940F94FDF75EFD4FF443430DA98548F1
:1037F8000D930F9410970E96FDF754FD40230DA9D5
:1038080081480D930E940F94FDF74CFD4FF46073AF
:103818000DA97D480D930F9410970E96FDF742FD64
:103828004FF480630D93794B0DA975480E930F944F
:10383800FDF738FD224621462820FDF781FB282088
:10384800FDF7B2FB6B69224633436B616B69214616
:10385800334006930B20069BFDF772FB0B206C4D43
:10386800FDF7A2FB6B4B4FF0070B2B604FF48073F7
:10387800AB604FF460232846EB612C756C60C5F88B
:1038880010800D940E940F942E73FDF7BDFA0DA9B8
:1038980028460D94CDF83CB00E96FDF749F905225F
:1038A8004FF0030A0DA928460D9205920E97FDF7D1
:1038B8003FF90DA92846CDF83490CDF838A0FDF78A
:1038C80037F904230DA92846CDF834B00E93FDF737
:1038D8002FF908230A27059A0DA928460E920D9359
:1038E8000493FDF725F90DA92846CDF838900D97D2
:1038F800FDF71EF9CDF838B04FF00C0B0DA928468E
:10390800CDF83480FDF714F9049B0DA92846CDF8AD
:1039180034B00E93FDF70CF90D230D9309230DA96F
:1039280028460E93FDF704F90E234FF00F090DA951
:1039380028460D930E97FDF7FBF8CDF838804FF425
:1039480080480DA92846CDF83490FDF7F1F83248A3
:10395800324B334D0360334B846043600493C4603F
:1039680044618461C4610462C0F81080FDF76EFF91
:103978002D4A049B28462A606B60AC60EC606C6141
:10398800AC61EC612C62C5F81080FDF75FFF4FF465
:10399800827326482649846080E80A004FF4007341
:1039A80083612023C46004614461C361046244628A
:1039B8008462C762FFF708F890221E4B1E489C607D
:1039C80083E8050042F20F721846DA609C610D9494
:1039D8000E940493FFF788FB049B0DA918460D94D9
:1039E8000E94FFF7E6FB1548154B846003604FF40F
:1039F800E133C4604360049324E000BF0010024038
:103A080000080140000C01400010014000001110A6
:103A18009C06002000240140E405002000540040DA
:103A280038060020801A060000580040B007002021
:103A38000030014030070020001000400C08002032
:103A4800004400400461C0F814B08461C461FFF709
:103A580033FC6148049B614A436002608460C4602F
:103A68000461C0F814B08461C461FFF725FC242206
:103A780021460DA801F019FFDFF88CB1584B0DA9AC
:103A88008BE8180017235846CBF80C300B940C948D
:103A9800CBF80840CBF81040CBF81440CBF81840CE
:103AA800CDF834A00F96CDF844901396CDF85490E5
:103AB800FFF734FB0BA958460B940C94FFF779FBDE
:103AC80000F09AFE00F0A8FE00F056FE324641468D
:103AD8004448FDF7D3FC3846FCF7DCFF2346224672
:103AE800009441492846FFF72FFD404C2070384686
:103AF800FCF7D0FF23783E4A1373002B5FD13D4873
:103B08000A25012601F04EFF012001F05FF80B2283
:103B180039493A48FDF7C8F8394C3A48FFF7BFF930
:103B28003C213948FFF7CBF9FF230022A021029559
:103B3800019600943548FEF703FA2846FCF7AAFFD9
:103B48002378002233442370A02102958DE8500089
:103B5800FF232E48FEF764F92846FCF79BFF002553
:103B68002B4E615D3046013501F0A8FE052DF8D1D8
:103B7800284801F017FF4FF4FA61284601F0B8F819
:103B88004FF4FA61062001F0B3F84FF4FA61072008
:103B980001F0AEF84FF4FA61082001F0A9F81E4CC4
:103BA8001E4E36F8085C65B90120FCF773FF2368E0
:103BB8000133B3F57A7F88BF2B462360F0E71848B6
:103BC8009EE72268B2FBF5F305FB132313B956F8F9
:103BD800043C98470836E4E7A40500200048004064
:103BE800002C0140000C0140880500200808002036
:103BF800C0080020B47200084C0800209C06002071
:103C08008C0600203007002070070020E405002003
:103C1800F2720008F7720008A80000200C73000870
:103C2800D572000810B514460A2392B20248FFF76D
:103C380071FB204610BD00BFA4050020074A137879
:103C4800013B13F0FF0301BF0A231370044B054A1D
:103C580004BF5B6A9B081370704700BF1100002007
:103C6800002C0140A5000020B0F5806F08B514D1E4
:103C780000F180404FF4007100F58630FDF703FC39
:103C8800064A13780133DBB2032B81BF002313707C
:103C9800034A137888BF0133137008BDA4000020BD
:103CA8001000002070470000034B01221988034BC5
:103CB8001868FDF7E3BB00BFB0000020B400002087
:103CC800034B01221988034B1868FDF7D7BB00BFC7
:103CD800AE000020B4000020024608B1FFF7E4BFA0
:103CE800024B1988024B1868FDF7C8BBB0000020CA
:103CF800B4000020024608B1FFF7E2BF024B198862
:103D0800024B1868FDF7BABBAE000020B4000020D3
:103D180013B504460020FFF7DFFF04F01F0402A9D3
:103D280001F8044D094C642301222046FEF787FE62
:103D3800642301220DF105012046FFF719F89DF8CB
:103D48000540FFF7B1FF204602B010BDB8000020C3
:103D580073B504460D4616460020FFF7BDFF04F074
:103D68001F0402A901F8044D074C642301222046D0
:103D7800FEF765FE6423324629462046FEF7F8FF23
:103D8800FFF792FF02B070BDB800002037B50446B7
:103D98000D460020FFF7A0FF44F020046423022210
:103DA80001A905488DF804408DF80550FEF747FE37
:103DB800FFF77AFF03B030BDB800002073B50446A2
:103DC8000D4616460020FFF787FF44F0200402A99D
:103DD80001F8044D074C642301222046FEF72FFE0C
:103DE8006423324629462046FEF729FEFFF75CFF8A
:103DF80002B070BDB800002073B5054600200E461D
:103E0800FFF76AFFA023094C02A901F8013D01222E
:103E180064232046FEF713FE6423324629462046D3
:103E2800FEF70DFEFFF740FF02B070BDB80000209E
:103E3800FF21E120FFF7AABFFF21E220FFF7A6BF7D
:103E48000720FFF765BF08B50020FFF753FFFFF70E
:103E5800EFFFBDE80840FFF7EFBF000013B502AC65
:103E680064E90201052221460A20FFF7A7FF05227F
:103E780021461020FFF7A2FF044B112019782029B2
:103E880028BF2021FFF782FF02B010BD500100209B
:103E98007F28014628BF7F210520FFF777BF6020D4
:103EA800FFF736BF08B51D20FFF732FF00F0FB0112
:103EB8001D20FFF76BFFBDE8084000211C20FFF71D
:103EC80065BF014600B13F210120FFF75FBF10B574
:103ED80004460620FFF71CFF032C00F0F90102D16D
:103EE80041F0060103E0022C06D141F0040106204E
:103EF800BDE81040FFF74ABF012C02D141F0020192
:103F0800F5E7042CF3D1EBE738B505460620FFF7B3
:103F1800FFFE022D00F0D7040CD144F02004214606
:103F28000620FFF733FF0620FFF7F2FE231A584258
:103F3800584138BD012D08BF44F00804EFE710B51B
:103F480004460020FFF7E4FE00F0F3012CB1012C39
:103F58000CBF41F0080141F00C010020BDE8104001
:103F6800FFF714BF08B50020FFF7D2FEBDE80840F0
:103F780000F0FD010020FFF709BF70B50546FFF707
:103F88005FFF00F04003002B044614BF0126002603
:103F98000DD015B1C0F342032B7040210720FFF765
:103FA800F5FEA30603D520210720FFF7EFFE3046D4
:103FB80070BD0020FFF7E1BF38B5044600200D466C
:103FC800FFF798FE0020FFF7A3FE00F0FC0141F088
:103FD80002010020FFF7DAFEFFF772FE20462946AD
:103FE800FFF70AFFFFF76CFEBDE838400020FFF737
:103FF80081BEF8B505460F461646FFF721FF002398
:1040080004462B7070210720FFF7C0FEC4F340134D
:104018002B70C4F30013C4F380143B703470F8BDE4
:1040280070210720FFF7B2BE37B504460D46FFF7EB
:10403800F7FF20462946FFF7BFFFFCF725FD04469A
:1040480001220DF105010820FFF782FEFFF7F8FEB7
:1040580010F0300F16D00E4C0DF1070122460DF16D
:104068000600FFF7C6FF23789DF806501BB1FFF73F
:1040780016FF084B1870FFF79CFFFFF7D9FE28467C
:1040880003B030BDFCF700FD001B0928D8D9E2E7D2
:10409800AC000020AD00002007B50020FFF71CFE93
:1040A80050238DF80430732302228DF8053001A9BE
:1040B80064230448FEF7C3FCFFF7F6FD03B05DF880
:1040C80004FB00BFB800002010B5A0B0BC4907A889
:1040D80001F094FC07A8FCF7A3F80A2382B207A909
:1040E800B848FFF717F90020FFF712FE040740F160
:1040F800308240074CBFB449B44907A801F07EFCA0
:1041080007A8FCF78DF80A2382B207A9AD48FFF784
:1041180001F90120FFF7FCFDC0F340130393C0F33E
:1041280000130293C0F3C0030193C0F3800300F0AF
:104138000102A7490093C0F3400307A801F03AFC25
:1041480007A8FCF76DF80A2382B207A99D48FFF774
:10415800E1F80220FFF7DCFDC0F340130393C0F33E
:1041680000130293C0F3C0030193C0F3800300F06F
:10417800010298490093C0F3400307A801F01AFC14
:1041880007A8FCF74DF80A2382B207A98D48FFF764
:10419800C1F80320FFF7BCFD00F0030202328E498C
:1041A80007A801F007FC07A8FCF73AF80A2382B22F
:1041B80007A98448FFF7AEF80520FFF7A9FD87494E
:1041C80000F07F0207A801F0F5FB07A8FCF728F824
:1041D80007A982B20A237B48FFF79CF80620FFF75D
:1041E80097FD01074CBF7E497E49044607A801F0A8
:1041F80005FC07A8FCF714F8C4F3410482B20A23AB
:1042080007A97048FFF786F8002C40F0A48176498A
:1042180007A801F0F3FB07A8FCF702F80A2382B20B
:1042280007A96848FFF776F805A905220A20FFF7CD
:104238008FFD9DF814109DF8173002919DF8151008
:104248009DF8182001919DF8161007A8009167495C
:1042580001F0B0FB07A8FBF7E3FF0A2382B207A926
:104268005848FFF757F805A905220B20FFF770FDFE
:104278009DF814109DF8173002919DF815109DF8BF
:10428800182001919DF8161007A80091584901F0CF
:1042980091FB07A8FBF7C4FF0A2382B207A9494884
:1042A800FFF738F805A901220C20FFF751FD9DF80A
:1042B8001420504907A801F07DFB07A8FBF7B0FFC1
:1042C8000A2382B207A93F48FFF724F805A901226B
:1042D8000D20FFF73DFD9DF81420474907A801F080
:1042E80069FB07A8FBF79CFF0A2382B207A9354898
:1042F800FFF710F805A901220E20FFF729FD9DF808
:1043080014203E4907A801F055FB07A8FBF788FFD2
:104318000A2382B207A92B48FEF7FCFF05A9012250
:104328000F20FFF715FD9DF81420354907A801F067
:1043380041FB07A8FBF774FF0A2382B207A92148AB
:10434800FEF7E8FF05A905221020FFF701FD9DF8FB
:1043580014109DF8173002919DF815109DF818203B
:1043680001919DF8161007A80091264901F022FB3B
:1043780007A8FBF755FF0A2382B207A91148FEF7E1
:10438800C9FF1120FFF7C4FC1F4900F03F0207A82E
:1043980001F010FB07A8FBF743FF0A2382B207A925
:1043A8000848FEF7B7FF1220FFF7B2FC174900F0E4
:1043B8003F0207A801F0FEFA07A8FBF731FF27E044
:1043C8002473000810010020577300087373000855
:1043D800A2730008E67300082F74000848740008E8
:1043E8005B7400087274000889740008D6740008A9
:1043F80006750008367500085E75000886750008A1
:10440800AE750008D6750008007600081976000811
:104418000A2382B207A95448FEF77CFF1320FFF74E
:1044280077FC524900F03F0207A801F0C3FA07A839
:10443800FBF7F6FE0A2382B207A94B48FEF76AFF8C
:104448001420FFF765FC4A4900F03F0207A801F075
:10445800B1FA07A8FBF7E4FE0A2382B207A942488B
:10446800FEF758FF1520FFF753FC424900F03F02C2
:1044780007A801F09FFA07A8FBF7D2FE0A2382B229
:1044880007A93948FEF746FF1620FFF741FC3A49CD
:1044980000F03F0207A801F08DFA07A8FBF7C0FE5D
:1044A80007A982B20A233048FEF734FF1C20FFF721
:1044B8002FFCC0F340130393C0F300130293C0F31F
:1044C800C0030193C0F3800300F0010200932B495D
:1044D800C0F3400307A801F06DFA07A8FBF7A0FE98
:1044E80007A982B20A232048FEF714FF1D20FFF710
:1044F8000FFC42074CBF22492249044607A801F095
:104508007DFA07A8FBF78CFE07A90A2382B2164892
:10451800FEF700FFA3074CBF1B491C4907A801F081
:104528006DFA07A8FBF77CFE0A2382B207A90E489A
:10453800FEF7F0FE164907A801F060FA07A8FBF796
:104548006FFE0A2382B207A90748FEF7E3FE20B0F0
:1045580010BD1049D1E5012C01D10F4958E6022CB4
:104568000CBF0E490E4953E61001002032760008B0
:104578004B760008647600087D7600089676000879
:10458800E0760008F67600080D770008277700081F
:10459800247300088E7300089D740008B174000825
:1045A800C474000882B073B506460D46144606A9C1
:1045B800582241F8043F5F4801F06CF95E4B1E60D9
:1045C8005E4B1D805E4B02AD1C80FFF76DFB00202B
:1045D800FFF790FB0520FCF75DFA08210020FFF7A4
:1045E800D5FB3F210120FFF7D1FB03210220FFF774
:1045F800CDFB0321E7240846FFF7C8FB032104206D
:10460800FFF7C4FB02210520FFF7C0FB0F2106209E
:10461800FFF7BCFB0E210720FFF7B8FB002108209D
:10462800FFF7B4FB00210920FFF7B0FB05F8084DA0
:10463800294605220A208DF804408DF803408DF89C
:1046480002408DF80140FFF7B9FBC2230522294635
:104658000B208DF804308DF803308DF802308DF87A
:1046680001308DF80030FFF7A9FBC3210C20FFF7BC
:104678008DFBC4210D20FFF789FBC5210E20FFF714
:1046880085FBC6210F20FFF781FB05222946102054
:104698008DF804408DF803408DF802408DF80140F4
:1046A8008DF80040FFF78AFB00211120FFF76EFB11
:1046B80000211220FFF76AFB00211320FFF766FB99
:1046C80000211420FFF762FB00211520FFF75EFB95
:1046D80000211620FFF75AFBFFF7DEFC00211C2003
:1046E800FFF754FB00211D20FFF750FBFFF7ECFC00
:1046F800FF210420FFF74AFB0320FFF7E8FB012016
:10470800FFF702FC0220FFF71AFCFFF7CBFB202281
:104718000C4B1A70FFF784FC4C20FFF7B9FBFFF72E
:1047280087FBFFF789FBFFF71DFC02B0BDE870406F
:1047380002B07047B8000020B4000020B00000208C
:10474800AE0000205001002084B030B503AC84E8EE
:104758000F00084C03AD0FCD0FC40FCD0FC40FCD04
:104768000FC495E80F0084E80F00BDE8304004B09E
:10477800704700BF1001002070B51A4C96B0211D7B
:104788005422684601F086F823686C46164E1022BB
:104798000221164806F11005FFF704FF0FCD0FC4DC
:1047A8000FCD0FC495E80F0084E80F0096E80F00BE
:1047B800FFF7CAFF0020FFF784FB3420FFF768FBF0
:1047C80020220B4B1A70FFF73EFB0A4BD3E900017E
:1047D800FFF744FB6420FCF75DF916B0BDE87040B4
:1047E800FFF772BCB0070020A405002000080140B4
:1047F800500100201800002008B501224FF48071F4
:104808000448FCF73BFE0520FCF744F9BDE80840E6
:1048180000F0D8BC000C014070B58AB0274B284A7C
:10482800284903A8012401F0C5F8402500F0C2FC7E
:1048380000210194084600958023234A00F0C0FA1D
:1048480000212B4680220846009400F0F1FB00F07E
:104858008FFC4FF4FA60FCF71DF900F0ABFC0A215D
:104868001A4E084600F0ECFA22463146184800F085
:1048780039FB16210A2000F0E3FA22463146154892
:1048880000F030FB22210A2000F0DAFA22463146F5
:1048980003A800F027FB00212B460846802200943D
:1048A80000F0C6FB00F064FC4FF47A70FCF7F2F8F5
:1048B80000F080FC00F05CFC0AB070BD8E7B000844
:1048C8009A7B00089E7B00084277000808000020B9
:1048D800A57B0008B37B00082DE9F04F04464FF094
:1048E800090887B09DF84050DFF8F8A000201E4660
:1048F8001746DFF8F4908B4600F032FA05210320C2
:1049080000F09EFA2A46514602A801F053F849469B
:10491800012202A800F0E6FAA4F57A7292FBF8F2F6
:1049280001240823D2B2009405210F2000F0C1FB16
:104938001421032000F084FA2A195146D2B202A8A1
:1049480001F038F82246494602A800F0CBFAABF548
:104958007A7292FBF8F20823D2B2009414210F2045
:1049680000F0A7FB2221032000F06AFAAA1C514696
:10497800D2B202A801F01EF82246494602A800F069
:10498800B1FAA7F57A7292FBF8F20823D2B2009432
:1049980022210F2000F08DFB3021032000F050FA77
:1049A800EA1C5146D2B202A801F004F82246494650
:1049B80002A800F097FAA6F57A7292FBF8F2009432
:1049C8000823D2B230210F2000F073FB00214023CE
:1049D80080220846009400F02BFB00F0C9FB07B0CA
:1049E800BDE8F08F427B00080800002030B504467F
:1049F8008BB000200D4600F0B3F92246134903A8F6
:104A080000F0D8FF0A21124C084600F019FA214696
:104A1800012203A800F066FA2A460E4903A800F00E
:104A2800C9FF16210A2000F00BFA2146012203A82B
:104A380000F058FA00210123802200930846402301
:104A480000F0F6FA00F094FB0BB030BD737B000861
:104A580008000020817B000830B505468BB0002097
:104A680000F07EF92A68224903A800F0A3FF0A2172
:104A7800204C084600F0E4F92146012203A800F082
:104A880031FA2A7B1C4903A800F094FF16210A205A
:104A980000F0D6F92146012203A800F023FA6A7B28
:104AA800164903A800F086FF22210A2000F0C8F961
:104AB8002146012203A800F015FAAA68104903A8A4
:104AC80000F078FF2E210A2000F0BAF921460122D1
:104AD80003A800F007FA002101238022009308466A
:104AE800402300F0A5FA00F043FB0BB030BD00BF37
:104AF800C07B000808000020CF7B0008DD7B000891
:104B0800EB7B0008F0B504468BB000201E460D462E
:104B1800174600F025F922461F4903A800F04AFF6E
:104B28000A211E4C084600F08BF92146012203A8F1
:104B380000F0D8F93A461A4903A800F03BFF1621BD
:104B48000A2000F07DF92146012203A800F0CAF9E5
:104B5800BDF840303246134903A800F02BFF22214C
:104B68000A2000F06DF921460124012203A800F073
:104B7800B9F96A090094062330210F2000F099FA48
:104B88000021402380220846009400F051FA00F0EA
:104B9800EFFA0BB0F0BD00BF487B0008080000200A
:104BA800567B0008637B00084FF47A73401A584319
:104BB800521A90FBF2F0184480B2984238BF184657
:104BC800B0F5FA6F28BF4FF4FA60704710B1024B86
:104BD80083F85800704700BF6408002000000000F8
:104BE8002DE9F047404C054694F85830012B1FD169
:104BF80080894FF448620021FFF7D6FF40F6B836A7
:104C0800301A208068894FF448620021FFF7CCFFF2
:104C18006080E8894FF448620021FFF7C5FF301A29
:104C2800A080288A4FF448620021FFF7BDFFE0808A
:104C3800288840F63E620FF2A009D9E900890021D0
:104C4800FFF7B2FF2081688840F64C620021FFF729
:104C5800ABFF6081A8884FF47A620021FFF7A4FFB8
:104C6800A081E8884FF47A620021FFF79DFFE08178
:104C7800688A4FF47A620021FFF796FF2082A88A9B
:104C88004FF47A620021FFF78FFFA082174C04F1DE
:104C9800080A6088FBF71EFC42464B46FBF780FC7F
:104CA800064634F8140C0F46FBF714FC0CA3D3E9A2
:104CB8000023FBF775FC02460B4630463946FBF7E6
:104CC800BDFAFBF77FFE24F8020FA245E1D1BDE84B
:104CD800F08700BFAFF30080666666666666EE3FE3
:104CE8009A9999999999A93F640800207808002011
:104CF8002DE9F34106460C460146154800F0DEFD55
:104D080000253227DFF8548054B92146114800F0B5
:104D1800D5FD2946104802B0BDE8F04100F0CEBDEF
:104D2800013CA4B20120FBF7B5FEB4FBF7F307FB87
:104D3800134338F816109BB28D4238BF0D46002B2E
:104D4800E2D1009522463046FFF7DCFEDCE700BFE3
:104D5800F97B0008197C0008247C00084C08002016
:104D680000284FF4806214BFFF210021014800F0A1
:104D78009CBD00BF580100207F2810B51AD83F29D4
:104D880018D80D4B1B7913B1B2FA82F25209CC082C
:104D9800012A0A4B01F0070100EBC41004D18A4034
:104DA800195C0A431A5410BD01228A40195C21EA91
:104DB8000201195410BD00BF520100205801002003
:104DC8002DE9F04F87B09846BDF940300025029391
:104DD8000823934608F1070292FBF3F282468946BC
:104DE8002E462C4601929DF844200492029932B234
:104DF800914222DD06EB090292B20027039215E0E8
:104E0800B8B2410705BF92FBF3F20BEB0501640052
:104E18008C5C18BFE4B2220607D55044049A039963
:104E280080B20593FFF7A8FF059B01373AB24245C8
:104E3800E6DB019A01361544D8E707B0BDE8F08FE4
:104E4800014B188059807047520100202DE9F04F1E
:104E5800234D93462E880A7885B032447F2A8246AD
:104E68000C4639DC6B884A7801931A443F2A33DCB4
:104E78000027A0F1200303936278974206D3227893
:104E880016442E80504605B0BDE8F08F4FF000085C
:104E9800039B616802FB037231F812300293019B95
:104EA80003EB07091FFA89F92278904501D30137E6
:104EB800E2E7029B06EB080003FA08F212F4004F3F
:104EC8000ABFBBFA8BF25A465209494680B2FFF72D
:104ED80053FF08F10108E7E74FF0000AD2E700BFE7
:104EE8005201002070B50D461646441E637843B142
:104EF800184632462946FFF7A9FF14F8013F9842A1
:104F0800F4D0184670BD7F2828BF7F207F2A28BF8D
:104F18007F223F2928BF3F213F2B28BF3F232DE970
:104F2800F04F85B09DF83840904201949146044670
:104F38000D461E4611D2A2EB000A8B420FFA8AFADE
:104F480071D84C45A5EB06073FB22CBF4FF0FF3B8D
:104F58004FF0010B4FF0FF330AE0A0EB020A8B423F
:104F68000FFA8AFAEDD94FF0FF3B5F1A3FB20123DF
:104F78004FF002085745A5BF97FBF8F8C8F100089D
:104F88009AFBF8F80FFA88F8BAF1000F16D1AE427A
:104F98003EBF2B4635461E464C4528BF4C46A4B25C
:104FA8002DB2B54202DD05B0BDE8F08FADB229469D
:104FB800019A2046FFF7E0FE0135F1E7FFB1CAF19B
:104FC80000020292019A294620460393FFF7D4FE75
:104FD8004C45039B01D1B542E5D0029A9045C1BF2B
:104FE800A8EB07025C4412B2A4B2D8BF4246B84547
:104FF80003DA52441D4412B2ADB29046E2E7B5421C
:1050080028BF35464C45ADB202D923464C46994691
:1050180024B24C45C7DCA4B22046019A2946FFF7C2
:10502800ABFE0134F4E75F1A3FB24FF0010B9EE785
:105038002DE9F3417F2807460E461D469DF820803E
:1050480034D83F2932D883187F2BC8BFC0F18002DB
:1050580001EB0503C8BF92B23F2BC4BFC1F14005A5
:10506800ADB2024494B23544ADB20B462246CDF8F7
:105078000080FFF748FF2B46224629463846CDF8E0
:105088000080FFF740FF2B463A4631463846CDF8B8
:105098000080FFF738FF2B46224631462046CDF8E0
:1050A800208002B0BDE8F041FFF72DBF02B0BDE897
:1050B800F0812DE9F7437F2806460F461D469DF8E7
:1050C80028801AD83F2918D84FF0000983187F2B59
:1050D800C8BFC0F1800201EB0503C8BF92B23F2BE5
:1050E800C8BFC1F140050244C8BFADB294B25FFA6F
:1050F80089F39D4209F1010902D203B0BDE8F083AA
:105108003B449BB2CDF80080224619463046FFF753
:10511800FAFEECE730B5C3B08DF8081000214C1C3E
:10512800C9B299420AD30A220133009201469BB2BE
:1051380002AA0548FCF72EFC43B030BD02AD0D4471
:10514800515C69702146EAE7E40500201FB50A238F
:105158008DF80C108DF80D2000930146022303AA48
:105168000248FCF717FC05B05DF804FBE4050020D5
:1051780038B500240E4DA4F15002D2B20021782097
:10518800FFF7E4FF002278201146FFF7DFFF102227
:1051980000217820FFF7DAFF05EBC41280234021B5
:1051A80078200134FFF7B6FF082CE4D138BD00BFE2
:1051B8005801002008B50020FFF7D2FDBDE80840DF
:1051C800FFF7D6BF10B544F6206301227821524874
:1051D800FCF7D0FF0446002840F09C800146AE2230
:1051E8007820FFF7B3FF214620227820FFF7AEFF93
:1051F800214610227820FFF7A9FF2146B022782007
:10520800FFF7A4FF2146C8227820FFF79FFF224618
:1052180021467820FFF79AFF214610227820FFF7D1
:1052280095FF214640227820FFF790FF21468122F2
:105238007820FFF78BFF2146FF227820FFF786FFB3
:105248002146A1227820FFF781FF2146A622782057
:10525800FFF77CFF2146A8227820FFF777FF214639
:105268003F227820FFF772FF2146A4227820FFF71B
:105278006DFF2146D3227820FFF768FF224621469A
:105288007820FFF763FF2146D5227820FFF75EFFDD
:105298002146F0227820FFF759FF2146D9227820AD
:1052A800FFF754FF214622227820FFF74FFF2146BF
:1052B800DA227820FFF74AFF214612227820FFF7EA
:1052C80045FF2146DB227820FFF740FF21462022B8
:1052D8007820FFF73BFF21468D227820FFF736FF25
:1052E800214614227820FFF731FF2146AF2278208B
:1052F800FFF72CFF2E2221467820FFF727FF2046B4
:10530800FFF72EFDFFF734FF0120044B58711C8076
:105318005C8010BD002010BDE40500205201002073
:105328000E4B82B09A6942F001029A619A6902F0C2
:1053380001020092009ADA6942F08052DA61DB6970
:10534800074A03F080530193019B536823F0E063FD
:1053580043F00073536002B0704700BF0010024072
:1053680000000140102230B5054689B00DEB02005F
:10537800002100F09AFA2A682C4B9A4254D103F57E
:105388006C439A69032442F400729A619A6904A9E9
:1053980002F400720092009A9A69254842F01002BD
:1053A8009A619A6902F010020192019A9A6942F090
:1053B80004029A619A6902F004020292029A9A69B6
:1053C80042F008029A619B69059403F0080303936D
:1053D800039B3F230493FBF765FFE12304A91548CA
:1053E80004930594FBF75EFF0123134804A9049373
:1053F8000594FBF757FF8022104C114BE2604FF4E5
:10540800807222614FF4806223606261002320224F
:1054180020466360A360A261E361FBF7E9FD08B180
:10542800FEF740FC2C62656209B030BD00240140E3
:105438000010014000080140000C0140EC0600206B
:105448000800024010B504468AB01022002106A8C0
:1054580000F02BFA2368264A934227D1254C06A947
:10546800E369254843F48003E361E36903F48003B7
:105478000193019BA36943F00803A361A36903F0A7
:1054880008030293029BC023069312230793032366
:105498000993FBF707FFE36943F40013E361E3694A
:1054A80003F400130393039B0AB010BD134A9342FD
:1054B800FAD1104C06A9A3690F4843F00803A36169
:1054C800A36903F008030493049B4FF44063069315
:1054D8001223079303230993FBF7E4FEE36943F4DC
:1054E8008003E361E36903F480030593059BDBE72D
:1054F8000054004000100240000C014000580040D9
:1055080030B51024054687B02246002102A800F0D5
:10551800CCF92A68184B9A422CD103F560439A6952
:1055280002A942F480529A619A69144802F480529E
:105538000092009A9A6942F008029A619B6903F006
:1055480008030193019B2823029302230393032357
:105558000593FBF7A7FE002302A9084803930493C9
:105568000294FBF79FFE064A536843F0E06343F05A
:105578000103536007B030BD00300140000C01400A
:105588000000014010B5044686B01022002102A890
:1055980000F08BF92268114B9A421CD103F5644341
:1055A8009A6902A942F400629A619A690C4802F465
:1055B80000620092009A9A6942F004029A619B691B
:1055C80003F004030193019B4FF4407302930123FA
:1055D8000493FBF767FE06B010BD00BF002C014026
:1055E8000008014007B50D4B02689A4212D103F535
:1055F8000033DA69362042F01002DA610022DB69F2
:10560800114603F010030193019BFBF799FC362028
:10561800FBF7CAFC03B05DF804FB00BF00100040B4
:10562800102210B5044688B00DEB0200002100F0EE
:105638003CF923682F4A934227D12F4B04A9DA69F2
:105648002E4842F40032DA61DA6902F4003200923C
:10565800009A9A6942F004029A619B6903F0040374
:105668000193019B042304930223059303230793C7
:10567800FBF718FE08230493002304A91F48059389
:105688000693FBF70FFE08B010BD1D4A9342FAD1EE
:10569800194B04A9DA691B4842F48022DA61DA69F5
:1056A80002F480220292029A9A6942F010029A61E8
:1056B8009B6903F010030393039B4FF480630493E7
:1056C8000223059303230793FBF7ECFD4FF40063D4
:1056D8000493002304A90B4805930693FBF7E2FD06
:1056E800094A536823F0300343F0E06343F01003A2
:1056F8005360C8E700440040001002400008014021
:105708000048004000100140000001407047FEE7DB
:10571800FEE7FEE7FEE7704770477047FBF7A8B95A
:105728000148FBF7E3BC00BFEC0600204FF48060A3
:10573800FBF7B0BE0148FDF7E8BB00BF300700200B
:1057480070B50E4615460C46A31B9D4201DC284643
:1057580070BDAFF3008004F8010BF5E708B50A4BFC
:105768000246196809B90949196069461868024466
:105778008A4206D900F064F80C2303604FF0FF302A
:1057880008BD1A6008BD00BF58050020D4080020D5
:105798004FF0FF3070474FF4005300204B607047C4
:1057A80001207047002070470F4B1A6842F0010231
:1057B8001A6059680D4A0A405A601A6822F08472C1
:1057C80022F480321A601A6822F480221A605A6819
:1057D80022F4FE025A604FF41F029A604FF00062F2
:1057E800034B9A60704700BF001002400000FFF8AA
:1057F80000ED00E0002103E00B4B5B5843500431FF
:105808000A480B4B42189A42F6D30A4A02E0002390
:1058180042F8043B084B9A42F9D3FFF7C5FF00F062
:1058280015F8FDF787FF7047E87C000800000020A6
:105838008800002088000020D4080020FEE700002F
:10584800014B1868704700BF2400002070B5002580
:105858000C4E0D4CA41BA410A54209D101F05CF913
:1058680000250A4E0A4CA41BA410A54205D170BD00
:1058780056F8253098470135EEE756F82530984711
:105888000135F2E7E07C0008E07C0008E07C0008D5
:10589800E47C000810B5431E0A44914200D110BDB3
:1058A80011F8014B03F8014FF7E70346024493420E
:1058B80000D1704703F8011BF9E700000FB40A4B49
:1058C80013B51C6824B1A36913B9204600F050FA37
:1058D80005AB049AA1682046019300F059FD02B077
:1058E800BDE8104004B070472400002070B50E4693
:1058F800054618B183690BB900F03AFAAB69AC6890
:1059080013B9284600F034FA234B9C4217D16C682F
:10591800A3891B071DD52369DBB1013EA36816F8CF
:10592800011F013BA360E9B9002B2EDA22460A21A8
:10593800284600F06BF8013011D00A2070BD174BD3
:105948009C4201D1AC68E3E7154B9C4208BFEC6868
:10595800DEE72146284600F0ABF80028DDD04FF0FE
:10596800FF3070BD002B04DAA269934206DB0A29D6
:1059780004D023685A1C22601970CFE722462846B3
:1059880000F044F80130C9D1E9E70A2023685A1C1D
:105998002260187070BD00BF6C7C00088C7C000809
:1059A8004C7C0008024B01461868FFF79FBF00BFF8
:1059B800240000200EB44FF4027100B59CB0ADF87D
:1059C80014106FF00041049107914FF6FF711DAB61
:1059D80002900690084853F8042BADF8161000689A
:1059E80002A9019300F0B8FB0022029B1A701CB0B8
:1059F8005DF804EB03B0704724000020034611F85B
:105A0800012B03F8012B002AF9D17047F8B50E468F
:105A18001446054618B183690BB900F0A9F9214B62
:105A28009C422AD16C68A369A360A3891A072ED562
:105A3800236963B323692068F6B2C01A63693746DD
:105A4800984204DB2146284600F028F928BBA368C1
:105A58000130013BA36023685A1C22601E706369F1
:105A6800984204D0A389DB0719D50A2E17D12146FD
:105A7800284600F013F990B10FE00B4B9C4201D17E
:105A8800AC68D0E7094B9C4208BFEC68CBE72146DD
:105A9800284600F00DF80028CCD04FF0FF373846E4
:105AA800F8BD00BF6C7C00088C7C00084C7C0008AA
:105AB800324B70B51D6806460C4625B1AB6913B963
:105AC800284600F055F92E4B9C420FD16C68B4F96A
