:020000040800F2
:1000000000C00020E1440008014400080344000847
:1000100005440008074400080944000800000000E7
:100020000000000000000000000000000B44000879
:100030000D440008000000000F44000811440008AF
:1000400029450008294500082945000829450008D8
:1000500029450008294500082945000829450008C8
:1000600029450008294500082945000815440008CD
:1000700029450008294500082945000829450008A8
:100080002945000829450008294500082945000898
:100090002945000829450008294500082945000888
:1000A0002945000829450008294500082945000878
:1000B0002945000829450008294500082945000868
:1000C0002945000829450008294500082945000858
:1000D0002945000829450008294500082945000848
:1000E0002945000829450008294500082945000838
:1000F0002945000829450008294500082945000828
:100100002945000829450008294500082945000817
:100110002945000829450008214400082945000810
:1001200029450008294500082945000829450008F7
:1001300000000000000000000000000000000000BF
:1001400000000000000000000000000000000000AF
:10015000000000000000000000000000000000009F
:10016000000000000000000000000000000000008F
:10017000000000000000000000000000000000007F
:10018000000000000000000000000000000000006F
:10019000000000000000000000000000000000005F
:1001A000000000000000000000000000000000004F
:1001B000000000000000000000000000000000003F
:1001C000000000000000000000000000000000002F
:1001D000000000000000000000000000000000001F
:0401E0005FF8E0F1F3
:1001E40010B5054C237833B9044B13B10448AFF36D
:1001F40000800123237010BD800000200000000057
:100204000458000808B5034B1BB103490348AFF376
:10021400008008BD0000000084000020045800088D
:10022400034613F8012B002AFBD1181A0138704732
:1002340038B50E4B054618784FF47A73B3FBF0F3D8
:100244000B4A1068B0FBF3F000F0D2FA044658B938
:100254000F2D09D8024629464FF0FF3000F086FAE8
:10026400044B20461D6038BD012038BD000000202D
:100274001800002004000020074A08B51368032072
:1002840043F01003136000F05FFA0020FFF7D0FF83
:1002940003F0C8FE002008BD00200240034A044BBE
:1002A40011681B780B441360704700BF5C05002085
:1002B40000000020014B1868704700BF5C05002057
:1002C40038B50446FFF7F6FF0546631C1EBF044B12
:1002D4001B78E418FFF7EEFF401B8442FAD838BDC0
:1002E400000000207047436A10B59A6A12F0500F5C
:1002F4001BD19A6A42F400729A621A68926802F4F4
:100304006022B2F5602F0CD11A7B52B99A6A22F49A
:1003140080729A629A6AD2045EBF9A6A42F00102BB
:100324009A621846FFF7DEFF10BD1B6ABDE8104055
:100334001B6B1847704708B5406AFFF7FBFF08BD01
:100344007047406A08B5836A43F040038362C36A16
:1003540043F00403C362FFF7F3FF08BD002373B542
:10036400019390F82430012B74D001234D6880F858
:100374002430062D02684FEA85030C6825D82B44E7
:100384001F25566B053B9D4026EA050504FA03F339
:100394002B435363092C4FEA44038D682FD9072656
:1003A4002344D1681E3B9E4021EA060105FA03F36B
:1003B4000B43D360A4F11003012B2BD9002300229B
:1003C40080F82420184602B070BD0C2D0BD82B44A5
:1003D4001F25166B233B9D4026EA050504FA03F30B
:1003E4002B431363D6E72B441F25D66A413B9D401C
:1003F40026EA050504FA03F32B43D362CAE707266A
:10040400116923449E4021EA060105FA03F30B43D4
:100414001361CFE7104B9A4216D193681B02CDD4D7
:100424009368102C43F400039360C7D10B4B0C4A20
:100434001B68B3FBF2F20A2353430193019B002B85
:10044400BCD0019B013BF8E7836A43F0200383623D
:100454000123B4E70223B5E700240140180000207B
:1004640040420F00002373B50193036804469A6861
:10047400D20702D5002002B070BD9A6842F0010292
:100484009A60124B124A1B68B3FBF2F30193019B6F
:10049400C3B9FFF70FFF064623689D6815F00105F1
:1004A400E8D1FFF707FF801B0228F5D9A36A84F877
:1004B400245043F01003A362E36A012043F00103D4
:1004C400E362D8E7019B013BE0E700BF180000208E
:1004D40040420F002DE9D8419046404B0268044643
:1004E4009A420F4602D03E498A4203D15B6813F414
:1004F400702F6ED194F82430012B6CD00123204648
:1005040084F82430FFF7AEFF064600285DD1A06AC8
:10051400216820F47060324B20F0010040F48070B8
:100524009942A06204D12D4A536813F4702F3ED12E
:10053400A36A23F48013A3624B685A0505D5A36A02
:1005440023F4405343F48053A362A36A206A13F450
:10055400805318BFE36A3A4618BF23F00603E362E8
:10056400002384F824301F4B4C3183621E4BC3623A
:100574001E4B03636FF0020341F84C3C51F8443CBA
:1005840043F4807341F8443C434600F087F9236800
:100594009A6802F46022B2F5602F9A680CBF42F4A4
:1005A400A00242F480129A603046BDE8D881A36A62
:1005B40043F48013A36253685B0541BFA06A20F42F
:1005C400405040F48050A062BFE7002384F82430F8
:1005D400EAE70126E8E70226E6E700BF0024014037
:1005E40000280140EB0200083B0300084703000811
:1005F40038B5036804469A68D20701D4002038BD90
:100604009A6822F001029A60FFF754FE05462368B7
:100614009B68DB07F2D5FFF74DFE401B0228F6D995
:10062400A36A012043F01003A362E36A43F00103C9
:10063400E36238BDF8B50446002877D0836A23B94D
:10064400C36280F8243003F00FFD2046FFF7D0FF8B
:10065400A36A13F010036BD1002869D1A26A374949
:1006640022F4885222F0020242F00202A26294E8CA
:1006740024008A42E16904D1B1F5402F08BF4FF448
:100684000021267B45EA46052943A568B5F5807F08
:1006940035D0012D08BF4FF48073277D012F06D17B
:1006A4007EBBA669013E43EA463343F400635668C1
:1006B400B5F5807F26F4694643EA060353609668DD
:1006C4001F4B03EA060343EA0103936001D0012DA3
:1006D40020D12369013B1B05D56A25F470052B4302
:1006E400D3629268174B1340994215D10023E362F9
:1006F400A36A23F0030343F00103A362F8BD2B466E
:10070400CBE7A66A46F02006A662E66A46F0010632
:10071400E662CCE70023DFE7A36A23F0120343F089
:100724001003A362E36A43F00103E3620120F8BD0E
:10073400A36A43F01003A362F8E700BF003C014042
:10074400FDF7E1FFFE0E1FFF074A0002D36800F425
:10075400E06023F4E0631B041B0C43F0BF6343F429
:1007640000330343D360704700ED00E0174B30B50E
:10077400DC68C4F30224C4F10703251D042B28BF3D
:100784000423062D4FF0010598BF002405FA03F356
:1007940003F1FF3388BF033C1940A14005FA04F478
:1007A400013C2240002842EA01024FEA0212A9BF9A
:1007B40000F16040064BD2B200F56140BBBF00F0CF
:1007C4000F00D2B280F800231A5430BD00ED00E0CF
:1007D40014ED00E0002808DB0123420900F01F00AB
:1007E40003FA00F0014B43F82200704700E100E0F7
:1007F4000138B0F1807F0AD2F021064B064A5860D6
:1008040082F823100020072298601A6070470120A4
:10081400704700BF10E000E000ED00E010B50028D4
:1008240032D00168194B1424994225D8184AA3F2EE
:1008340007430A44B2FBF4F2920002648468C3637F
:1008440043680A682343C46822F47F52234304693B
:1008540022F0300223434469234384692343C46957
:10086400234313430B600122002380F82120836378
:1008740080F82030184610BD064B0B44B3FBF4F34C
:100884009B000364044BD9E7012010BD0704024018
:10089400F8FFFDBFF8FBFDBF00040240F0B590F87F
:1008A4002040012C35D0012490F8215080F82040BC
:1008B400A5424FF000064FF0020428D180F82140F1
:1008C400046886632668076C26F001062660C66BFA
:1008D400BD407560636043680568102BC36A0BBF35
:1008E400A260A160E160E2604BB1236843F00E03B3
:1008F40023602B68002043F001032B60F0BD2368C4
:1009040023F004032360236843F00A03F0E780F82C
:1009140020600220F0BD000070B40425C66B026C98
:100924003468036895402542196855D04D0753D55E
:100934001A6896065EBF1A6822F004021A60604ABA
:1009440093421FD902F56272934214D01432934237
:1009540013D01432934212D0143293420CBF4FF48A
:1009640080434FF48023574A5360C36A002B00F03E
:10097400A58070BC18470423F5E74023F3E74FF440
:100984008063F0E750498B4216D014318B4215D066
:1009940014318B4214D014318B4214D014318B4255
:1009A40014D014318B4214D0934214BF4FF48023DB
:1009B4004FF08063454AD7E70423FBE74023F9E778
:1009C4004FF48063F6E74FF48043F3E74FF480235A
:1009D400F0E74FF48003EDE702259540254257D018
:1009E4008D0755D51A68940606D41A6822F00A02AF
:1009F4001A60012280F82120314A93421ED902F55F
:100A04006272934213D01432934212D0143293423E
:100A140011D0143293420CBF4FF400534FF40033FF
:100A2400284A5360002380F82030836A9EE702231B
:100A3400F6E72023F4E74FF40073F1E722498B42F1
:100A440016D014318B4215D014318B4214D014318A
:100A54008B4214D014318B4214D014318B4214D0F5
:100A6400934214BF4FF400334FF00073174AD8E792
:100A74000223FBE72023F9E74FF40073F6E74FF472
:100A84000053F3E74FF40033F0E74FF40013EDE7BE
:100A940008259540254211D009070FD5196821F082
:100AA4000E011960012303FA02F27260836380F875
:100AB4002130002380F82030036B57E770BC704767
:100AC400800002400004024008000240000002408E
:100AD4002DE9F74F002426466C4F6D4BDFF8B8E143
:100AE400DFF8B8C10A6832FA06F502D103B0BDE8EE
:100AF400F08F4FF0010808FA06F802EA0802904560
:100B040040F084804D68122D00F0B18000F287809F
:100B1400022D00F0A9807BD8002D00F08C80012DDF
:100B240000F0A0804FF00F09FF2A93BF824606F120
:100B34008045083DD0F800B092BFB500D0F804B0AD
:100B4400AD0009FA05F82BEA080804FA05F588BF90
:100B540000F1040A48EA0505CAF80050D1F804A0D7
:100B64001AF0805F52D0BD6926F0030845F00105F4
:100B7400BD61BD6908F1804805F00105019508F5DE
:100B8400803806F0030B019D4FEA8B0BD8F8085010
:100B940009FA0BF925EA09093E4DA8426CD005F57E
:100BA4008065A8426AD005F58065A84268D005F53D
:100BB4008065A84266D005F58065A84264D070457A
:100BC4000CBF0525062505FA0BF545EA0905C8F805
:100BD40008501D681AF4803F14BF154395431D60E7
:100BE4005D681AF4003F14BF154395435D609D682A
:100BF4001AF4801F14BF154395439D60DD681AF4F1
:100C0400001F14BF2A4325EA0202DA60013669E7AD
:100C1400032D25D0112D85D1CC68043482E7654598
:100C240009D012D8DFF878904D4504D009F5803901
:100C34004D457FF477AF8C68E4B1012C0CBFC0F84C
:100C44001080C0F8148008246CE7DFF858904D45F4
:100C5400F1D009F580394D45EDD0A9F58019E7E7C4
:100C640000245FE7CC685DE7CC6808345AE7CC68B9
:100C74000C3457E7042455E70025A4E70125A2E72F
:100C84000225A0E703259EE704259CE70010024007
:100C94000004014000080140001C01400000211034
:100CA40000001110000031100AB1016170470904FD
:100CB400FBE7C3680B4214BF4161016170470168DF
:100CC40000224B6913F4806310D06FF480634B618E
:100CD4002023026380F83D3080F83E20036C80F8C6
:100CE4003C2043F004030364012070471846704716
:100CF4002DE9F843044617469946C1F307488EB2D6
:100D04002568B8F1010F0CBF6B69AB6936EA0303C0
:100D140014BF0120002008B9BDE8F8836B695A05A7
:100D240016D52B68202243F400732B606FF4806384
:100D34006B610023236384F83D2084F83E30226CE9
:100D440042F00402226484F83C300120BDE8F883B8
:100D54007B1CD5D0FFF7AEFAA0EB0900874201D384
:100D6400002FCDD100232022236384F83D2084F872
:100D74003E30226C42F02002E4E770B504460D4692
:100D8400164623685B695B0701D5002070BD2046C9
:100D9400FFF795FFA8B96A1CF3D0FFF78BFA801B05
:100DA400854201D3002DECD100232022236384F853
:100DB4003D2084F83E30226C84F83C3042F020021E
:100DC4002264012070BD70B504460D4616462068A5
:100DD400436913F0400301D0002070BD4269D2067C
:100DE4000ED56FF0100242612022236384F83D2067
:100DF40084F83E30226C226484F83C30012070BDBB
:100E0400FFF758FA801BA84201D8002DDFD1002338
:100E14002022236384F83D2084F83E30226C42F083
:100E24002002E8E72DE9F843044690461F46089E51
:100E3400C1F307498DB22368B9F1010F0CBF5B6997
:100E44009B6935EA03030CBF01230023434502D009
:100E54000020BDE8F8837B1CEDD0FFF72BFA801B44
:100E6400874201D3002FE6D100232022236384F894
:100E74003D2084F83E30226C84F83C3042F020025D
:100E840022640120BDE8F88370B504460D46164679
:100E940023685B691B0601D5002070BD2046FFF75F
:100EA4000EFFA8B96A1CF3D0FFF704FA801B854231
:100EB40001D3002DECD100232022236384F83D20AC
:100EC40084F83E30226C84F83C3042F020022264E4
:100ED400012070BD70B5044608B9012070BD90F8BA
:100EE4003D3003F0FF021BB980F83C2003F02CF9DD
:100EF4002423226884F83D30136823F0010313602F
:100F040000F0F4FD6568414B9D424DD8404B98423A
:100F1400E3D940492268B0FBF1F1536823F03F0361
:100F24000B435360136A23F03F03013119431162E9
:100F3400D169364B21F44F419D4221F0FF0100F16C
:100F4400FF3048D86D00B0FBF5F00130C0F30B035F
:100F5400042B38BF04230B43D3611168206AE3696F
:100F640021F0C00103430B4313609168E0682369D7
:100F740021F40341034321F0FF010B439360D16843
:100F8400A069636921F0FF0103430B43D360136835
:100F9400002043F0010313602023206484F83D30D3
:100FA400206384F83E0070BD1B4B984295D9194EBE
:100FB4004FF49671B0FBF6F622687143536823F040
:100FC4003F0333434FF47A765360136AB1FBF6F16F
:100FD40023F03F03A9E7A36853B905EB4503B0FB2E
:100FE400F3F0431CC3F30B036BB143F40043B2E7C8
:100FF40019236B43B0FBF3F0431CC3F30B0313B18E
:1010040043F44043A7E70123A5E700BFA0860100FE
:101014007F841E0040420F00FF083D002DE9FF4180
:1010240004461F460D469046FFF744F994F83D30B8
:101034000646202B04D00225284604B0BDE8F081E2
:1010440000901923012258492046FFF7EBFE00289F
:10105400F1D194F83C30012BEDD0012384F83C30DD
:1010640023681A68D2075EBF1A6842F001021A6048
:101074001A6822F400621A60212284F83D201022AA
:1010840084F83E20002222646785628DC4F824809F
:101094002285464AE262E26A082A04D0012A02D082
:1010A40012F5803F04D11A6842F480721A6002E09B
:1010B400226B122AF7D000960A9B00224FF00111EE
:1010C4002046FFF7AFFE08B10125B5E72369226882
:1010D400B3F5804F13D105F0FE05156133460A9A26
:1010E40033492046FFF704FE05460028ECD1236867
:1010F40003905A6903929B690393039B44E0EB11A9
:1011040003F0060343F0F00313612A4933460A9AB5
:101114002046FFF7EDFD0028D6D12368EDB21D610E
:10112400DCE732460A992046FFF7AEFE40B1236C55
:10113400042B01BF2268136843F400731360C3E7F0
:10114400636A20681A4612F8011B01616262628DAB
:10115400013A92B26285228D4769511E89B27F0796
:1011640021850AD549B15978023301616362638DDF
:10117400023A013B9BB26385228532460A99204696
:10118400FFF7FBFD0028D2D1238D002BC9D12168A4
:101194000A6842F400720A60202284F83C3084F821
:1011A4003D2084F83E3047E7020010000000FFFFB6
:1011B40002000100080001002DE9F043044689B053
:1011C40098460F469146109EFFF774F894F83D3008
:1011D4000546202B04D00227384609B0BDE8F08329
:1011E4000090192301229C492046FFF71BFE00288A
:1011F400F1D194F83C30012BEDD0012384F83C303C
:1012040023681A68D0075EBF1A6842F001021A60A8
:101214001A6822F400621A60222284F83D20102207
:1012240084F83E2000222264A4F82A80628DC4F847
:1012340024902285894AE262E26A1968082A41F404
:101244008061196004D0012A02D012F5803F04D1D4
:101254001A6842F480721A6002E0226B112AF7D0F5
:101264000095334600224FF001112046FFF7DAFDC6
:1012740008B10127B0E72369B3F5804F236843D150
:1012840047F00107FFB21F612B46324674492046DE
:10129400FFF72EFD07460028EBD1228D2368002A94
:1012A40066D0012A77D11A6822F480621A6072B675
:1012B400236804975A6904929A690492049A1A68F2
:1012C40042F400721A6062B6DFF89C81238D002B11
:1012D40058D0032B00F2CA80012B78D12A4631461C
:1012E4002046FFF770FD0028C3D12268636A1269A3
:1012F4001A70636A01336362238D013B2385638D16
:10130400013B9BB26385E1E74FEAE71808F0060862
:1013140048F0F0021A6153492B4632462046FFF743
:10132400E7FC0028A5D12368FFB21F6132462B4693
:101334004B492046FFF7DCFC0246002899D123687C
:101344000790596920460791996907910799196887
:1013540041F480711960009533464FF00111FFF795
:1013640061FD002885D1226848F0F10313618BE701
:1013740003975A6903929A690392039A1A6842F48A
:1013840000721A60202384F83D30002384F83E3034
:1013940084F83C3020E7022A1A680ED142F4006235
:1013A4001A6072B6236805975A6905929A6905927C
:1013B400059A1A6822F4806284E742F480621A6013
:1013C40006975A6906929B690693069B7CE7022B53
:1013D400009533464FF000024146204619D1FFF7ED
:1013E40021FD00287FF445AF72B623681A6842F4E1
:1013F40000721A601B69626A1370636A0133636264
:10140400238D013B2385638D013B9BB2638562B6CB
:101414006BE7FFF707FD024600287FF42AAF216837
:101424000B6823F480630B6072B62168636A0969F0
:1014340020461970636A009501336362238D414627
:10144400013B2385638D013B9BB263853346FFF7E4
:10145400E9FC0028C9D00CE7020010000000FFFFDF
:101464000200010008000100040001002A46314680
:101474002046FFF7A8FC00287FF4FBAE2268636ACD
:1014840012691A70626A531C6362238D013B2385BF
:10149400638D013B9BB263852368596949077FF5D6
:1014A40015AF1B69537024E72DE9F04F044685B04E
:1014B400984689469246FEF7FDFE94F83D3005466F
:1014C400202B03D0022005B0BDE8F08F0090192333
:1014D400012249492046FFF7A5FC0028F2D194F8DF
:1014E4003C30012BEED0012384F83C3023680127E3
:1014F4001A68DFF804B1D20758BF1A6809F0FE0968
:101504005CBF42F001021A601A6822F400621A6099
:10151400242384F83D3000232364A3F58033E3625D
:1015240022684FF001111368204643F4807313605E
:10153400009543460022FFF775FC08B10120C2E77D
:101544002368A026C3F81090FEF7B4FE054623686E
:101554005A695B69C2F34002C3F3802394F83D10D7
:10156400A02901D002B903B32026236884F83D6082
:101574005A6912F0020F1A6842F400721A6026D0F7
:10158400002203925A691C4903929B690122039326
:10159400039B009519232046FFF744FC0028CDD176
:1015A40084F83D6084F83C008DE7FEF783FE401B21
:1015B400804502D3B8F1000F01D184F83D6023685F
:1015C4005A695B69C2F34002C3F38023C6E76FF430
:1015D400806259465A612046009519230122FFF77B
:1015E40021FC0028AAD10137574599D384F83D60DE
:1015F40084F83C00A2E700BF020010002DE9F3418B
:10160400054608B901203CE00368DB0710D42B68C9
:101614009F075DD42B68190700F194802B685A0743
:1016240000F1BE80E869002840F02C81002028E009
:101634008F4C636803F00C03042B07D0636803F03A
:101644000C03082B09D16368DE0306D523689C03C9
:10165400DDD56B68002BDAD1D4E76B68B3F5803F36
:1016640012D1236843F480332360FEF723FE064639
:1016740023689803CBD4FEF71DFE801B6428F7D99A
:10168400032002B0BDE8F0819BB9236823F48033C2
:101694002360236823F480232360FEF70BFE0646B1
:1016A40023689903B3D5FEF705FE801B6428F7D998
:1016B400E6E7B3F5A02F236803D143F48023236026
:1016C400CFE723F480332360236823F48023CBE71C
:1016D400674C636813F00C0F07D0636803F00C03C6
:1016E400082B10D16368DA030DD423689B0702D555
:1016F4002B69012B86D123686A6923F0F80343EA36
:10170400C203236086E72A695A4B6AB101221A6030
:10171400FEF7D0FD064623689F07ECD4FEF7CAFD0A
:10172400801B0228F7D9ABE71A60FEF7C3FD064613
:10173400236898077FF56EAFFEF7BCFD801B022877
:10174400F6D99DE7AA694A4C4B4BDAB101221A60DB
:10175400FEF7B0FD0646636A9B070DD54FF4FA52B7
:10176400464B1B68B3FBF2F3019300BF019B5A1E67
:101774000192002BF9D151E7FEF79CFD801B022852
:10178400E9D97DE71A60FEF795FD0646636A9F076F
:101794007FF544AFFEF78EFD801B0228F6D96FE774
:1017A400334CE369D80024D40127E36943F0805320
:1017B400E361E36903F080530093009B304E336888
:1017C400D90518D5EB68012B26D1236A43F0010310
:1017D4002362FEF76FFD41F288368046236A9B0739
:1017E4003FD5002F3FF41EAFE36923F08053E3613C
:1017F40018E70027E2E7336843F480733360FEF7A9
:1018040059FD80463368DA05DCD4FEF753FDA0EBBE
:1018140008006428F6D933E7ABB9236A41F2883863
:1018240023F001032362236A23F004032362FEF7F7
:1018340041FD0646236A9807D3D5FEF73BFD801B7E
:101844004045F7D91CE7052B236A03D143F0040371
:101854002362BAE723F001032362236A23F004031B
:10186400B6E7FEF727FDA0EB0800B042B6D907E7BC
:10187400001002400000424280044242180000204E
:10188400007000402A4B5A681C4602F00C02082AD9
:101894003DD00023274E022833602BD1FEF70AFDEA
:1018A4000746236899011FD42B6AB3F5803F05D1FD
:1018B4006268A96822F400320A436260696A626855
:1018C4000B4322F474121343636001233360FEF765
:1018D400F1FC054623689A013FF5A8AEFEF7EAFC41
:1018E400401B0228F6D9CBE6FEF7E4FCC01B022815
:1018F400D7D9C5E6FEF7DEFC054623689B017FF5D4
:1019040095AEFEF7D7FC401B0228F6D9B8E60128AD
:101914003FF4B7AE58682B6A00F480329A427FF4E1
:1019240071AE6B6A00F47010C01A18BF0120A8E6EB
:10193400001002406000424230B5194B87B002AC3F
:1019440003F11005224618685968083303C2AB42F4
:101954001446F7D101238DF80430022311498DF880
:1019640005304B6803F00C02082A17D1C3F38342F5
:1019740006A80244DB0312F8102C0CD54B680A4865
:10198400C3F34043504306AA134413F8143CB0FB7A
:10199400F3F007B030BD05485043FAE70248F8E7D2
:1019A4001C5800080010024000127A0000093D0093
:1019B4002DE9F0410D46044610B90120BDE8F0813F
:1019C400454A136803F007038B4229D321688E0725
:1019D40031D4CA0744D4404A136803F007039D4234
:1019E40067D322683D4D12F0040F6ED1130706D55C
:1019F4006B68226923F4605343EAC2036B60FFF708
:101A04009BFF6B68364AC3F30313D35CD840354B52
:101A14001860354B1868FEF70BFC0020BDE8F08118
:101A2400136823F007030B431360136803F00703E1
:101A34009942C2D1CAE7294B11F0040F1EBF5A685C
:101A440042F4E0625A60080742BF5A6842F46052A6
:101A54005A605A68A06822F0F00202435A60B8E75C
:101A640062681E4E012A33681BD113F4003FA4D0D0
:101A7400736841F2883823F0030313437360FEF75D
:101A840019FC07467368626803F00C03B3EB820F1A
:101A9400A1D0FEF70FFCC01B4045F3D90320BDE8DD
:101AA400F081022A02D113F0007FE0E713F0020F65
:101AB400DDE7136823F007032B431360136803F077
:101AC40007039D427FF479AF8BE76B68E16823F4E9
:101AD400E0630B436B6089E7002002400010024082
:101AE4005F6800081800002004000020044B054A29
:101AF4005B68C3F30223D35C034A1068D840704781
:101B0400001002406F68000818000020044B054ACA
:101B14005B68C3F3C223D35C034A1068D8407047A0
:101B2400001002406F6800081800002003682DE9C7
:101B3400F341D907054620D5354CE369DA0032D4A0
:101B44000127E36943F08053E361E36903F08053C1
:101B54000193019B2F4E3368DB0526D5236A13F4CA
:101B6400407336D1236A6A6823F4407313432362B3
:101B74001FB1E36923F08053E3612868830706D526
:101B8400234AA968536823F440430B43536010F07D
:101B940010001BD01E4A69695368002023F4800397
:101BA4000B43536012E00027D4E7336843F4807397
:101BB4003360FEF77FFB80463368D805CED4FEF74A
:101BC40079FBA0EB08006428F6D9032002B0BDE835
:101BD400F0816A6802F440729342C3D001200E4A35
:101BE400236A1060002023F4407110602162D90739
:101BF400B8D5FEF75FFB41F288380646236A9A0798
:101C0400B0D4FEF757FB801B4045F7D9DDE700BF92
:101C1400001002400070004040044242F8B50446FF
:101C24000E4615461F4621688A6836EA020301D02B
:101C34000020F8BD6B1CF7D0FEF73CFBC01B8542AF
:101C4400F1D823685A6822F0E0025A606268B2F55B
:101C5400827F0AD1A268B2F5004F02D0B2F5806F3C
:101C640003D11A6822F040021A60A26AB2F5005F3A
:101C740007D11A6822F400521A601A6842F400521A
:101C84001A60012384F851300023032084F8503073
:101C9400F8BD38B5134642680446B2F5827F16D1C2
:101CA4008068B0F5004F02D0B0F5806F0FD1226884
:101CB400B0F5806F156825F04005156007D10A4618
:101CC40001212046FFF7AAFF20B9002038BD0A46AB
:101CD4008021F6E7636D032043F02003636538BD7C
:101CE40010B513460A4680210446FFF797FF20B13A
:101CF4000320636D43F02003636510BD10B50446F3
:101D0400002834D00023836290F8513003F0FF029E
:101D14001BB980F8502002F06DFA0223226884F87F
:101D240051301368A06823F0400313606368A1690D
:101D34000343E06803432069034360690343E069A4
:101D44000343206A0343A06A034301F40070090CAF
:101D5400034301F0040113605160D369002023F4AC
:101D64000063D3610123606584F8513010BD012004
:101D740010BD2DE9F3411E4690F850300446012B66
:101D84000D46904600F09C80012380F85030FEF709
:101D940091FA074694F85100C0B2012840F08E80B1
:101DA400002D5ED0B8F1000F5BD00323002084F82F
:101DB4005130A3686065A063A4F83680A087E087EB
:101DC400606420642068B3F5004F08BF036825638E
:101DD40008BF43F48043A4F8348008BF0360036859
:101DE4005B065EBF036843F040030360E368B3F53A
:101DF400006F63683ED113B1B8F1010F07D135F814
:101E0400023BC3602563E38E013B9BB2E386E38E12
:101E14009BB2A3B93A4631462046FFF761FF00283A
:101E240049D1A36833B901932368DA6801929B68A6
:101E34000193019B606D003018BF012011E02268FE
:101E44009368980705D5236B33F8021BD16023638D
:101E5400D9E7FEF72FFAC01BB042D8D3711CD6D0F5
:101E64000320012384F85130002384F8503002B059
:101E7400BDE8F08113B1B8F1010F08D12B780373D9
:101E8400236B01332363E38E013B9BB2E386E38E32
:101E94009BB2002BBED023689A68920703D5226BAD
:101EA40012781A73ECE7FEF705FAC01B8642EED8E7
:101EB400731CECD0D4E720236365B2E70220D0E79B
:101EC4000220D4E72DE9F7431E4690F8503004462B
:101ED400012B0D4691460A9F00F0E280012380F811
:101EE4005030FEF7E7F994F851308046DBB2012B0D
:101EF40061680AD0B1F5827F40F0D080A0680028E4
:101F040040F0CC80042B40F0C980002D00F0C48048
:101F1400B9F1000F00F0C080002E00F0BD8094F8ED
:101F24005130C4F83890042B1CBF052384F8513079
:101F340000236365236463642368E687E6861A687E
:101F4400A687500658BF1A68256358BF42F040025E
:101F5400A68658BF1A60E268B2F5006F58D109B17D
:101F6400012E07D135F8022BDA60E38E2563013B9D
:101F74009BB2E3860125E38E9BB2ABB9E38F9BB2A0
:101F840093B9424639462046FFF7AAFE002840F09E
:101F94008180A368002B32D123680190DA68019212
:101FA4009B680193019B2AE02268936899070DD5E9
:101FB400E38E9BB253B14DB10025236B33F8021B62
:101FC400D1602363E38E013B9BB2E3869368DB0716
:101FD4000CD5E38F9BB24BB10125D268A36B23F8D8
:101FE400022BA363E38F013B9BB2E387FEF762F905
:101FF400A0EB08008742BED87E1CBCD0032001237E
:1020040084F85130002384F8503003B0BDE8F083E5
:1020140009B1012E08D12A781A73236B0133236383
:10202400E38E013B9BB2E3860125E38E9BB21BB991
:10203400E38F9BB2002BA4D02268936898070ED537
:10204400E38E9BB25BB155B10025236B1B781373F0
:10205400236B01332363E38E013B9BB2E386226847
:102064009368D9070DD5E38F9BB253B10125D2688C
:10207400A36B1A70A36B0133A363E38F013B9BB281
:10208400E387FEF717F9A0EB08008742CDD87B1C45
:10209400CBD0B3E7202363650120B0E70220AEE78D
:1020A4000220B2E72DE9F3411D4643680446B3F527
:1020B400827F884617460CD1836853B9042380F87D
:1020C4005130134600950A46FFF7FCFE02B0BDE806
:1020D400F08194F85030012B79D0012384F85030EA
:1020E400FEF7E8F8064694F85100C0B201286CD116
:1020F400B8F1000F57D0002F55D0042384F8513085
:10210400002363652363E787A386E386236463640C
:10211400A368A787B3F5004F2368C4F8388002BFCB
:102124001A6822F480421A601A6857065EBF1A6859
:1021340042F040021A60E368F3B1E38F9BB2FBB153
:1021440023689A68D20735D5DA68A36B23F8022B83
:10215400A363E38F013B9BB2E387EEE723689A68AE
:10216400D00718D51B7BA26B1370A36B0133A36339
:10217400E38F013B9BB2E387E38F9BB2002BEDD14E
:10218400324629462046FFF784FDD8B9606D0030F9
:1021940018BF012007E0FEF78DF8801B8542EBD8BD
:1021A400691CE9D00320012384F85130002384F80A
:1021B40050308BE7FEF77EF8801B8542BDD86B1C40
:1021C400BBD0EFE720236365E0E70220EBE70220C2
:1021D4007CE703680020DA6842F00102DA609A685A
:1021E40002F00702062A1EBF1A6842F001021A60B2
:1021F40070477047704770477047036810B51A6995
:10220400044691070ED5DA6892070BD56FF00202E7
:102214001A6101229B6902779B0777D0FFF7EAFFD7
:102224000023237723681A69500710D5DA68510709
:102234000DD56FF004021A6102229B69227713F410
:10224400407F204668D0FFF7D5FF0023237723681B
:102254001A6912070FD5DA6810070CD56FF0080257
:102264001A610422DB692277990720465AD0FFF7C6
:10227400C1FF0023237723681A69D20610D5DA68D0
:10228400D0060DD56FF010021A610822DB6922779F
:1022940013F4407F20464BD0FFF7ACFF0023237795
:1022A40023681A69D10708D5DA68D20705D56FF013
:1022B400010220461A6100F061FD23681A691006C4
:1022C40008D5DA68110605D56FF0800220461A6138
:1022D40000F006F923681A69520608D5DA68500630
:1022E40005D56FF0400220461A61FFF785FF236889
:1022F4001A69910622D5DA6892061FD56FF020027A
:102304002046BDE810401A6100F0E9B8FFF771FFFC
:102314002046FFF770FF83E7FFF76BFF2046FFF7C8
:102324006AFF92E7FFF765FF2046FFF764FFA0E727
:10233400FFF75FFF2046FFF75EFFAFE710BD000029
:10234400244A0368904212D002F5006290420ED0F3
:10235400B0F1804F0BD0A2F59832904207D002F52D
:102364008062904203D002F5806290421DD14A6897
:1023740023F070031343174A904212D002F500620F
:1023840090420ED0B0F1804F0BD0A2F5983290421B
:1023940007D002F58062904203D002F58062904239
:1023A40003D1CA6823F4407313434A6923F08003BA
:1023B400134303608B68C3620B688362054B9842C6
:1023C40003D003F50063984201D10B690363012331
:1023D40043617047002C014010B50446A0B190F849
:1023E4003D3003F0FF021BB980F83C2001F072FF7E
:1023F4000223206884F83D30211DFFF7A1FF01234B
:10240400002084F83D3010BD012010BDF8B50C4605
:102414000546002843D090F83D3003F0FF021BB975
:1024240080F83C2001F028FF2946022351F8040BD0
:1024340085F83D30836823F4804323F007038360E9
:10244400FFF77EFF2868236886688269A1681E43B7
:10245400A36922F4407222F0030241EA03231343E6
:1024640023F47C422369E1691B0143EA0123E16807
:10247400076A0B43216A22F0FC0243EA0133134347
:10248400616927F02202676886608361012347EA55
:1024940001171743076285F83D300020F8BD01207D
:1024A400F8BD90F83C3030B5012B4FF0020314D046
:1024B400046880F83D306268A3680D68496822F0BA
:1024C400700223F080030B432A436260A36001235C
:1024D40080F83D30002380F83C30184630BD70470A
:1024E4007047000038B505460368C1681A691924A5
:1024F40022F440520A431A6182680069D96802438F
:10250400686921F4B05121F00C0102430A43DA60F6
:102514005A69A96922F440720A435A610D4A9342E6
:1025240014D1FFF7F3FA60436C686422A400B0FB93
:10253400F4F0B0FBF2F402FB14031B013233B3FBDF
:10254400F2F3296803EB04138B6038BDFFF7CEFA6E
:10255400E9E700BF00380140F8B504460E461746C7
:102564001D4621680B6836EA030301D10020F8BD3B
:102574006B1CF7D095B923680320DA6822F4D07273
:10258400DA605A6922F001025A61202384F8393052
:1025940084F83A30002384F83830F8BDFDF78AFE19
:1025A400C01B8542DDD2E6E710B5044640B390F87F
:1025B400393003F0FF021BB980F8382001F0A8FE7F
:1025C4002423226884F83930D368204623F4005346
:1025D400D360FFF787FF236800201A6922F4904232
:1025E4001A615A6922F02A025A61DA6842F40052E6
:1025F400DA602023E06384F8393084F83A3010BD7F
:10260400012010BD2DE9F0411F4690F839300446F1
:10261400202B0D4690464ED1002949D0002A47D0A0
:1026240090F83830012B46D0012380F8383000234D
:10263400C363212380F83930FDF73CFE0646A4F835
:102644002480A4F82680E38C9BB26BB93B463246C7
:1026540040212046FFF780FFA8B9202384F83800E2
:1026640084F83930BDE8F081E38C3246013B9BB2FB
:10267400E384A3688021B3F5805F20463B460ED1F6
:10268400FFF76AFF10B10320BDE8F0812B882268B0
:10269400C3F308035360236943B90235D3E7FFF753
:1026A4005BFF0028EFD123682A785A600135CAE716
:1026B4000120BDE8F0810220BDE8F0817FB5192337
:1026C40005464FF47A760C788DF80C308DF80D2091
:1026D400A4B20096022303AA21462846FEF79EFCD4
:1026E4000028F6D104B070BD1C232DE9F043074641
:1026F4000C4616464FF47A7985B00D780DF1100822
:1027040008F8013DADB2CDF80090012342462946B8
:102714003846FEF783FC0028F5D14FF47A78CDF8DB
:10272400008001230DF10E0229463846FEF744FDD0
:102734000028F4D14FF47A789DF80E3023F0180372
:1027440043EAC6038DF80E30CDF8008001230DF165
:102754000E0229463846FEF761FC0028F4D1032E08
:1027640006D8DFE806F002090C0F4FF06253A360AD
:10277400002005B0BDE8F0834FF06453F7E74FF055
:102784006653F4E74FF06853F1E700001B232DE98B
:10279400F04307460C4616464FF47A7985B00D7817
:1027A4000DF1100808F8013DADB2CDF800900123F9
:1027B400424629463846FEF731FC0028F5D14FF44D
:1027C4007A78CDF8008001230DF10E0229463846AF
:1027D400FEF7F2FC0028F4D14FF47A789DF80E301D
:1027E40023F0180343EAC6038DF80E30CDF80080B9
:1027F40001230DF10E0229463846FEF70FFC00288E
:10280400F4D1032E05D8DFE806F002080A0C064BC3
:102814006360002005B0BDE8F083044BF8E7044B87
:10282400F6E7044BF4E700BF2D23FA3B2D237A3C53
:1028340090C1F93C90C1793D2DE9FF41984675233B
:1028440042F0D00294B20A700E468DF80A30022289
:10285400052321460546FEF727FE18B1012004B0E2
:10286400BDE8F0814FF47A77012300970DF10A0255
:1028740021462846FEF7D2FB0028EFD1009701231A
:102884000DF10B0221462846FEF796FC0028E5D1FF
:102894009DF80B30682B20D16B238DF80D008DF83B
:1028A4000C3021460097022303AA2846FEF7B6FB04
:1028B40004460028D2D1072231462846FFF7FEFEFF
:1028C400424631462846FFF70FFF9DF8282031463F
:1028D4002846FFF75BFF2046C1E70320BFE710B59A
:1028E40096B0282200210CA801F053FE14220021E6
:1028F40001A801F04EFE182200210DEB020001F0A8
:1029040048FE4FF48033012202240D9314934FF4B4
:10291400E0130CA80C92109215931394FEF76EFE1C
:102924000F230193002303934FF48063214601A8EE
:10293400049305930294FFF73BF84FF4004306A871
:1029440006940893FFF7F2F816B010BD10B50D4CBD
:102954006420FDF7B5FC80212046FEF7AAF9642027
:10296400FDF7AEFC4FF480712046FEF7A2F9642017
:10297400FDF7A6FC2046BDE810404FF40071FEF7B9
:1029840098B900BF001001402DE98048B74D95B0BB
:10299400FDF772FCFFF7A3FF102200210BA801F042
:1029A400F8FDAB69002243F02003AB61AB6912214F
:1029B40003F020030593059BAB69AD4843F0100376
:1029C400AB61AB69002403F010030693069BAB696B
:1029D400012643F00403AB61AB69022703F004034F
:1029E4000793079BAB694FF0060A43F00803AB61FA
:1029F400AB694FF00B0903F008030893089BFEF73B
:102A040053F900224FF443419A48FEF74DF900224E
:102A14004FF460719848FEF747F912230BA99448C4
:102A24000B930D940E970C96FEF752F80BA9914850
:102A3400CDF82CA00C940D94FEF74AF84FF44343C0
:102A44000BA98C480B930D940E970C96FEF740F847
:102A540040230BA988480B930C940D94FEF738F887
:102A64004FF460730BA984480B930D940E970C9646
:102A7400FEF72EF86B69224633436B616B6921467E
:102A8400334004930B20049BFDF770FE0B207B4D19
:102A9400FDF7A0FE7A4B4FF007082B604FF48073CC
:102AA400AB604FF460232846EB612C756C60C5F86D
:102AB40010900B940C940D942E73FDF7BBFD0BA991
:102AC40028460B94CDF834800C96FDF747FC05237B
:102AD4000BA928460B9303930C97FDF73FFC0322A5
:102AE4000BA92846CDF82CA00C92FDF737FC042244
:102AF4004FF0080B0A270BA928460C92CDF82C801E
:102B0400FDF72CFC039B0BA928460C93CDF82CB0A5
:102B1400FDF724FC0BA92846CDF830A00B97FDF750
:102B24001DFCCDF830804FF00C080BA92846CDF8D9
:102B34002C90FDF713FC0BA92846CDF82C80CDF87A
:102B440030B0FDF70BFC0D230B9309230BA928468A
:102B54000C93FDF703FC0E230BA928460B930C974B
:102B6400FDF7FCFB0F23CDF830904FF480490BA9FF
:102B74002846DFF838A10B93FDF7F0FB4148424BA0
:102B8400424D80E808048460C46044618461C46187
:102B94000462C0F81090FEF79DF93D4B284685E885
:102BA4000804AC60EC606C61AC61EC612C62C5F84B
:102BB4001090FEF78FF94FF482733648364A8460DA
:102BC40080E80C004FF4007383612023C460C36168
:102BD40004614461046244628462C762FFF78EF850
:102BE400242221460BA801F0D4FCDFF8C4A02B4B0F
:102BF4000BA98AE8180060235046CAF80830CAF8BE
:102C04000C40CAF81040CAF81440CAF81840099495
:102C14000A940B960D961196FFF7F8FB09A95046F6
:102C240009940A94FFF73DFC40F2CF23DFF884A017
:102C34001B4950468AE80A0041F26F73CAF80840FB
:102C4400CAF80C30CAF818400B940C94FFF7C4FB74
:102C540050464FF4E13A0BA90B940C94FFF721FC76
:102C64001048114B846080E8080425E000100240FD
:102C740000080140000C01400010014064060020DF
:102C840000240140BC050020005400401006002030
:102C9400005800405807002000300140002C01403B
:102CA40000100040B407002000440040801A0600D1
:102CB40018070020D8060020C46004618461C46140
:102CC400C0F81480FFF770FC1C481D4B846080E83A
:102CD4000804C46004618461C461C0F81480FFF70F
:102CE40063FC00F0BFFD00F0CDFD00F079FD32463D
:102CF40049461448FDF7D8FF6420FDF7E1FA23465E
:102D04002246009410492846FFF796FD0F4C207088
:102D14003846FDF7D5FA23786BB90D4801F0B6FCB7
:102D24000B220C490C48FDF7D5FB0C48FFF751FA70
:102D3400FFF70CFEFCE70A48F0E700BF7C05002023
:102D440000480040000C014060050020B00700204E
:102D5400C15F0008F407002064060020D8060020A4
:102D6400E25F000810B514460A2392B20248FFF746
:102D740049FC204610BD00BF7C05002010B50F4C57
:102D840088B0608AA3880690208A62880590E089CA
:102D940021880490A0890390608902902089019081
:102DA400E0880090064801F0FDFB238AE289A189AE
:102DB400608908B0BDE8104000F0C4BDF4070020ED
:102DC400985F000870470000034B01221988034BE9
:102DD4001868FDF769BF00BF9E000020A000002016
:102DE400034B01221988034B1868FDF75DBF00BF30
:102DF4009C000020A0000020024608B1FFF7E4BFB9
:102E0400024B1988024B1868FDF74EBF9E00002044
:102E1400A0000020024608B1FFF7E2BF024B198868
:102E2400024B1868FDF740BF9C000020A000002062
:102E340013B504460020FFF7DFFF04F01F0402A9C6
:102E440001F8044D094C642301222046FEF791FF4A
:102E5400642301220DF105012046FFF723F99DF8B3
:102E64000540FFF7B1FF204602B010BDA4000020CA
:102E740073B504460D4616460020FFF7BDFF04F067
:102E84001F0402A901F8044D074C642301222046C3
:102E9400FEF76FFF6423324629462046FFF702F906
:102EA400FFF792FF02B070BDA400002037B50446BE
:102EB4000D460020FFF7A0FF44F020046423022203
:102EC40001A905488DF804408DF80550FEF751FF1F
:102ED400FFF77AFF03B030BDA400002073B50446A9
:102EE4000D4616460020FFF787FF44F0200402A990
:102EF40001F8044D074C642301222046FEF739FFF4
:102F04006423324629462046FEF733FFFFF75CFF71
:102F140002B070BDA4000020FF21E120FFF7C6BF6E
:102F2400FF21E220FFF7C2BF08B50020FFF780FFB2
:102F340040F00301C9B20020FFF7B8FF0849D1E906
:102F44000023134303D005220A20FFF7C7FFFFF72E
:102F5400E3FFFFF7E5FFBDE80840FFF741BF00BF0F
:102F64004001002013B502AC64E9020105222146A8
:102F74000A20FFF7B3FF052221461020FFF7AEFF1A
:102F8400044B11201978202928BF2021FFF78EFF38
:102F940002B010BD3C0100207F28014628BF7F21DC
:102FA4000520FFF783BF08B51D20FFF741FF00F0A0
:102FB400FB011D20FFF77AFFBDE8084000211C201B
:102FC400FFF774BF10B504460620FFF731FF032C4A
:102FD40000F0F90102D141F0060103E0022C06D110
:102FE40041F004010620BDE81040FFF75FBF012C4B
:102FF40002D141F00201F5E7042CF3D1EBE738B537
:1030040005460620FFF714FF022D00F0D7040CD16B
:1030140044F0200421460620FFF748FF0620FFF76E
:1030240007FF231A5842584138BD012D08BF44F008
:103034000804EFE710B504460020FFF7F9FE00F09E
:10304400F3012CB1012C0CBF41F0080141F00C013B
:103054000020BDE81040FFF729BF08B50020FFF7A6
:10306400E7FEBDE8084000F0FD010020FFF71EBFA9
:1030740070210720FFF71ABF07B50020FFF7BCFE39
:1030840050238DF80430732302228DF8053001A9F2
:1030940064230448FEF76DFEFFF796FE03B05DF867
:1030A40004FB00BFA400002008B51D20FFF7C0FEEC
:1030B40040F00601C9B21D20FFF7F8FE1D20FFF7FE
:1030C400B7FE50B9FFF7D8FF1D20FFF7B1FE40F05F
:1030D4000601C9B21D20FFF7E9FE1C20FFF7A8FE78
:1030E400BDE8084040F00301C9B21C20FFF7DEBE72
:1030F40008B51D20FFF79CFE40F00401C9B21D2055
:10310400FFF7D4FE1D20FFF793FE50B9FFF7B4FF7D
:103114001D20FFF78DFE40F00401C9B21D20FFF70A
:10312400C5FE1C20FFF784FEBDE8084040F03F01C7
:10313400C9B21C20FFF7BABE10B5A0B007A8FDF7AE
:103144006FF80A2382B207A9BC48FFF75BFA002094
:10315400FFF76EFE040740F12F8240074CBFB849C9
:10316400B84907A801F0BEFA07A8FDF759F80A23E1
:1031740082B207A9B148FFF745FA0120FFF758FECC
:10318400C0F340130393C0F300130293C0F3C003CE
:103194000193C0F3800300F00102AB490093C0F334
:1031A400400307A801F07AFA07A8FDF739F80A23C3
:1031B40082B207A9A148FFF725FA0220FFF738FEDB
:1031C400C0F340130393C0F300130293C0F3C0038E
:1031D4000193C0F3800300F001029C490093C0F303
:1031E400400307A801F05AFA07A8FDF719F80A23C3
:1031F40082B207A99148FFF705FA0320FFF718FEEA
:1032040000F003020232924907A801F047FA07A826
:10321400FDF706F80A2382B207A98848FFF7F2F9F6
:103224000520FFF705FE8B4900F07F0207A801F097
:1032340035FA07A8FCF7F4FF07A982B20A237F48EE
:10324400FFF7E0F90620FFF7F3FD01074CBF8249C1
:103254008249044607A801F045FA07A8FCF7E0FFF5
:10326400C4F3410482B20A2307A97448FFF7CAF9D8
:10327400002C40F0A3817A4907A801F033FA07A88B
:10328400FCF7CEFF0A2382B207A96C48FFF7BAF90C
:1032940005A905220A20FFF7EBFD9DF814109DF8FF
:1032A400173002919DF815109DF8182001919DF892
:1032B400161007A800916B4901F0F0F907A8FCF774
:1032C400AFFF0A2382B207A95C48FFF79BF905A95F
:1032D40005220B20FFF7CCFD9DF814109DF8173044
:1032E40002919DF815109DF8182001919DF8161073
:1032F40007A800915C4901F0D1F907A8FCF790FFF9
:103304000A2382B207A94D48FFF77CF905A90122D7
:103314000C20FFF7ADFD9DF81420544907A801F0D7
:10332400BDF907A8FCF77CFF0A2382B207A943482A
:10333400FFF768F905A901220D20FFF799FD9DF813
:1033440014204B4907A801F0A9F907A8FCF768FF66
:103354000A2382B207A93948FFF754F905A90122C3
:103364000E20FFF785FD9DF81420424907A801F0BF
:1033740095F907A8FCF754FF0A2382B207A92F483E
:10338400FFF740F905A901220F20FFF771FD9DF811
:103394001420394907A801F081F907A8FCF740FF78
:1033A4000A2382B207A92548FFF72CF905A90522AB
:1033B4001020FFF75DFD9DF814109DF81730029161
:1033C4009DF815109DF8182001919DF8161007A876
:1033D40000912A4901F062F907A8FCF721FF0A23AA
:1033E40082B207A91548FFF70DF91120FFF720FD58
:1033F400234900F03F0207A801F050F907A8FCF7A1
:103404000FFF0A2382B207A90C48FFF7FBF812202A
:10341400FFF70EFD1B4900F03F0207A801F03EF93B
:1034240007A8FCF7FDFE0A2382B207A90348FFF7A9
:10343400E9F81320FFF7FCFC26E000BFFC000020A5
:10344400FF5F00081B6000084A6000088E600008E7
:10345400D7600008F0600008036100081A610008E2
:10346400316100087E610008AE610008DE61000879
:10347400066200082E620008566200087E62000898
:10348400A8620008C1620008514900F03F0207A881
:1034940001F004F907A8FCF7C3FE0A2382B207A9C6
:1034A4004C48FFF7AFF81420FFF7C2FC4A4900F07C
:1034B4003F0207A801F0F2F807A8FCF7B1FE0A23BF
:1034C40082B207A94348FFF79DF81520FFF7B0FC27
:1034D400424900F03F0207A801F0E0F807A8FCF712
:1034E4009FFE0A2382B207A93A48FFF78BF81620F9
:1034F400FFF79EFC3A4900F03F0207A801F0CEF81E
:1035040007A8FCF78DFE07A982B20A233148FFF70A
:1035140079F81C20FFF78CFCC0F340130393C0F32D
:1035240000130293C0F3C0030193C0F3800300F0BF
:10353400010200932B49C0F3400307A801F0AEF841
:1035440007A8FCF76DFE07A982B20A232148FFF7FA
:1035540059F81D20FFF76CFC42074CBF2249234950
:10356400044607A801F0BEF807A8FCF759FE07A90E
:103574000A2382B21748FFF745F8A3074CBF1C493A
:103584001C4907A801F0AEF807A8FCF749FE0A2376
:1035940082B207A90F48FFF735F8174907A801F0C9
:1035A400A1F807A8FCF73CFE0A2382B207A9094840
:1035B400FFF728F820B010BD1049D2E5012C01D145
:1035C4000F4959E6022C0CBF0E490F4954E600BFBF
:1035D400DA620008FC000020F36200080C630008B3
:1035E400256300083E630008886300089E630008A2
:1035F400B5630008CF630008EA630008366000087A
:1036040045610008596100086C61000882B073B517
:1036140006460D46144606A9582241F8043F5F4861
:1036240000F0ACFF5E4B1E605E4B1D805E4B02AD36
:103634001C80FFF7C9FB0020FFF7ECFB0520FCF71B
:103644003FFE08210020FFF731FC3F210120FFF756
:103654002DFC03210220FFF729FC0321E72408465F
:10366400FFF724FC03210420FFF720FC022105209E
:10367400FFF71CFC0F210620FFF718FC0E21072082
:10368400FFF714FC00210820FFF710FC002109209B
:10369400FFF70CFC05F8084D294605220A208DF891
:1036A40004408DF803408DF802408DF80140FFF787
:1036B40015FCC223052229460B208DF804308DF811
:1036C40003308DF802308DF801308DF80030FFF7AB
:1036D40005FCC3210C20FFF7E9FBC4210D20FFF7F3
:1036E400E5FBC5210E20FFF7E1FBC6210F20FFF704
:1036F400DDFB0522294610208DF804408DF8034097
:103704008DF802408DF801408DF80040FFF7E6FB8C
:1037140000211120FFF7CAFB00211220FFF7C6FB8E
:1037240000211320FFF7C2FB00211420FFF7BEFB8A
:1037340000211520FFF7BAFB00211620FFF7B6FB86
:10374400FFF79AFC00211C20FFF7B0FB00211D208D
:10375400FFF7ACFBFFF7F0FCFF210420FFF7A6FB0B
:103764000320FFF72FFC0020FFF749FC0220FFF79E
:1037740061FCFFF718FC20220C4B1A70FFF778FC51
:103784004C20FFF709FCFFF7C7FBFFF7C9FBFFF766
:1037940064FC02B0BDE8704002B07047A400002091
:1037A400A00000209E0000209C0000203C0100207E
:1037B40084B030B503AC84E80F00084C03AD0FCDE2
:1037C4000FC40FCD0FC40FCD0FC495E80F0084E8CC
:1037D4000F00BDE8304004B0704700BFFC0000207B
:1037E40070B51B4C96B0211D5422684600F0C6FEED
:1037F40023686C46174E10220221174806F1100563
:10380400FFF704FF0FCD0FC40FCD0FC495E80F00D1
:1038140084E80F0096E80F00FFF7CAFF3F2101205C
:10382400FFF744FB4C20FFF7B7FB0E220B4B1A703B
:103834000B4BD3E90001FFF795FBFFF775FBFFF78F
:1038440057FCFFF731FC16B0BDE87040FFF774BCBD
:10385400580700207C050020000801403C0100209E
:103864001000002008B501224FF480710448FDF7D0
:103874001BFA0520FCF724FDBDE8084000F024BB3A
:10388400000C014070B58AB0274B284A284903A888
:10389400012400F003FF402500F00EFB00210194F9
:1038A400084600958023234A00F00CF900212B469A
:1038B40080220846009400F03DFA00F0DBFA40F65E
:1038C400B830FCF7FDFC00F0F7FA0A211A4E08465E
:1038D40000F038F922463146184800F085F91621DF
:1038E4000A2000F02FF922463146154800F07CF9F1
:1038F40022210A2000F026F92246314603A800F0CE
:1039040073F900212B4608468022009400F012FA35
:1039140000F0B0FA40F6B830FCF7D2FC00F0CCFA74
:1039240000F0A8FA0AB070BD2D68000839680008D4
:103934003D6800081D640008080000204468000871
:10394400526800082DE9F347824601240025884681
:1039540017461E46DFF808910521032000F0F2F80F
:10396400CAF3471A49460122394800F03DF9524644
:103974000094082305210F2000F01DFACAF1670204
:10398400082392B20AF10F000095052100F013FA02
:103994001421032000F0D6F8C8F3471822464946FC
:1039A4002C4800F021F942460094082314210F20EA
:1039B40000F001FAC8F16702082392B208F10F007F
:1039C4000095142100F0F7F92221032000F0BAF841
:1039D400C7F34717224649461F4800F005F93A46FF
:1039E4000094082322210F2000F0E5F9C7F16702B3
:1039F400082392B207F10F000095222100F0DBF9B1
:103A04003021032000F09EF8C6F3471622464946AB
:103A1400124800F0E9F832460094082330210F20C0
:103A240000F0C9F9C6F1670206F10F0000950823FA
:103A340092B2302100F0BFF900944023802229463D
:103A4400284600F077F902B0BDE8F04700F012BA5A
:103A54001D68000821680008256800082968000816
:103A64000800002000284FF4806214BFFF210021C9
:103A7400014800F08EBD00BF4E0100207F2810B524
:103A84001AD83F2918D80D4B1B7913B1B2FA82F218
:103A94005209CC08012A0A4B01F0070100EBC410BB
:103AA40004D18A40195C0A431A5410BD01228A4089
:103AB400195C21EA0201195410BD00BF480100201D
:103AC4004E0100202DE9F04F87B09846BDF94030F3
:103AD400002502930823934608F1070292FBF3F2B0
:103AE400824689462E462C4601929DF84420049233
:103AF400029932B2914222DD06EB090292B200270A
:103B0400039215E0B8B2410705BF92FBF3F20BEB49
:103B1400050164008C5C18BFE4B2220607D550444A
:103B2400049A039980B20593FFF7A8FF059B013718
:103B34003AB24245E6DB019A01361544D8E707B0AC
:103B4400BDE8F08F014B1880598070474801002070
:103B54002DE9F04F234D93462E880A7885B03244E0
:103B64007F2A82460C4639DC6B884A7801931A44D2
:103B74003F2A33DC0027A0F12003039362789742A5
:103B840006D3227816442E80504605B0BDE8F08F47
:103B94004FF00008039B616802FB037231F8123096
:103BA4000293019B03EB07091FFA89F922789045D8
:103BB40001D30137E2E7029B06EB080003FA08F29F
:103BC40012F4004F0ABFBBFA8BF25A465209494617
:103BD40080B2FFF753FF08F10108E7E74FF0000A4E
:103BE400D2E700BF4801002070B50D461646441EBA
:103BF400637843B1184632462946FFF7A9FF14F803
:103C0400013F9842F4D0184670BD7F2828BF7F201A
:103C14007F2A28BF7F223F2928BF3F213F2B28BF6F
:103C24003F232DE9F04F85B09DF838409042019430
:103C3400914604460D461E4611D2A2EB000A8B4261
:103C44000FFA8AFA71D84C45A5EB06073FB22CBF90
:103C54004FF0FF3B4FF0010B4FF0FF330AE0A0EBB6
:103C6400020A8B420FFA8AFAEDD94FF0FF3B5F1A32
:103C74003FB201234FF002085745A5BF97FBF8F860
:103C8400C8F100089AFBF8F80FFA88F8BAF1000FA7
:103C940016D1AE423EBF2B4635461E464C4528BF84
:103CA4004C46A4B22DB2B54202DD05B0BDE8F08F9A
:103CB400ADB22946019A2046FFF7E0FE0135F1E74F
:103CC400FFB1CAF100020292019A294620460393E9
:103CD400FFF7D4FE4C45039B01D1B542E5D0029ACF
:103CE4009045C1BFA8EB07025C4412B2A4B2D8BF8E
:103CF4004246B84503DA52441D4412B2ADB290466E
:103D0400E2E7B54228BF35464C45ADB202D9234659
:103D14004C46994624B24C45C7DCA4B22046019ACD
:103D24002946FFF7ABFE0134F4E75F1A3FB24FF0C8
:103D3400010B9EE72DE9F3417F2807460E461D46F9
:103D44009DF8208034D83F2932D883187F2BC8BFF0
:103D5400C0F1800201EB0503C8BF92B23F2BC4BF80
:103D6400C1F14005ADB2024494B23544ADB20B4644
:103D74002246CDF80080FFF748FF2B46224629460D
:103D84003846CDF80080FFF740FF2B463A463146CF
:103D94003846CDF80080FFF738FF2B4622463146DF
:103DA4002046CDF8208002B0BDE8F041FFF72DBFDA
:103DB40002B0BDE8F0812DE9F7437F2806460F469F
:103DC4001D469DF828801AD83F2918D84FF00009BD
:103DD40083187F2BC8BFC0F1800201EB0503C8BF65
:103DE40092B23F2BC8BFC1F140050244C8BFADB277
:103DF40094B25FFA89F39D4209F1010902D203B03A
:103E0400BDE8F0833B449BB2CDF8008022461946BE
:103E14003046FFF7FAFEECE730B5C3B08DF8081072
:103E240000214C1CC9B299420AD30A2201330092E0
:103E340001469BB202AA0548FDF7F0F843B030BD35
:103E440002AD0D44515C69702146EAE7BC050020CF
:103E54001FB50A238DF80C108DF80D200093014630
:103E6400022303AA0248FDF7D9F805B05DF804FB64
:103E7400BC05002038B500240E4DA4F15002D2B286
:103E840000217820FFF7E4FF002278201146FFF795
:103E9400DFFF102200217820FFF7DAFF05EBC412C0
:103EA4008023402178200134FFF7B6FF082CE4D1A9
:103EB40038BD00BF4E01002008B50020FFF7D2FD39
:103EC400BDE80840FFF7D6BF10B544F620630122D1
:103ED40078215248FDF7E8FA0446002840F09C8017
:103EE4000146AE227820FFF7B3FF21462022782036
:103EF400FFF7AEFF214610227820FFF7A9FF2146E5
:103F0400B0227820FFF7A4FF2146C8227820FFF7CB
:103F14009FFF224621467820FFF79AFF2146102270
:103F24007820FFF795FF214640227820FFF790FF85
:103F3400214681227820FFF78BFF2146FF2278203B
:103F4400FFF786FF2146A1227820FFF781FF214653
:103F5400A6227820FFF77CFF2146A8227820FFF7CD
:103F640077FF21463F227820FFF772FF2146A422E3
:103F74007820FFF76DFF2146D3227820FFF768FFF2
:103F8400224621467820FFF763FF2146D522782078
:103F9400FFF75EFF2146F0227820FFF759FF214604
:103FA400D9227820FFF754FF214622227820FFF7F8
:103FB4004FFF2146DA227820FFF74AFF21461222DA
:103FC4007820FFF745FF2146DB227820FFF740FFEA
:103FD400214620227820FFF73BFF21468D227820BE
:103FE400FFF736FF214614227820FFF731FF2146E0
:103FF400AF227820FFF72CFF2E2221467820FFF7EE
:1040040027FF2046FFF72EFDFFF734FF0120044B66
:1040140058711C805C8010BD002010BDBC050020C0
:10402400480100200E4B82B09A6942F001029A6165
:104034009A6902F001020092009ADA6942F0805211
:10404400DA61DB69074A03F080530193019B5368EB
:1040540023F0E06343F00073536002B0704700BF85
:104064000010024000000140102230B5054689B01E
:104074000DEB0200002100F08CFA2A682C4B9A42C6
:1040840054D103F56C439A69032442F400729A6193
:104094009A6904A902F400720092009A9A69254868
:1040A40042F010029A619A6902F010020192019A98
:1040B4009A6942F004029A619A6902F00402029237
:1040C400029A9A6942F008029A619B69059403F086
:1040D40008030393039B3F230493FCF7F9FCE123B8
:1040E40004A9154804930594FCF7F2FC0123134832
:1040F40004A904930594FCF7EBFC8022104C114BAB
:10410400E2604FF4807222614FF480622360626146
:104114000023202220466360A360A261E361FCF7D0
:104124007DFB08B1FEF74EFE2C62656209B030BD1E
:10413400002401400010014000080140000C01402F
:104144009406002008000240102210B5044688B0EE
:104154000DEB0200002100F01CFA2368214A93426F
:104164001ED1214C04A9A369204843F00803A3618C
:10417400A36903F008030093009BC0230493122354
:10418400059303230793FCF7A3FCE36943F40013AB
:10419400E361E36903F400130193019B08B010BDCC
:1041A400134A9342FAD1104C04A9A3690F4843F06F
:1041B4000803A361A36903F008030293029B4FF46D
:1041C400406304931223059303230793FCF780FCB5
:1041D400E36943F48003E361E36903F48003039335
:1041E400039BDBE70054004000100240000C014038
:1041F4000058004030B51024054687B022460021FF
:1042040002A800F0C6F92A68184B9A422CD103F58B
:1042140060439A6902A942F480529A619A691448E7
:1042240002F480520092009A9A6942F008029A615C
:104234009B6903F008030193019B28230293022343
:10424400039303230593FCF743FC002302A90848C6
:10425400039304930294FCF73BFC064A536843F02F
:10426400E06343F00103536007B030BD0030014008
:10427400000C01400000014010B5044686B0102235
:10428400002102A800F085F92268104B9A421AD145
:1042940003F564439A6902A942F400629A619A6937
:1042A4000B4802F400620092009A9A6942F00402F8
:1042B4009A619B6903F004030193019B4FF44073DB
:1042C4000293FCF705FC06B010BD00BF002C0140B2
:1042D4000008014007B50D4B02689A4212D103F55C
:1042E4000033DA69362042F01002DA610022DB6919
:1042F400114603F010030193019BFCF737FA3620B3
:10430400FCF768FA03B05DF804FB00BF001000403E
:10431400102210B5044688B00DEB0200002100F015
:1043240038F923682F4A934227D12F4B04A9DA691D
:104334002E4842F40032DA61DA6902F40032009263
:10434400009A9A6942F004029A619B6903F004039B
:104354000193019B042304930223059303230793EE
:10436400FCF7B6FB08230493002304A91F48059314
:104374000693FCF7ADFB08B010BD1D4A9342FAD179
:10438400194B04A9DA691B4842F48022DA61DA691C
:1043940002F480220292029A9A6942F010029A610F
:1043A4009B6903F010030393039B4FF4806304930E
:1043B4000223059303230793FCF78AFB4FF400635E
:1043C4000493002304A90B4805930693FCF780FB90
:1043D400094A536823F0300343F0E06343F01003C9
:1043E4005360C8E700440040001002400008014048
:1043F4000048004000100140000001407047FEE703
:10440400FEE7FEE7FEE7704770477047FBF746BFDD
:104414000148FCF781BA00BF940600200148FDF76B
:10442400ECBE00BFD806002070B50E4615460C46FB
:10443400A31B9D4201DC284670BDAFF3008004F845
:10444400010BF5E708B50A4B0246196809B9094991
:1044540019606946186802448A4206D900F064F873
:104464000C2303604FF0FF3008BD1A6008BD00BF85
:1044740050050020100800204FF0FF3070474FF423
:10448400005300204B6070470120704700207047A4
:104494000F4B1A6842F001021A6059680D4A0A402B
:1044A4005A601A6822F0847222F480321A601A6800
:1044B40022F480221A605A6822F4FE025A604FF4F1
:1044C4001F029A604FF00062034B9A60704700BF6E
:1044D400001002400000FFF800ED00E0002103E0BE
:1044E4000B4B5B58435004310A480B4B42189A4219
:1044F400F6D30A4A02E0002342F8043B084B9A42EE
:10450400F9D3FFF7C5FF00F015F8FEF73DFA704741
:1045140018690008000000208000002080000020AE
:1045240010080020FEE70000014B1868704700BF28
:104534001C00002070B500250C4E0D4CA41BA410CB
:10454400A54209D101F05CF900250A4E0A4CA41BCE
:10455400A410A54205D170BD56F825309847013501
:10456400EEE756F8253098470135F2E71069000860
:1045740010690008106900081469000810B5431E8A
:104584000A44914200D110BD11F8014B03F8014FC8
:10459400F7E703460244934200D1704703F8011B36
:1045A400F9E700000FB40A4B13B51C6824B1A369E2
:1045B40013B9204600F050FA05AB049AA1682046CE
:1045C400019300F059FD02B0BDE8104004B07047FB
:1045D4001C00002070B50E46054618B183690BB95E
:1045E40000F03AFAAB69AC6813B9284600F034FA23
:1045F400234B9C4217D16C68A3891B071DD52369E3
:10460400DBB1013EA36816F8011F013BA360E9B9C1
:10461400002B2EDA22460A21284600F06BF80130DE
:1046240011D00A2070BD174B9C4201D1AC68E3E75E
:10463400154B9C4208BFEC68DEE72146284600F093
:10464400ABF80028DDD04FF0FF3070BD002B04DA4A
:10465400A269934206DB0A2904D023685A1C22600B
:104664001970CFE72246284600F044F80130C9D13A
:10467400E9E70A2023685A1C2260187070BD00BF45
:104684009C680008BC6800087C680008024B01466E
:104694001868FFF79FBF00BF1C0000200EB44FF442
:1046A400027100B59CB0ADF814106FF00041049194
:1046B40007914FF6FF711DAB02900690084853F81E
:1046C400042BADF81610006802A9019300F0B8FBA2
:1046D4000022029B1A701CB05DF804EB03B0704713
:1046E4001C000020034611F8012B03F8012B002ABB
:1046F400F9D17047F8B50E461446054618B18369DA
:104704000BB900F0A9F9214B9C422AD16C68A3692A
:10471400A360A3891A072ED5236963B3236920688C
:10472400F6B2C01A63693746984204DB214628462C
:1047340000F028F928BBA3680130013BA36023687B
:104744005A1C22601E706369984204D0A389DB0757
:1047540019D50A2E17D12146284600F013F990B135
:104764000FE00B4B9C4201D1AC68D0E7094B9C4253
:1047740008BFEC68CBE72146284600F00DF8002876
:10478400CCD04FF0FF373846F8BD00BF9C68000816
:10479400BC6800087C680008324B70B51D6806468A
:1047A4000C4625B1AB6913B9284600F055F92E4BD8
:1047B4009C420FD16C68B4F90C309AB215072CD412
:1047C400D00611D40922326043F04003A3814FF094
:1047D400FF3070BD254B9C4201D1AC68EBE7244B04
:1047E4009C4208BFEC68E6E7510712D5616B41B102
:1047F40004F14403994202D0304600F01BFA00232E
:104804006363A38923F02403A381002363602369E2
:104814002360A38943F00803A38123694BB9A389C7
:1048240003F42073B3F5007F03D02146304600F033
:10483400C1F9A28912F001030CD00023A3606369BB
:104844005B42A361236953B9B4F90C3013F08000BF
:10485400BAD170BD920758BF6369A360F2E7002024
:10486400F7E700BF1C0000209C680008BC68000833
:104874007C6800088A892DE9F041054610070C463A
:104884005AD44B68002B05DC0B6C002B02DC002097
:10489400BDE8F081E66A002EF9D0002312F48052BC
:1048A4002F682B6033D0606DA3895A0705D56368E0
:1048B400C01A636B0BB1236CC01A00230246E66A6C
:1048C400216A2846B047431CA38906D129681D29BB
:1048D4004BD82B4ACA40D60747D5002262602269CA
:1048E400D904226004D5421C01D12B6803B9606548
:1048F400616B2F600029CAD004F14403994202D0AD
:10490400284600F097F900206063BDE8F081216A31
:1049140001232846B047411CC6D12B68002BC3D0C5
:104924001D2B01D0162B01D12F60B0E7A38943F0D2
:104934004003A381BDE8F0810F69002FA7D093073E
:1049440018BF00230E6808BF4B69A6EB07080F6069
:104954008B60B8F1000F9ADD43463A46216A284637
:10496400A66AB047002807DCA38943F04003A3816B
:104974004FF0FF30BDE8F0810744A8EB0008E8E7FA
:104984000100402038B50B6905460C46DBB118B16F
:1049940083690BB900F060F80C4B9C4209D16C6838
:1049A400B4F90C307BB121462846BDE83840FFF706
:1049B40061BF074B9C4201D1AC68F1E7054B9C42B7
:1049C40008BFEC68ECE7002038BD00BF9C68000815
:1049D400BC6800087C680008014900F0A9B800BF61
:1049E40089490008002310B50446036043608360CE
:1049F40081814366C2810361436183611946082250
:104A04005C30FFF7C6FD054B24626362044BA3626E
:104A1400044BE362044B236310BD00BFF955000847
:104A24001B560008535600087756000870B56825D1
:104A34004A1E55430E4605F1740100F047F9044639
:104A440040B1002180E842000C30A06005F168020A
:104A5400FFF79FFD204670BD836910B5044633BB44
:104A64008364C3640365124B124A1B6882629842D2
:104A740004BF0123836100F01FF86060204600F04A
:104A84001BF8A060204600F017F80022E060042123
:104A94006068FFF7A7FF01220921A068FFF7A2FFC2
:104AA40002221221E068FFF79DFF0123A36110BDDC
:104AB40078680008DD490008F8B51C4B07461E68F5
:104AC400B36913B93046FFF7C7FF4836B468736853
:104AD400013B03D5336833B13668F7E7B4F90C50BA
:104AE4006DB16834F4E704213846FFF79FFF306066
:104AF4000028F1D10C2304463B602046F8BD4FF654
:104B0400FF73E38101236566A3812560A560656069
:104B140025616561A5610822294604F15C00FFF75F
:104B240038FD6563A563A564E564E6E77868000875
:104B34002DE9F84380468946002600F1480414B95B
:104B44003046BDE8F883A5686768013F01D524684D
:104B5400F5E7AB89012B07D9B5F90E30013303D042
:104B640029464046C84706436835EEE770B50E4609
:104B7400B1F90E1090B0002914461D4607DA00233F
:104B84002B60B3891A0610D44FF480630EE001AA97
:104B940000F096FD0028F2DB029A02F47042A2F5BE
:104BA40000535A425A412A60EEE740230020236012
:104BB40010B070BD8B8973B59D0706460C4607D5AA
:104BC40004F14703236023610123636102B070BDD4
:104BD40001AB6A46FFF7CAFF00990546304600F06C
:104BE40075F848B9B4F90C309A05EFD423F00303EF
:104BF40043F00203A381E3E70D4BB362A389206072
:104C040043F08003A381009B20616361019B5BB13E
:104C1400B4F90E10304600F065FD28B1A38923F0E5
:104C2400030343F00103A381A3891D43A581CDE7B9
:104C3400DD49000838B50546002943D051F8043C45
:104C44000C1F002BB8BFE41800F096FD1E4A136831
:104C5400104633B9636014602846BDE8384000F05C
:104C64008CBDA3420BD921686218934201BF1A6814
:104C74005B685218226063600460EDE713465A686B
:104C84000AB1A242FAD919685818A0420BD1206877
:104C94000144581882421960DED1106852680144F8
:104CA40019605A60D8E702D90C232B60D4E7206836
:104CB40021188A4201BF1168526809182160626094
:104CC4005C60C9E738BD00BF5405002070B5CD1C39
:104CD40025F0030508350C2D38BF0C25002D06469C
:104CE40001DBA94203D90C233360002070BD00F01E
:104CF40043FD234A1468214691B9224C23681BB909
:104D0400304600F067FC20602946304600F062FC23
:104D1400431C26D10C233046336000F02EFDE4E71B
:104D24000B685B1B1AD40B2B0FD90B60CC18CD501E
:104D3400304600F022FD04F10B00231D20F0070093
:104D4400C31A1BD05A42E25070BD8C420BBF636839
:104D54004B681360636018BF0C46E9E70C4649686A
:104D6400CAE7C41C24F00304A04205D0211A30462B
:104D740000F030FC0130CDD02560D9E770BD00BF14
:104D840054050020580500202DE9F0478E6882461E
:104D94009E420C469146984635D88A8912F4906F03
:104DA40031D00223256809696F1A656905EB450549
:104DB40095FBF3F508F101033B449D4238BF1D46C2
:104DC400530531D52946FFF781FF064650B90C2318
:104DD400CAF80030A3894FF0FF3043F04003A381A9
:104DE400BDE8F0873A462169FFF7C8FBA38923F49D
:104DF400906343F08003A38126613E4426604646C7
:104E04006561ED1BA560464528BF464649463246C6
:104E1400206800F097FCA36800209B1BA360236814
:104E24001E442660BDE8F0872A4600F0A7FC06462B
:104E34000028E1D121695046FFF7FCFEC7E70000D6
:104E44002DE9F04F9DB003938B8980461C060D46D7
:104E540016460FD50B696BB94021FFF737FF286061
:104E6400286128B90C23C8F800304FF0FF30C4E0A3
:104E740040236B610023099320238DF829303023CC
:104E84004FF0010B8DF82A3037463C4614F8013BAD
:104E9400002B3CD1B7EB060A0BD0534632462946C9
:104EA4004046FFF771FF013000F0A280099B534494
:104EB40009933B78002B00F09B8000234FF0FF32D6
:104EC40004930793059206938DF853301A930522A1
:104ED4002178504800F028FC671C049BD8B9D906F7
:104EE40044BF20228DF853201A0744BF2B228DF88B
:104EF400532022782A2A16D000210A20079A27460E
:104F04003B780134303B092B50D9C9B111E0252B32
:104F1400C0D02746B9E73F4A3C46801A0BFA00F056
:104F240018430490D3E7039A111D12680391002AD1
:104F340001DB079204E0524243F002030792049318
:104F44003B782E2B0DD17B78791C2A2B32D1039BF5
:104F540002371A1D1B680392002BB8BF4FF0FF33B2
:104F640005932D4C03223978204600F0DDFB38B13F
:104F74004023001B03FA00F0049B0137034304930E
:104F84003978062225487E1C8DF8281000F0CCFBC9
:104F9400002835D0224BFBB9039B073323F00703CA
:104FA40008330393099B4B4409936DE700FB0232DA
:104FB4000121A4E700230A24184605930F463A78F2
:104FC4000131303A092A03D9002BCAD00590C8E729
:104FD40004FB00200123F1E703AB00932A46114BA5
:104FE40004A94046AFF30080B0F1FF3F8146D9D118
:104FF400AB895B063FF539AF09981DB0BDE8F08F6A
:1050040003AB00932A46074B04A9404600F0C2F9BB
:10501400EAE700BFDC680008E2680008E668000808
:10502400000000008D4D0008936810B4013B002B74
:10503400936008DA9469A34202DBCBB20A2B02D153
:1050440010BCFFF757BB1368581C10601970C8B226
:1050540010BC7047F8B506460F461446D518AC4246
:1050640001D1002007E03A4614F8011B3046FFF74F
:10507400DBFF431CF3D1F8BD2DE9F04F9DB00C4686
:1050840017460393064618B183690BB9FFF7E4FC8E
:105094007C4B9C4257D17468A38918075DD523695A
:1050A400002B5AD00023099320238DF82930302374
:1050B4004FF0010B8DF82A30B846454615F8013BF0
:1050C400002B55D1B8EB070A0BD053463A4621467C
:1050D4003046FFF7BFFF013000F0C480099B534402
:1050E400099398F80030002B00F0BC8000234FF0A7
:1050F400FF3204930793059206938DF853301A9365
:1051040005222978604800F00FFB05F10108049B93
:10511400002831D1D90644BF20228DF853201A0724
:1051240044BF2B228DF853202A782A2A2CD0002120
:105134000A20079AA84698F800300135303B092B1D
:105144006DD971B326E0514B9C4201D1B468A3E7F9
:105154004F4B9C4208BFF4689EE721463046FFF758
:105164001BFB00289ED04FF0FF301DB0BDE8F08F30
:10517400252BA7D0A846A0E7434A4546801A0BFA38
:1051840000F018430490BBE7039A111D12680391C1
:10519400002A01DB079204E0524243F00203079223
:1051A400049398F800302E2B10D198F8013008F1B0
:1051B40001012A2B37D1039B08F102081A1D1B6831
:1051C4000392002BB8BF4FF0FF330593314D0322F8
:1051D40098F80010284600F0A7FA40B14023401B7D
:1051E40003FA00F0049B08F101080343049398F8C0
:1051F40000100622284808F101078DF8281000F055
:1052040093FA002834D0254B03BB039B073323F0C8
:10521400070308330393099B4B4409934CE700FBB2
:105224000232012186E700230A25184605938846A1
:1052340098F800200131303A092A03D9002BC5D04F
:105244000590C3E705FB00200123F0E703AB0093BF
:105254002246134B04A93046AFF30080B0F1FF3F60
:105264008146D8D1A3895B063FF57DAF09987CE7D9
:1052740003AB009322460A4B04A9304600F08AF897
:10528400ECE700BF9C680008DC680008BC68000804
:105294007C680008E2680008E66800080000000076
:1052A400595000082DE9F04791461F468A680B695A
:1052B40006469342B8BF1346C9F8003091F843201C
:1052C4000C46DDF8208012B10133C9F800302368A0
:1052D400990642BFD9F800300233C9F80030256876
:1052E40015F0060507D104F1190AE368D9F800207E
:1052F4009B1A9D422ADB94F843302268003318BF7E
:10530400012392062FD404F1430239463046C047A4
:10531400013022D02368E56803F00603042B18BF8C
:105324000025D9F800204FF0000908BFAD1AA36882
:10533400226908BF25EAE5759342C4BF9B1AED189C
:105344001A344D451BD10020BDE8F0870123524695
:1053540039463046C047013003D14FF0FF30BDE835
:10536400F0870135C1E73020E11881F843005A1C69
:1053740094F845102244023382F84310C3E7012312
:10538400224639463046C0470130E6D009F10109CA
:10539400D7E700002DE9F04317460A7E85B06E2A50
:1053A400984606460C460C9B01F1430E00F0BC8067
:1053B4001AD8632A2ED00AD8002A00F0C880582AA6
:1053C40000F08A8004F1420584F842202AE0642A2D
:1053D40001D0692AF6D121681A6811F0800F23D010
:1053E400111D1960136827E0732A00F0B48008D8EF
:1053F4006F2A2AD0702AE5D10A6842F020020A6096
:1054040003E0752A21D0782ADCD178226F4984F808
:10541400452064E01A6801F14205111D1960136802
:1054240084F842300123A3E011F0400F02F104019B
:105434001960D7D0B2F90030002B03DA2D225B4279
:1054440084F8432062490A2217E02068196810F0A2
:10545400800F03D0081D18600B6806E010F0400FA1
:1054640001F104001860F7D00B886F2A14BF0A22D8
:1054740008225749002084F843006568002DA56080
:10548400C0F29C80206820F004002060002B3FD1F3
:10549400002D40F095807546082A0BD12368DA0761
:1054A40008D5236962689A42DEBF302305F8013CBF
:1054B40005F1FF35AEEB05032361CDF800803B46D3
:1054C40003AA21463046FFF7EDFE013055D14FF0D7
:1054D400FF3005B0BDE8F08381F845203C492268DF
:1054E400186812F0800F00F104051D6001D00368F4
:1054F40002E05506FBD50388D00744BF42F02002E2
:1055040022601BB9226822F0200222601022B1E737
:105514007546B3FBF2F002FB1033CB5C05F8013D9A
:1055240003460028F5D1B7E708681A6810F0800F21
:10553400496904D0101D18601368196007E010F061
:10554400400F02F1040018601368F6D0198000239C
:1055540075462361B1E71A68111D196015680021A9
:105564006268284600F0E0F808B1401B6060636898
:105574002361002384F843309FE723692A46394690
:105584003046C0470130A2D023689B0707D50025C9
:1055940004F11909E368039A9B1A9D4205DBE0684C
:1055A400039B9842B8BF184693E701234A463946FD
:1055B4003046C04701308AD00135EBE7002BA7D134
:1055C4000B7804F1420584F8423065E7FE68000870
:1055D400ED68000838B50023054C054608462360ED
:1055E400FEF730FF431C02D1236803B12B6038BDA2
:1055F4000C08002010B50C46B1F90E1000F0E4F8C8
:105604000028ABBF636DA3891B1823F48053ACBF80
:105614006365A38110BD2DE9F0411F468B890546C2
:10562400DB050C46164605D502230022B1F90E10FF
:1056340000F068F8A389324623F48053A381B4F9B7
:105644000E103B462846BDE8F04100F017B810B5EF
:105654000C46B1F90E1000F055F8431CA38915BF90
:10566400606523F4805343F48053A38118BFA3815E
:1056740010BDB1F90E1000F013B8000038B505469E
:10568400084611460022054C22601A46FDF76AFBC3
:10569400431C02D1236803B12B6038BD0C080020E1
:1056A40038B50023054C054608462360FEF7E4FEA2
:1056B400431C02D1236803B12B6038BD0C080020C1
:1056C40038B50023064C0546084611462360FEF70C
:1056D400D6FE431C02D1236803B12B6038BD00BF42
:1056E4000C08002038B50023054C05460846236005
:1056F400FEF7CAFE431C02D1236803B12B6038BDF8
:105704000C08002038B50546084611460022054C11
:1057140022601A46FEF7BAFE431C02D1236803B185
:105724002B6038BD0C08002010B5C9B20244904269
:10573400034601D1002010BD1C7801308C42F6D103
:10574400184610BD884210B501EB020303D8421E6F
:1057540099420CD110BD9842F9D28118D21AD34281
:1057640000D110BD13F8014D01F8014DF7E711F810
:10577400014B02F8014FEBE770477047F8B5074655
:1057840014460E4621B91146BDE8F840FFF79EBA0B
:1057940022B9FFF74FFA25462846F8BD00F026F84F
:1057A40084420FD921463846FFF790FA054600286F
:1057B400F2D031462246FEF7E1FE31463846FFF785
:1057C40039FAE9E73546E7E738B5054608461146AC
:1057D4000022054C22601A46FEF726FE431C02D125
:1057E400236803B12B6038BD0C08002051F8040C69
:1057F4000028A0F10400BCBF0B58C018704700007B
:10580400F8B500BFF8BC08BC9E467047F8B500BFA9
:08581400F8BC08BC9E46704779
:10581C0002030405060708090A0B0C0D0E0F1010E5
:10582C00000000000000000000000000000000006C
:10583C0000000000001000100010001000100010FC
:10584C0000000010000000000028002800280000C4
:10585C0000000000000000000000000000240024F4
:10586C00007C00240048007C004800480000000038
:10587C000038005400500038001400540054003814
:10588C000010000000200054005800300028005484
:10589C000014000800000000001000280028001070
:1058AC0000340048004800340000000000100010D4
:1058BC0000100000000000000000000000000000CC
:1058CC0000080010002000200020002000200020F4
:1058DC000010000800200010000800080008000854
:1058EC0000080008001000200010003800100028EC
:1058FC00000000000000000000000000000000009C
:10590C0000100010007C00100010000000000000CF
:10591C00000000000000000000000000000000106B
:10592C000010001000000000000000000000003813
:10593C00000000000000000000000000000000005B
:10594C00000000000000001000000000000800082B
:10595C0000100010001000100020002000000000BB
:10596C000038004400440054004400440044003813
:10597C00000000000010003000500010001000105B
:10598C000010001000000000003800440044000427
:10599C00000800100020007C0000000000380044CB
:1059AC00000400180004000400440038000000004B
:1059BC0000080018002800280048007C0008000897
:1059CC0000000000007C004000400078000400044F
:1059DC00004400380000000000380044004000780B
:1059EC00004400440044003800000000007C000427
:1059FC000008001000100020002000200000000013
:105A0C00003800440044003800440044004400388E
:105A1C00000000000038004400440044003C000436
:105A2C0000440038000000000000000000100000DE
:105A3C00000000000000001000000000000000004A
:105A4C00000000100000000000000010001000100A
:105A5C0000000000000C003000400030000C000082
:105A6C0000000000000000000000007C0000007C32
:105A7C0000000000000000000000000000600018A2
:105A8C000004001800600000000000000038004412
:105A9C0000040008001000100000001000000000BE
:105AAC0000380044004C0054005C004000400038BA
:105ABC000000000000100028002800280028007CAE
:105ACC0000440044000000000078004400440078CA
