:020000040800F2
:1000000000100020E91E0008751E0008771E000879
:1000100000000000000000000000000000000000E0
:10002000000000000000000000000000791E000831
:1000300000000000000000007B1E00087D1E00087C
:10004000391F000800000000391F0008391F000890
:10005000391F0008391F0008391F0008391F000820
:1000600000000000391F0008391F0008391F000870
:10007000391F0008391F0008391F00080000000060
:10008000391F00080000000000000000391F0008B0
:1000900000000000391F0008391F0008391F000840
:1000A00000000000391F000800000000391F000890
:1000B0000000000000000000000000000000000040
:1000C00010B5064C2378002B07D1054B002B02D02E
:1000D000044800E000BF0123237010BD040000208D
:1000E00000000000981F0008044B10B5002B03D03F
:1000F0000349044800E000BF10BDC04600000000F6
:1001000008000020981F000802B471464908490001
:10011000095C49008E4402BC7047C0460022430877
:100120008B4274D303098B425FD3030A8B4244D3BF
:10013000030B8B4228D3030C8B420DD3FF22090201
:1001400012BA030C8B4202D31212090265D0030BC0
:100150008B4219D300E0090AC30B8B4201D3CB03B6
:10016000C01A5241830B8B4201D38B03C01A5241F8
:10017000430B8B4201D34B03C01A5241030B8B42FA
:1001800001D30B03C01A5241C30A8B4201D3CB02E5
:10019000C01A5241830A8B4201D38B02C01A5241CA
:1001A000430A8B4201D34B02C01A5241030A8B42CD
:1001B00001D30B02C01A5241CDD2C3098B4201D3E5
:1001C000CB01C01A524183098B4201D38B01C01A63
:1001D000524143098B4201D34B01C01A52410309DA
:1001E0008B4201D30B01C01A5241C3088B4201D389
:1001F000CB00C01A524183088B4201D38B00C01A36
:10020000524143088B4201D34B00C01A5241411A5C
:1002100000D20146524110467047FFE701B5002069
:1002200000F006F802BDC0460029F7D076E7704717
:100230007047C04610B5040000F020FDFA21890087
:10024000FFF76CFF00F082F90120002221004042FC
:1002500000F04CF9002010BD1023064A10B51168BB
:1002600000200B431360FFF7E5FF01F071FD002054
:1002700010BDC04600200240024A136801331360DB
:100280007047C04620000020014B18687047C046E8
:100290002000002037B50190FFF7F6FF019C050014
:1002A000631C5A1E9341E418FFF7EEFF401BA04267
:1002B000FAD337BDF8B504000120002C72D0636C6E
:1002C000002B06D122004032A3642000137001F0FD
:1002D00067FD636CDB0600D579E00422236898682B
:1002E000104000D073E0626C4249114002220A4380
:1002F000032162649A680A40012A00D06DE01968FF
:10030000114202D1DA68120467D5DA683A49256ADF
:100310000A40DA60A2696F039103E269D2031143D4
:10032000626B013A561EB2411603E268114322691C
:100330000F43022A00D10420226B616A52003A4323
:1003400032430243012904D1002D2CD180214902DE
:100350000A43C220A16AFF30814202D0E06A014311
:100360000A438020D96840051143D960A16B8142BE
:1003700002D0481E062807D8072558692940A843F7
:100380005861586901435961DB681C490B409A4226
:1003900011D100200322A064636C93431A0001234F
:1003A00013436364F8BD2020656C28436064A06C2F
:1003B0000143A164CDE71222636C012093431A002C
:1003C000102313436364A36C0343A364EAE710237D
:1003D000626C012013436364E4E71821DA688A43FE
:1003E000A1680A43DA6019696268890089081143C3
:1003F00019618AE7FDFEFFFF1902FEFFE7FF3F8359
:10040000F7B500230400019340342378050002204F
:10041000012B2BD001232A68AE6B90682370400714
:1004200052D42C484F680D6887423BD0AB4018002F
:100430008023976A5B05384390629E420FD0013E4D
:10044000062E0CD98B68072150690840834206D0DC
:1004500050690B40884350615069034353612B003E
:10046000103B012B03D9002000232370FEBD1A4B43
:1004700080221968102D13D0D2030A431A60102D60
:10048000F1D1164B16491868FFF748FE0A23584366
:100490000190019B002BE6D0019B013B0193F8E703
:1004A0001204EAE7AB40916A99432B00103B91623A
:1004B000012BD8D8084B1A68102D03D009490A40DF
:1004C0001A60D0E70849FAE72022696C18000A434D
:1004D0006A64C9E7011000000827014000000020FD
:1004E00040420F00FFFFBFFFFFFF7FFF70B5890194
:1004F000002814DA0F23C0B20340083B114A9B08BE
:100500009B009B18032210409040FC3215001140C4
:1005100085408140DC69AC432143D96170BD03252E
:1005200083082840A840FC352E00074A9B009B18F2
:10053000C02286402940814092009C58B443214308
:100540009950EBE700ED00E000E100E0094A431EAE
:10055000012093420DD8C021074A08485360036A1E
:1005600009061B021B0A0B4303620020072390604D
:1005700013607047FFFFFF0010E000E000ED00E0B7
:10058000054B1A68042802D11043186070470421F3
:100590008A431A60FAE7C04610E000E0704710B5E1
:1005A000FFF7FCFF10BD0000F0B50B6887B00293A9
:1005B00000230191029ADA4001D107B0F0BD012277
:1005C0009A4003920399029A0A40009200D18CE06B
:1005D000019A1021526816008E43022E0ED1072573
:1005E0001D40AD000139A940DC08A4000419276AA8
:1005F0008F4301990969A9400F43276203245F00D3
:10060000BC40E4430568013E2540AC460325154047
:10061000BD4061460D430560012E0FD801998668E3
:10062000CD682640BD40354385604668039915096D
:100630008E4301210D409D4035434560C5680199B9
:100640002C408D688021BD4049052C43C4600A427E
:100650004BD00121264C0326A5691E400D43A56100
:10066000A4699D080C400594059C0F242149AD0008
:10067000B6006D18B4409021AF68C905A7430024A7
:1006800088420CD01C490134884208D01B490134EF
:10069000884204D01A490334884200D1023CB44055
:1006A00000993C430E00AC60164CCD4327683E4396
:1006B000D10301D43E002E4026606768009E3E4371
:1006C000910301D43E002E406660A768009E3E4321
:1006D000D10201D43E002E40A660E668009F374359
:1006E000920201D42E403700E760013362E7C04632
:1006F00000100240000001400004004800080048CB
:10070000000C004800040140002A01D081617047BC
:100710008162FCE74369594041617047F0B5036865
:1007200085B00500DB072FD42B689B0700D581E03F
:100730002B681B0700D5BCE02B685B0700D5DFE00A
:100740002B68DB061AD56A69B54C0423012A00D050
:100750004BE1616B02260B436363636B1A43626375
:10076000FFF792FD0700636B334200D136E1F821B9
:10077000626BAB698A43DB0013436363296A002918
:1007800000D059E1002013E00C21A54C62680A401A
:10079000042A06D063680B40082B0BD16368DB0387
:1007A00008D523689B03BFD56B68002BBCD1012003
:1007B00005B0F0BD6B68012B13D1802322685B026A
:1007C00013432360FFF760FD80260700B60223680D
:1007D0003342A9D1FFF758FDC01B6428F7D9032085
:1007E000E6E7002B16D123688E4A8026134023604B
:1007F00023688D4AB60213402360FFF745FD0700CA
:100800002368334200D18FE7FFF73EFDC01B642809
:10081000F6D9E4E7052B05D180232268DB021343D8
:100820002360CAE723687F4A1340236023687E4A17
:100830001340C6E70C227A4C6368134206D0636803
:100840001340082B10D16368DB030DD423689B078A
:1008500002D5EB68012BAAD1F82122682B698A43C3
:10086000DB001343236063E7EA680123002A0FD00B
:100870002268022613432360FFF706FD0700236862
:100880003342E9D1FFF700FDC01B0228F7D9A6E7E4
:10089000226802269A432260FFF7F6FC07002368CD
:1008A000334200D144E7FFF7EFFCC01B0228F6D922
:1008B00095E7EA6901235A4C002A10D0626A0226A1
:1008C00013436362FFF7E0FC0700636A334200D022
:1008D00032E7FFF7D9FCC01B0228F6D97FE7626A2E
:1008E00002269A436262FFF7CFFC0700636A334235
:1008F00000D121E7FFF7C8FCC01B0228F6D96EE73C
:1009000080220021464C5205E3690091134208D130
:10091000E3691343E361E36913400393039B0123FA
:1009200000938027414E7F0033683B4206D0AB687E
:10093000012B13D1226A1343236230E033683B4317
:100940003360FFF7A1FC019033683B42EFD1FFF722
:100950009BFC019BC01A6428F6D940E70122002BBA
:1009600014D1236A022793432362236A03329343F9
:100970002362FFF789FC0600236A3B4225D0FFF77C
:1009800083FC2B4B801B9842F6D928E7052B0BD113
:10099000216A013B0B432362236A1A432262FFF759
:1009A00073FC022706000DE0236A934304222362AE
:1009B000236A9343C0E7FFF767FC1D4B801B9842F7
:1009C00000D90CE7236A3B42F5D0009B012B00D0F5
:1009D000B6E6E369174A1340E361B1E6FFF754FC5A
:1009E000C01B022800D8BEE6F9E6053203D1626BCF
:1009F0009A436263BBE6626B022613430122636380
:100A0000636B93436363FFF73FFC0700636B334201
:100A100000D1B3E6FFF738FCC01B0228F6D9DEE6AA
:100A200000100240FFFFFEFFFFFFFBFF00700040D1
:100A300088130000FFFFFFEF0C22264C01206368A3
:100A40001340082B00D1B3E62368234A13402360E8
:100A500002292FD1FFF718FC80260700B60423686F
:100A6000334221D10F22E36A9343EA6A1343E362DC
:100A7000696AAB6A62680B43184980250A401343D0
:100A80006360802322685B0413432360FFF7FCFB51
:100A90000600AD0423682B4200D073E6FFF7F4FB99
:100AA000801B0228F6D99AE6FFF7EEFBC01B02284E
:100AB000D5D994E6FFF7E8FB80250600AD0423684E
:100AC0002B4200D15EE6FFF7DFFB801B0228F6D940
:100AD00085E6C04600100240FFFFFFFEFFFFC2FF99
:100AE00070B5164C88B010222100684601F04AFA11
:100AF000210004AD10221031280001F043FA0C232C
:100B00000F4E72681340042B15D0082B02D00D48ED
:100B100008B070BD0F206B46910C01405C5CF36A1D
:100B20000340E95CD30304D50748FFF7F7FA6043B5
:100B3000EEE70648FBE70448EAE7C046B01F0008B6
:100B40000010024000127A000024F40000093D0069
:100B5000F7B50122434C060023680F0013408B4277
:100B60001CD33268930723D4D30729D401232268E6
:100B70001A40974267D333683B4C5B076AD4FFF750
:100B8000AFFF6368394A1B061B0FD35CD840384B54
:100B900018600020FFF74EFB002008E02368934315
:100BA0000B432360236813409942DAD00120FEBD35
:100BB000F0202D494B688343B06803434B60D3E773
:100BC000294D72682B68012A1AD19B03EED50321A7
:100BD0006B688B4313436B60FFF756FB73680190A0
:100BE000012B15D10C226B681340042BBED0FFF7EC
:100BF0004BFB019BC01A1F4B9842F3D90320D6E749
:100C0000022A02D19B01E2D4D0E79B07DFD4CDE7D3
:100C1000022B12D00C226B681342A7D0FFF734FBD3
:100C2000019BC01A134B9842F4D9E7E7FFF72CFB5E
:100C3000019BC01A0F4B9842E0D80C226B681340FE
:100C4000082BF3D192E722689A43226022681A4265
:100C5000ACD190E76368084A1340F26813436360BD
:100C60008DE7C0460020024000100240DE1F000851
:100C70000000002088130000FFF8FFFF014B1868F8
:100C80007047C04600000020044B054A5B685B05C6
:100C90005B0FD35C034A1068D840704700100240D5
:100CA000EE1F000800000020F0B5036885B00500C5
:100CB000DB0328D580220021374C5205E3690091DF
:100CC000134208D1E3691343E361E36913400393DB
:100CD000039B012300938027304E7F0033683B4203
:100CE00026D0C022236A920013402D4E32D1236AAF
:100CF0001E406B681E43009B2662012B03D1E369F3
:100D0000284A1340E3612A68D30706D50320224905
:100D10000B6B8343A86803430B630020930617D52E
:100D200010211D4A136B8B43E9680B4313630FE0DB
:100D300033683B433360FFF7A7FA019033683B42C7
:100D4000CFD1FFF7A1FA019BC01A6428F6D903207E
:100D500005B0F0BD69680A409342C8D08023226A7A
:100D6000206A11005B0203432362236A0E4831406C
:100D7000034023622162D307B9D5FFF785FA070044
:100D80000222236A1342B2D1FFF77EFA074BC01B3F
:100D90009842F5D9DBE7C0460010024000700040E1
:100DA000FFFCFFFFFFFFFFEFFFFFFEFF88130000C8
:100DB000E021036810B55A688A435A60822241686C
:100DC000520091420CD18021826809028A4203D0EC
:100DD0008021C9008A4203D140211A688A431A60DF
:100DE0008021826A89018A4206D11968074C214014
:100DF000196019680A431A60030001225D331A70F2
:100E000000235C300370032010BDC046FFDFFFFFEE
:100E1000F8B505000C00160080272B68986838404C
:100E200006D0621CFAD0002C03D12800FFF7C0FFC7
:100E3000F8BDFFF729FA801B8442EED8F5E7F0B53C
:100E4000C02706000D00140085B00193FF0002AB1F
:100E50003168DA1D886828400CD0BD4203D10B7B75
:100E6000DBB213701378631CF4D0002C04D1300073
:100E7000FFF79EFF05B0F0BDFFF706FA019BC01A11
:100E80008442E4D8F3E770B513000D0016000A00A1
:100E9000C02149010400FFF7D2FF002805D020231C
:100EA000226E0320134323660FE032002900200046
:100EB000FFF7AEFF0028F2D1C02133002A00C9009D
:100EC0002000FFF7BCFF0028E9D170BDF8B5040091
:100ED0000120002C4BD000232500A3625D352B7828
:100EE000DBB2002B05D122005C321370200000F031
:100EF00077FF0223402221682B700B680020934368
:100F00000B60E023E268DB009A4231D9F02636011B
:100F1000B24233D10600206B002803D19A422FD968
:100F200002232363A7686368A0693B4327693B43A7
:100F300067693B43E7693B43276A3B43A76A3B43F7
:100F40008027BF0007403B430B60636A000C1A43D5
:100F5000636B1A4304231840104306434E60CB6969
:100F6000084A00201340CB61012320662B70F8BD96
:100F7000802676019A42CED0A062CCE70600FBE73D
:100F80000123CEE7FFF7FFFFF7B51F000300009234
:100F90005C331A7804000D000226012A00D1AEE06D
:100FA00001221A70FFF770F9230001905D331B785E
:100FB0006168DBB2012B0BD082225200914200D03B
:100FC00096E0A268002A00D092E0042B00D08FE0C7
:100FD0000126002D00D18BE0009B002B00D187E083
:100FE000002F00D184E023005D331A78042A01D059
:100FF00005221A70009A002322642200E026A01D18
:1010000008322366D787C787E068E3642365A56352
:10101000E787A787F6002368B04202D8D28F012A5B
:1010200031D95A68714E32405A60402223681E6896
:10103000164202D11E6832431A60E0222600D20016
:10104000083690425DD9002902D0E28F012A06D1EC
:101050002A880235DA60E38F013B9BB2E3870127E0
:10106000E38F002B14D1F38F002B11D1019A089933
:101070002000FFF708FF002800D0B3E0266E731EA3
:101080009E41F6B234E080225E6852013243CBE7E3
:10109000002F0FD0E38F002B0CD0022123689A6819
:1010A0000A4207D000272A886D18DA60E38F013BD7
:1010B0009BB2E387F38F002B0FD0012123689A683E
:1010C0000A420AD0DB68009A0F0013801300023333
:1010D0000093F38F013B9BB2F387089B0133BFD092
:1010E000FFF7D2F8019BC01A089B8342B8D80326A9
:1010F000230001225D331A7000235C34237030001A
:10110000FEBD002902D0E28F012A09D1E28F012A17
:101110004CD92A880235DA60E38F023B9BB2E38721
:101120000127E38F002B03D1F38F002B00D19DE724
:10113000002F12D0E38F002B0FD0022123689A6872
:101140000A420AD0E28F012A38D92A886D18DA605B
:10115000E38F023B9BB2E3870027F38F002B1AD06B
:10116000012123689A680A4215D0F28F8A422DD94C
:10117000DA68009901270A800A0002320092F28F91
:10118000023A92B2F287F28FBA4204D880225968AA
:1011900052010A435A60089B0133C2D0FFF774F82A
:1011A000019BC01A089B8342BBD8A0E72A7801356F
:1011B0001A73E38F013B9BB2E387B1E72A780135CD
:1011C0001A73E38F013B9BB2E387C5E71B7B009A51
:1011D00001271370F38F013B9BB2F3871300013398
:1011E0000093D8E72023236648E7C046FFEFFFFFC0
:1011F00070B504000568C269836800692968034303
:10120000606903433548134301400B432B606B680F
:101210003349206A0B40E1680B436B60A369A968FE
:101220000343304801400B430321AB602E4B1B6B43
:101230000B402E49C85C80231B029A422CD10828FF
:1012400027D8FEF761FF05260B261E26262621003D
:10125000FFF71AFD636840005B0802E06368580806
:10126000234BC0186168FEF759FF83B200200F229C
:10127000190091430A001B0721685B0F1343CB60E1
:1012800070BDFFF72DFCE5E76368580880235B021B
:10129000E7E701200023EAE708281DD8FEF734FF1E
:1012A000051C0A1C141C1C1C1700FFF7EDFC6168D0
:1012B0004B0802E061680F4B4808C018FEF72EFF8C
:1012C00080B2E8600020DBE7FFF70AFCEFE780234D
:1012D00061681B024808F0E70120D1E7F369FFFFCE
:1012E000FFCFFFFFFFF4FFFF00100240D01F0008F8
:1012F0000024F40000127A00436A30B5DA0706D5FC
:101300000168284C4A682240846A22434A609A074E
:1013100006D50168244C4A682240C46A22434A60C8
:101320005A0706D50168214C4A682240046B2243C3
:101330004A601A0706D501681D4C4A682240446B72
:1013400022434A60DA0606D501681A4C8A682240B0
:10135000846B22438A609A0606D50168164C8A6817
:101360002240C46B22438A605A0610D50168134D8F
:101370004A68046C2A4022434A6080225203944205
:1013800005D14A680E4C2240446C22434A601B0639
:1013900006D502680B4953680B40816C0B435360C0
:1013A00030BDC046FFFFFDFFFFFFFEFFFFFFFBFF5D
:1013B000FF7FFFFFFFEFFFFFFFDFFFFFFFFFEFFFFD
:1013C000FFFF9FFFFFFFF7FF70B5041E01D1012053
:1013D00070BD050069352B78DBB2002B04D102000B
:1013E0006832137000F020FD2423012122682B7045
:1013F000136820008B431360FFF7FAFE0128E6D044
:10140000636A002B02D02000FFF776FF23680B49A8
:101410005A6800200A4008215A609A688A439A60F4
:10142000012219680A431A6022002023E0666A320A
:1014300068342B7013702070CAE7C046FFF7FFFFB7
:10144000122330B595B00893A022023B01240C93DF
:101450000E9302250023920308A80B940D94109577
:10146000119312921393FFF759F9002800D0FEE769
:101470000723029003902100684600930195FFF72F
:1014800067FB002800D0FEE7069004A80494FFF74D
:101490000BFC041E00D0FEE7FFF7F0FBFA218900E9
:1014A000FEF73CFEFFF752F80420FFF769F8012031
:1014B000220021004042FFF719F815B030BD0000AE
:1014C000002330B58FB001AC2370A370E371134BD0
:1014D0000322A360124B134DE360134B6270236130
:1014E000124BE27063610A23A3619023DB05636200
:1014F000E3611023013222710B326271A27121006B
:10150000073A28002285238400F095FB084B210030
:101510002800019300F000FC0FB030BDD41F00087C
:10152000D91F000834000020DC000020E00000206B
:10153000EFBEADDE70B588B0FEF78EFEFFF780FF20
:1015400080205B4BC00359695A4C014359615A6969
:101550000025024080200092009A596980020143D0
:10156000596180215A69C902024090200192019A72
:101570005A69C0050A435A615B6900220B40029315
:101580002100029BFFF7C0F8002202214A48FFF722
:10159000BBF89020012603A9C00503940496059585
:1015A0000695FFF701F8022303A943480393049625
:1015B00005950695FEF7F8FF80239020DB01039345
:1015C0003E4BC00503A904930595FEF7EDFF3C4C87
:1015D0003C4B2000236004236361C223FF3365601A
:1015E000A560E5602661A561E56125626562A3628B
:1015F000E56225636663FEF75DFEA84200D0FEE764
:1016000080235B010493802303905B0503A92000E2
:101610000593FEF7F5FE002800D0FEE703A92000A1
:101620000396FEF7EDFE002800D0FEE7264B274A82
:1016300098601A60822252005A60E022D200DA607A
:10164000802292009A61E13AFF3ADA61163A186113
:101650005861186258629862DA621863023A180098
:101660005A63FFF733FC002800D0FEE7184B194AF5
:1016700098601A60962212025A600C22D860186193
:101680009861D8611862586218005A61FFF79CFE91
:10169000002800D0FEE79024FFF712FFE405642045
:1016A000FEF7F8FD10212000FFF734F8F7E7C046F9
:1016B000001002401C20000000040048000011102F
:1016C0004401002000240140E000002000300140DF
:1016D0006C0000200038014010B50022018D406AE6
:1016E000FFF712F810BD10B50122018D406AFFF717
:1016F0000BF810BDF0B585B002AF3B602023FB189E
:101700001D7804002B0068460833DB08DB00C01A94
:101710008546C31A02AE9D4602AB7B600023317042
:101720009D421ADC218C0022E069FEF7EDFFA269E0
:101730006B1C00927A6831006069FFF725FC012379
:10174000002807D1A84210DB218C0122E069FEF7B6
:10175000DBFF0023BD461800FEBDD15CF0184170D0
:1017600000207968C8540133DAE77A680130125CE6
:101770003968431ECA54E5E71FB513000F22002441
:101780006A44147001340094FFF7B4FF431E98417B
:10179000C0B204B010BD1FB50F2300246B441C70F1
:1017A000203421431F3C0094FFF7A4FF431E9841BF
:1017B000C0B204B010BD97B50A006946047902AF03
:1017C000E31DDB08DB00CB1A9D46A02102AB009491
:1017D000FFF790FFBD46431E9841C0B292BD1FB5B2
:1017E0000E230F2200216B446A441970117000917E
:1017F000E231FFF77FFF431E9841C0B205B000BD44
:1018000073B56B46DC1D00230E0022000621050087
:101810002370FFF7B1FF002801D0012076BD2378A7
:101820002022F10710D5134323700823B2070DD5EA
:10183000227813432370220006212800FFF7ABFF14
:101840000028EAD12E70E9E79343EDE722789A4326
:101850002270F0E737B56B46DC1D0023220007211C
:1018600023700500FFF788FF03000120002B0BD138
:101870002278703313430721220028002370FFF7DA
:101880008AFF431E9841C0B23EBD73B56B46DC1D56
:1018900000230D002200052106002370FFF76CFFD6
:1018A000002801D0012076BD7F231D40237822002F
:1018B0002B43052130002370FFF76DFF0028F1D185
:1018C000F571F0E773B56B46DC1D00230D002200B7
:1018D000042106002370FFF74FFF002801D00120EC
:1018E00076BD0F222378154093432B432200042119
:1018F00030002370FFF74FFF0028F0D17571EFE73C
:1019000073B56B46DC1D00230D0022000421060088
:101910002370FFF731FF002801D0012076BD0F2290
:101920002378154013402A0113430421220030007C
:101930002370FFF730FF0028EFD1B571EEE773B5E4
:101940006B46DC1D00230E002200032105002370DE
:10195000FFF712FF002801D0012076BD0321237874
:1019600022000B40334328002370FFF714FF0028A8
:10197000F2D1EE70F1E707B56B46DA1D1170022166
:10198000FFF709FF431E9841C0B20EBD73B56B4609
:10199000DC1D00230E002200012105002370FFF74B
:1019A000EBFE012100280BD10B00B3402278280068
:1019B000134322002370FFF7EEFE411E8841C1B29F
:1019C000080076BD73B56B460E000021DC1D2200B9
:1019D00005002170FFF7D0FE03000120002B0DD180
:1019E00023780822002E0AD0134322000021280069
:1019F0002370FFF7D0FE431E9841C0B276BD9343DB
:101A0000F3E773B56B460E000021DC1D22000500D4
:101A10002170FFF7B1FE002801D0012076BD2378A8
:101A2000012E0BD104221343220000212800237031
:101A3000FFF7B1FE0028F0D1AE70EFE70822934324
:101A4000F2E773B56B460E000021DC1D2200050095
:101A50002170FFF791FE03000120002B0DD12378A8
:101A60000222002E0AD013432200002128002370F6
:101A7000FFF791FE431E9841C0B276BD9343F3E752
:101A800073B56B460E000021DC1D2200050021709D
:101A9000FFF772FE012302001800002A0CD1227801
:101AA000002E0AD013432370220000212800FFF7E4
:101AB00072FE431E9841C0B276BD9A432270F3E78E
:101AC00073B56B460E000021DC1D2200050021705D
:101AD000FFF752FE03000120002B0DD12378402296
:101AE000002E0AD113432200002128002370FFF7A3
:101AF00052FE431E9841C0B276BD9343F3E773B5DF
:101B00006B460E000021DC1D220005002170FFF74E
:101B100033FE03000120002B0DD123782022002E5C
:101B20000AD113432200002128002370FFF733FE5F
:101B3000431E9841C0B276BD9343F3E773B56B463D
:101B40000E000021DC1D220005002170FFF714FEAD
:101B500003000120002B0DD123781022002E0AD182
:101B600013432200002128002370FFF714FE431EB8
:101B70009841C0B276BD9343F3E7052330B585B0F5
:101B80000D0000930A0002AB2A210400FFF7B2FD0A
:101B9000002802D1A56005B030BD0120FBE7052378
:101BA00030B585B00D0000930A0002AB2B21040074
:101BB000FFF7A0FD002802D1A56005B030BD0120CF
:101BC000FBE7052330B585B00D0000930A0002AB9A
:101BD00030210400FFF78EFD002802D1E56005B03A
:101BE00030BD0120FBE737B56B46DD1D3F231940B3
:101BF00029702A0011210400FFF7CDFD002803D031
:101C00000023012023713EBD2B782371FBE737B5FC
:101C10006B46DD1D3F23194029702A001221040064
:101C2000FFF7B9FD002803D00023012023713EBD3A
:101C30002B782371FBE773B50400342200F0A2F97E
:101C40002000FFF749FD218C0022E069FEF75CFDD2
:101C500001212000FFF7F5FE6B46DD1D0023022663
:101C60002B702978314052D021792000FFF7BBFF3B
:101C700021792000FFF7CBFFA1682000FFF78FFF3D
:101C8000E1682000FFF779FFE1682000FFF799FF86
:101C900001212000FFF714FF01212000FFF72FFF93
:101CA00001212000FFF74AFF01212000FFF78AFEF3
:101CB000A1782000FFF7A5FEE1782000FFF73FFEA6
:101CC000E1792000FFF7E1FD21782000FFF798FD82
:101CD00061792000FFF7F6FDA1792000FFF710FEE3
:101CE00003212000FFF747FE00212000FFF74EFEF2
:101CF0002000FFF7AFFD01212000FFF7C1FE20000B
:101D0000FFF76DFD2000FFF7EEFC002076BD2A00F6
:101D10002000FFF731FDA4E770B5050001230400A2
:101D20000E0034352B70FFF7D7FC00212000FFF7A1
:101D3000A7FE31002000FFF73EFD2000FFF7D3FC97
:101D40002B78012BFCD035342078C0B270BD000058
:101D500007B50120114B99690143996180219A6966
:101D6000490502400092009ADA6906380A43DA61AE
:101D70000022DB690B4001931100019BFEF7B6FBCB
:101D80000022022011004042FEF7B0FB0022012099
:101D900011004042FEF7AAFB07BDC04600100240FA
:101DA0007FB50D4B02689A4213D180200B4A800008
:101DB000916901439161936901A903400093009BDC
:101DC00003239020019302930023C0050393FEF7A1
:101DD000EBFB07B000BDC0460024014000100240EC
:101DE0007FB50F4B02689A4217D180200D4A4001FF
:101DF0009169014391619369032203400093009B21
:101E0000E02390200193DE3B0293002301A9C0054B
:101E1000039304920593FEF7C7FB07B000BDC046CD
:101E200000300140001002407FB5104B02689A421A
:101E300019D180200E4AC0019169014391619369D3
:101E400001A903400093009BC023DB000193022300
:101E5000029300239020039303330493C005023BB5
:101E60000593FEF7A1FB07B000BDC0460038014056
:101E7000001002407047FEE77047704710B5FEF74C
:101E8000FBF9FEF78CFB10BD0121114B11481A68BC
:101E90000A431A605A6802405A601A680E480240A3
:101EA0001A601A680D4802401A605A680C480240CD
:101EB0000F205A60DA6A8243DA621A6B09480240DC
:101EC0001A635A6B8A435A6300229A607047C0466D
:101ED000001002400CB8FF08FFFFF6FEFFFFFBFFFB
:101EE000FFFFC0FFECFEFFFF0D4885460D480E4981
:101EF0000E4A002302E0D458C4500433C4188C4264
:101F0000F9D30B4A0B4C002301E013600432A242C8
:101F1000FBD3FFF7B9FF00F011F8FFF70BFBFEE76B
:101F20000010002000000020040000200020000815
:101F30000400002090010020FEE7000070B500269C
:101F40000C4D0D4C641BA410A64209D1002600F0D4
:101F500023F80A4D0A4C641BA410A64205D170BD9B
:101F6000B300EB5898470136EEE7B300EB589847BB
:101F70000136F2E7F81F0008F81F0008F81F0008F4
:101F8000FC1F0008002310B59A4200D110BDCC5CA4
:101F9000C4540133F8E70000F8B5C046F8BC08BCEB
:101FA0009E467047F8B5C046F8BC08BC9E467047D0
:101FB00002030405060708090A0B0C0D0E0F10108A
:101FC0000102030405060708090A0B0C0D0E0F1089
:101FD00000040802010203040501020304060000D4
:101FE00000000000000001020304060708090000C9
:081FF0000000010203040000DF
:041FF800E9000008F4
:041FFC00C100000818
:0420000000127A0050
:0400000508001EE9E8
:00000001FF
